:100000000C9482050C94BA050C94BA050C94BA05AC
:100010000C94BA050C94BA050C94BA050C94BA0564
:100020000C94BA050C94BA050C942E2E0C94002F47
:100030000C9472280C94BA050C94BA050C94BA0569
:100040000C94BA050C94BA050C94BA050C94BA0534
:100050000C94BA050C94FB280C94BA050C94BA05C0
:100060000C94BA050C94BA050C94BA050C94BA0514
:100070000C94BA050C94BA050C94BA050C94BA0504
:100080000C94BA050C94BA050C94BA050C94BA05F4
:100090000C94BA050C94BA050C94BA050C94BA05E4
:1000A0000C94BA050C94BA050C94BA055F095F0963
:1000B0008B098B09EC090A0AF90AF90A0F0A850A61
:1000C000960A960A842287228C22932298229D22C5
:1000D000A222A722AC22B122B622BB22BD22C0227C
:1000E000C322C622C922CC22CE22D122D522E92483
:1000F0005B25F124BB24BF24F524C224F824032566
:10010000CD245125D1240725D5240B253525D924E7
:100110000F253F25DF2415251F25C624FC24C924CF
:10012000FF24E4241A252B254B254D25B724ED2447
:1001300064252F263526232629263B2641264726B9
:10014000682F8F2F87308F2F8730DB2FFE2F873040
:100150005530643007634236B79BD8A71A396856C2
:1001600018AEBAAB558C1D3CB7CC5763BD6DEDFDD9
:10017000753EF6177231BF000000803F05A84CCDD8
:10018000B2D44EB93836A9020C50B9918688083CD1
:10019000A6AAAA2ABE000000803F696E69745F6249
:1001A00061636B6C696768745F70696E28290A0007
:1001B000167C1E001F0020002100220023002400C6
:1001C0002B0014001A000800150017001C0018006E
:1001D000390004001600070009000A000B000D009A
:1001E000E10064001D001B0006001900050011005D
:1001F000E000E300E2008B0000002C002C00000077
:100200002500260027002D002E0035002A004B0077
:100210000C00120013002F003000310000004E00CF
:100220000E000F00330034003200280000000000F0
:1002300010003600370038008700E500520000004B
:100240008A000000E6002152E400500051004F00F7
:1002500035003A003B003C003D003E003F004000BE
:100260000100010001000100010001000100010086
:100270000100010022520100010001000100010003
:100280000100010001000100010001000100010066
:100290000100010001000100000001000100000058
:1002A0004100420043004400450001004C00A90009
:1002B0000100AC00AE00AB000100A8000000AA00E5
:1002C0000100010001000100010001000000000028
:1002D0000100010001000100010001004B000000CD
:1002E000010000000100215201004A004E004D00B3
:1002F00005782B782C782D782E782F7830783178F7
:100300000100010001000100007C0100010001006A
:100310000100010022520100010001000100010062
:100320002152010001000100010001000100010053
:100330000100010001000100000021782178000087
:1003400032780100010001000100010020782778C7
:1003500001000100010001000100010000002878F7
:100360000100010001000100010001000000000087
:1003700001000100010001000100010025780000DA
:100380000100000001002152010024782678237822
:1003900044454255473A2064697361626C65642E36
:1003A0000A0044454255473A20656E61626C6564B7
:1003B0002E0A000A0025303258006C65645F7461B3
:1003C000736B3A20004F6E6573686F743A206163F7
:1003D000746976653A2025640A000A00253038627F
:1003E000003A200025303258000A722F6320303145
:1003F0003233343536370A00290A002575002F00BC
:100400002575005D2800256400200025640020007B
:1004100025640020002564007C0025303258006DE2
:100420006F7573656B6579205B62746E7C7820797B
:10043000207620685D287265702F61636C293A20F0
:100440005B007267626C696768742074696D6572BD
:100450002064697361626C652E0A007267626C6960
:100460006768742074696D657220656E61626C6581
:10047000642E0A007267626C696768742073657421
:1004800020687376205B4E4F454550524F4D5D3A84
:100490002025752C25752C25750A007267626C69FC
:1004A0006768742073657420687376205B454550D7
:1004B000524F4D5D3A2025752C25752C25750A0067
:1004C0007267626C69676874207261696E626F77C7
:1004D00020736574206873763A2025642C25642C7B
:1004E00025642C25750A007267626C696768742040
:1004F00064697361626C65205B454550524F4D5D88
:100500003A207267626C696768745F636F6E6669D0
:10051000672E656E61626C65203D2025750A00724C
:1005200067626C6967687420656E61626C65205BE8
:10053000454550524F4D5D3A207267626C6967685D
:10054000745F636F6E6669672E656E61626C6520AD
:100550003D2025750A007267626C696768742074B3
:100560006F67676C65205B454550524F4D5D3A2083
:100570007267626C696768745F636F6E6669672E25
:10058000656E61626C65203D2025750A00726762A8
:100590006C69676874206D6F6465205B4E4F4545DC
:1005A00050524F4D5D3A2025750A007267626C69A2
:1005B000676874206D6F6465205B454550524F4DF0
:1005C0005D3A2025750A007267626C696768745F1E
:1005D000696E6974207267626C696768745F636FC3
:1005E0006E6669672E6D6F6465203D20302E205742
:1005F000726974652064656661756C742076616CDF
:1006000075657320746F20454550524F4D2E0A007A
:100610007267626C696768745F696E69742065658A
:10062000636F6E666967206973206E6F7420656EF4
:1006300061626C65642E0A007267626C6967687437
:100640005F696E6974207374617274210A00726745
:10065000626C696768745F696E69742063616C6C51
:1006600065642E0A007267626C696768745F636F05
:100670006E6669672E7370656564203D2025640A87
:10068000007267626C696768745F636F6E66696742
:100690002E76616C203D2025640A007267626C69C9
:1006A0006768745F636F6E6669672E736174203D5F
:1006B0002025640A007267626C696768745F636F03
:1006C0006E6669672E687565203D2025640A007294
:1006D00067686C696768745F636F6E6669672E6DC3
:1006E0006F6465203D2025640A007267626C69674B
:1006F00068745F636F6E6669672E656E61626C65B4
:10070000203D2025640A007267626C696768745F27
:10071000636F6E66696720454550524F4D3A0A0037
:100720001E0F0500047F3F1F643214643214783CAE
:100730001E1E140A05FFAA7F55406261636B6C6937
:1007400067687420737465703A2025750A006261C9
:10075000636B6C696768742064697361626C650AB5
:10076000006261636B6C6967687420656E61626CBE
:10077000650A006261636B6C6967687420746F67F7
:10078000676C653A2025750A006261636B6C696766
:1007900068742064656372656173653A2025750A23
:1007A000006261636B6C6967687420696E6372656F
:1007B0006173653A2025750A0000010101010101FC
:1007C0000101010202020202020202020303030308
:1007D00003030303040404040404040505050505D8
:1007E0000606060606070707070708080808090996
:1007F00009090A0A0A0B0B0B0C0C0C0D0D0D0E0E41
:100800000E0F0F0F101011111112121313141415D3
:100810001516161717181819191A1A1B1B1C1D1D47
:100820001E1E1F202021222223242425262627289D
:1008300029292A2B2C2D2D2E2F30313232333435CD
:10084000363738393A3B3C3D3E3F404142434445D0
:10085000464748494A4C4D4E4F50515354555658AF
:10086000595A5B5D5E5F616264656668696B6C6D59
:100870006F7072737577787A7B7D7E8082838587CF
:10088000888A8C8E8F91939596989A9C9EA0A2A30D
:10089000A5A7A9ABADAFB1B3B5B7BABCBEC0C2C412
:1008A000C6C9CBCDCFD1D4D6D8DBDDDFE2E4E7E9D2
:1008B000EBEEF0F3F5F8FAFDFF0A00253032582090
:1008C000006B6579626F6172645F7265706F7274DC
:1008D0003A200064656C5F6B65795F6269743A20E9
:1008E00063616E27742064656C3A20253032580AA3
:1008F000006164645F6B65795F6269743A2063616B
:100900006E2774206164643A20253032580A0073DF
:10091000757370656E64696E67206B6579626F616F
:1009200072640D0A005B575D005B535D005B525DB6
:10093000005B445D005B435D00260343006C007573
:1009400000650062006F00610072006400200036E4
:10095000003600250020007200650076003300009C
:1009600000140343006C007500650062006F0061B5
:10097000007200640000000403090409025B000324
:100980000100A0FA0904000001030101000921117E
:100990000100012244000705810308000109040148
:1009A00000010300000009211101000122B6000727
:1009B000058203200001090402000203000000096F
:1009C00021110100012222000705830320000107F5
:1009D0000503032000011201000200000008EDC120
:1009E00070230100010200010631FF0974A1010911
:1009F00075150026FF0095207508810209761500FF
:100A000026FF00952075089102C005010902A10189
:100A100085020901A1000509190129081500250110
:100A20009508750181020501093009311581257F7D
:100A300095027508810609381581257F950175088D
:100A40008106050C0A38021581257F9501750881FC
:100A500006C0C005010980A101850319012AB7005C
:100A6000150126B700950175108100C0050C09011C
:100A7000A101850419012AA002150126A0029501F1
:100A800075108100C005010906A101850605071939
:100A9000E029E71500250195087501810205071970
:100AA0000029EF1500250195F0750181020508194F
:100AB000012905950575019102950175039101C004
:100AC00005010906A101050719E029E7150025011F
:100AD00095087501810295017508810105071900C6
:100AE00029FF150026FF00950675088100050819E5
:100AF00001290515002501950575019102950175DE
:100B0000039101C011241FBECFEFDAE0DEBFCDBFDD
:100B100004B603FE18C08091C4039091C503A09150
:100B2000C603B091C7038730904BA740B04B59F430
:100B30001092C4031092C5031092C6031092C7030B
:100B4000E0E0F8E3099511E0A0E0B1E0ECEFFBE6AE
:100B500002C005900D92A83EB107D9F723E0A8EE98
:100B6000B1E001C01D92A43CB207E1F70E946016FB
:100B70000C94FC350C940000FF93EF93E091E80196
:100B8000F091E901309709F00995EF91FF910895EF
:100B9000FC018591803011F0EFDFFBCF0895FF2736
:100BA000E0E230E247FF0CC0419597FF09C0EDE25B
:100BB0006095709580959095611D711D811D911DA9
:100BC00027FF02C0219530E350E2AA27660F771F66
:100BD000881F991FAA1FA41710F0A41B63955A958C
:100BE000A9F7AA3008F0A95FA05DAF93F39561154E
:100BF00071058105910541F7ED3211F4EF93F395FD
:100C0000F21718F43F93F395FBCF8F91B5DFFA9568
:100C1000E1F70895E991F9918591803021F08532CD
:100C200019F0AADFF9CF089520E0E89455915532E4
:100C3000C1F3503311F4689455915A3348F450532A
:100C400090F3220F022E220F220F200D250FF4CF3A
:100C50000EF4219589919991533619F3533729F15F
:100C6000533559F1BC0188279927E8945C3621F463
:100C70008991999168945591543639F446EF7EF0F4
:100C800077FF0DC08FEF9FEF0AC055374AE039F06C
:100C9000583540E121F0523642E009F00895FF93C3
:100CA000EF937DDFEF91FF91B7CFFF93EF93FC01BF
:100CB00081918030B9F360DFFBCFFF93EF9368DF62
:100CC000F1CFDF93CF93CDB7DEB72596A3DFCF91DA
:100CD000DF9108958AE991E00E94C805569A279A03
:100CE000549A5E982F985C980895811104C05E9A7A
:100CF0002F9A5C9A08955E982F985C980895833097
:100D0000C8F46A30B8F44830A8F4E62FF0E09AE06E
:100D1000899FE00DF11D112483E0EE0FFF1F8A95DE
:100D2000E1F7E40FF11DEE0FFF1FE055FE4F859137
:100D30009491089581E090E008950E947F060895BF
:100D400081E0089581E008950E94A20608950E941E
:100D5000A40608950E94A206089508950E94AD0673
:100D60000895A6E0B0E0E7EBF6E00C94A7344983E1
:100D70005A839E833091EF0189819A81311115C088
:100D80003E81332359F0222349F00E94BB0C182FD7
:100D9000682F89819A810E94970C03C00E94A90C38
:100DA000182F69817A81812F04C00E94BB0C698150
:100DB0007A810E94BB132696E3E00C94C334FC01B5
:100DC000262F4081518162817381848195810E94A7
:100DD000B1060895CF93DF93EC0161E00E94DF0636
:100DE000BE010E94A706DF91CF910895CF93DF93B4
:100DF000EC0160E00E94DF06BE010E94AE06DF91BA
:100E0000CF91089508950E946E0B0E9402072FEF64
:100E100084E39CE0215080409040E1F700C0000056
:100E200008950E9403070E94212908950E94030744
:100E30000E94452908950F931F93CF93DF938C0150
:100E400061E00E94DF06EC01B8010E94AA06882337
:100E500089F1B801CE010E943824882359F1B801E4
:100E6000CE010E941726882329F1B801CE010E94E5
:100E700093248823F9F0B801CE010E947D258823B0
:100E8000C9F0B801CE010E946E22882399F0F801C2
:100E900085818823F1F1C3308CE7D80781F160F4B4
:100EA000C130FCE7DF0769F1A8F4C115DC4789F51B
:100EB0000E941107C0E031C0CB35FCE7DF0739F1F4
:100EC000CC358CE7D80701F1CA35DC4711F50E9413
:100ED0000B111FC08091B602C82FC095C170C0FB16
:100EE00080F98093B602CC2329F082EA93E00E9435
:100EF000C805E0CF80E993E00E94C8050EC00E94BB
:100F000013110E941607D6CF0E94011102C00E9441
:100F10000F11C8010E94A006C82F8C2FDF91CF911E
:100F20001F910F9108950E944B2880E00E94182481
:100F30000E94D80708950E94F4220E94DC070E94B4
:100F4000542808958295982F937344E0949F9001BC
:100F500011248C7C86958695282B822F8575880F89
:100F60002A7A2695822B0895089581E0089581FFBD
:100F700002C02C9A08952C980895CF93DF93D82F10
:100F80000E94B507C82F882319F08D2F0E94B7073C
:100F90008C2FDF91CF910895249A2C980895CF93A8
:100FA000C82F0E94B4078C2F0E94BD07CF910895CF
:100FB00080E00E94CF0708950E945F260E94CF071D
:100FC0000895CF930E945F26C82F8091EA01C81729
:100FD00089F1C093EA010E94E0286093EB017093CD
:100FE000EC018093ED019093EE018091B60282FFB7
:100FF0001EC080FF04C08AEB93E00E94C805809168
:10100000B60280FF0CC01F92CF9385EB93E09F93B5
:101010008F930E9461060F900F900F900F90809118
:10102000B60280FF04C083EB93E00E94C8058C2FBA
:101030000E94CF07CF910895ADE0B0E0E2E2F8E082
:101040000C94A834488759876A877B878C879D874B
:1010500091110E942110CE01019627E0FC0111920E
:101060002A95E9F726E0FE013896DC0101900D9201
:101070002A95E1F72D8121110AC029813A814B81FE
:101080005C816D817E818F810E946B0F04C00E9404
:10109000EA068111F2CF2D96E2E00C94C434FC01F3
:1010A0002481213021F4808191810E94ED0C0895EA
:1010B000662319F00E94F81602C00E9453170E947E
:1010C000CA170895CF93882309F450C0C82F8CEF16
:1010D0008C0F813AD0F46C2F80910401909105011E
:1010E0000E942927882349F06C2F80910401909158
:1010F00005010E94D9270E944D106C2F8091040198
:10110000909105010E94CB270CC080E28C0F8830A3
:1011100058F4C77081E001C0880FCA95EAF70E94B1
:1011200004100E944D1022C0EBE5EC0FE33040F4B8
:10113000F0E0E05AFE4F808190E00E94C92616C080
:10114000E8E5EC0FEB3150F4F0E0EE0FFF1FE65D49
:10115000FE4F808191810E94EE2608C083E38C0FB0
:10116000833120F461E08C2F0E945808CF910895BC
:101170008823A9F19CEF980F913A40F4682F809151
:101180000401909105010E94D9270DC090E2980FAB
:10119000983060F4877091E001C0990F8A95EAF762
:1011A000892F0E940A100E944D1008959BE5980F08
:1011B000933028F480E090E00E94C926089598E5D5
:1011C000980F9B3128F480E090E00E94EE2608956D
:1011D00093E3980F933118F460E00E945808089543
:1011E0001F93CF93DF93182FEB010E946208209783
:1011F00041F08FE99FE00197F1F700C000002197CF
:10120000F6CF812F0E94B808DF91CF911F910895EA
:10121000893319F060E070E002C060E570E00E9480
:10122000F0080895882321F00E9404100E944D10B8
:101230000895882321F00E940A100E944D100895FD
:10124000A0E0B0E0E6E2F9E00C94A2347C01162FB5
:10125000C72FFC01D581068102950F700E94FA0FFD
:101260008823E9F0DD23D9F08C2F807F803451F082
:1012700080E2810F883098F0011104C08C2F807EAD
:10128000803269F080915F0382FF09C082E00E9492
:10129000C1100E94FA0F91E0D82ED92601C0D12C9E
:1012A000CC2EC2948FE0C8228C2D90E08C3091051A
:1012B00008F09FC1FC01EA5AFF4F0C9461348C2F57
:1012C000807FCF70882311F0C295C07FDD2399F015
:1012D000CC2309F47AC180E2810F883010F011111B
:1012E00004C08C2F0E94041003C08C2F0E94141085
:1012F0000E944D106AC1812F0E94B808CC2309F4C6
:1013000078C180E2810F883038F1112329F18C2FC8
:101310000E941A1024C08C2F807FCF70803211F071
:10132000C295C07F112319F0113099F13CC0809112
:101330005F0382FD17C0DD2349F0CC2329F08C2FF9
:101340000E9404100E944D1080E040C180E00E9485
:10135000B808CC2309F44DC18C2F0E940A100E94BA
:101360004D1047C1DD2349F0002309F1013009F098
:1013700040C18C2F0E942B103CC101113AC18C2F0F
:101380000E9419098C2F0E9437108C2F0E949410F4
:1013900030C1DD2321F0063008F02BC108C0053034
:1013A00008F027C115C0DD2331F001110EC18C2FCB
:1013B0000E9412091EC1002359F0193309F016C109
:1013C000FFEF27EE83E0F15020408040E1F70CC1B1
:1013D0008C2F0E9419090DC18C2F869586958370DC
:1013E00019F0813061F005C1DD2321F0812F9C2FA0
:1013F000937002C080E090E00E94C92602C1DD2304
:1014000021F0812F9C2F937002C080E090E00E9419
:10141000EE26F7C06D2F812F0E945808F2C08C2F46
:101420008370B1F5D111E9C0412F429546954770BF
:10143000440F440F812F8F7090E09C01042E02C056
:10144000220F331F0A94E2F714FF0AC08FE090E0E6
:1014500002C0880F991F4A95E2F78095909502C0C7
:1014600080E090E0C695C695C370822B932BC23066
:1014700049F058F4C13019F00E94CA0BBEC00E9456
:10148000C10BBBC00E94D30BB8C00E94BE0BB5C03D
:10149000DD2319F08C2F817001C08695882309F413
:1014A000ACC0412F429546954770440F440F812FA1
:1014B0008F7090E09C01042E02C0220F331F0A940B
:1014C000E2F714FF0AC08FE090E002C0880F991F76
:1014D0004A95E2F78095909502C080E090E0C6952D
:1014E000C695C370822B932BC23049F058F4C1309B
:1014F00019F00E94320C81C00E94290C7EC00E940B
:101500003B0C7BC00E94DF0B78C0CF70DD2339F02D
:101510008C2F0E94F70B812F0E9412096EC0812F21
:101520000E9419098C2F0E94070C67C0123F21F1FD
:1015300028F4103F41F0113FC1F043C0133F19F1AF
:10154000143F79F03EC0DD2341F0053008F051C072
:101550008C2F8F710E94190C4CC0063008F049C0C6
:10156000F7CF80915F0382FD18C0DD2339F08C2F07
:101570008F710E94F70B3DC0DD23C9F38C2F8F7153
:101580000E94070C36C0DD2329F08C2F8F710E943A
:10159000EB0B2FC00E94E60B2CC0DD2349F0CF716E
:1015A0008C2F0E94F70B63E08C2F0E94A31021C0A8
:1015B00081E00E94C1100230E0F082E00E94C11080
:1015C00018C0DD2331F0002391F2812F0E946208C0
:1015D00010C0002399F2193349F49FEFE7EEF3E0CE
:1015E0009150E040F040E1F700C00000812F0E94E0
:1015F000B80888EF8C0D843020F40E945F260E948A
:10160000CF07DD2089F00E94F60F80FD0DC0F701A5
:1016100015820E94F00F0E94F70BC7010E94310B48
:101620000E94F00F0E94070CCDB7DEB7E8E00C94E3
:10163000BE340F931F93CF93DF93EC0168817981C0
:101640008D810E94F80C8C010E94440C0E94AF0B0B
:10165000B801CE010E942009DF91CF911F910F9117
:101660000895CF93DF93FC0124812223D1F0EC0174
:101670000E941B0781110FC00E94FA0F882389F076
:101680008D81882371F080915F0382FF0AC082E020
:101690000E94C11006C0CE010E94190BCE010E940B
:1016A000F606DF91CF91089580E090E00E94C92670
:1016B00080E090E00E94EE260E9421100E944D10D2
:1016C0000E946B180E94CA1708958091040190919E
:1016D00005010E94E7270E94540B08950E941110F3
:1016E0000E94650B089592959F70963079F010F4E2
:1016F000925001C09A50923068F4803F69F018F41B
:10170000883E40F409C0843F29F406C0883E20F09A
:10171000813F11F080E0089581E00895FC0124816B
:10172000222339F0808191810E94ED0C0E94730B7D
:10173000089580E00895A6E0B0E0E1EAFBE00C94B3
:10174000A8342696E2E00C94C434A7E0B0E0EBEABB
:10175000FBE00C94A8342796E2E00C94C43408957E
:1017600008950E94B00B08950E94B10B08950E9445
:10177000B40B90931B0280931A0208950E94B70B3A
:10178000089520911A0230911B02822B932B0E9404
:10179000B70B089520911A0230911B0282239323E4
:1017A0000E94B70B089520911A0230911B028227E4
:1017B00093270E94B70B08950E94B00B08950E94D2
:1017C000DC0B9093190280931802089580E090E05A
:1017D0000E94DF0B089521E030E0A90102C0440F10
:1017E000551F8A95E2F7CA010E94DF0B089521E098
:1017F00030E002C0220F331F8A95E2F78091180271
:1018000090911902822B932B0E94DF0B089521E007
:1018100030E002C0220F331F8A95E2F72095309501
:101820008091180290911902822393230E94DF0B6A
:10183000089521E030E002C0220F331F8A95E2F7BD
:101840008091180290911902822793270E94DF0B42
:1018500008952091180230911902822B932B0E9437
:10186000DF0B0895209118023091190282239323EF
:101870000E94DF0B089520911802309119028227EF
:1018800093270E94DF0B08950895962F9770A1E08B
:1018900001C0AA0F9A95EAF793E0769567959A9515
:1018A000E1F7660F771F660F771FFA01E60FF71F44
:1018B00040E050E0682F70E090819B01042E02C050
:1018C000369527950A94E2F72170219529272A2336
:1018D000292721934F5F5F4F4430510569F70895E1
:1018E000FB01782F777023E0969587952A95E1F78D
:1018F000880F991F880F991FE80FF91F40E050E0EB
:1019000080E0219130E0072E02C0369527950A9499
:10191000E2F721703327042E01C0220F0A94EAF760
:10192000822B4F5F5F4F4430510559F70895282FA0
:101930009A3070F4883060F4862F622F70E028E0CF
:10194000929F600D711D112440EF51E00E94450CE3
:1019500008959A3070F4883060F4292F90E060EF99
:1019600071E038E0239F800D911D11240E94700CBE
:10197000089580E00895A0E0B0E0E1ECFCE00C9474
:10198000A1347C01009118021091190280911A0271
:1019900090911B02082B192BCFE0D0E0CC24C394EC
:1019A000D12CC6010C2E02C0880F991F0A94E2F7B1
:1019B00080239123892B21F4219798F7B12C07C01C
:1019C000BC2EB7018C2F0E94C7130197A9F38B2D52
:1019D000CDB7DEB7E9E00C94BD34CF93DF93EC01D3
:1019E0000E94BB0CBE010E94C713DF91CF910895E6
:1019F0001F93CF93DF93EB019091EF01992321F097
:101A0000CB010E94ED0C13C0882349F0CB010E944A
:101A1000BB0C182F682FCE010E94970C04C0CB017D
:101A20000E94A90C182FBE01812F0E94C713DF91BD
:101A3000CF911F9108951F93CF93DF93C0911C0204
:101A400017E080911D02C817A1F0D0E01C9FF001A3
:101A50001D9FF00D1124E25EFD4F208131814281F6
:101A600053816481758186810E94A50B2196C77080
:101A7000E8CFDF91CF911F910895209156023091C8
:101A80005702409158025091590260915A02709148
:101A90005B0280915C020E94A50B0895CF93DF93B7
:101AA00080915C0282958F7009F04EC080915B023C
:101AB000882309F449C080911C0240911D02509175
:101AC000570260915602C0915802D091590277E0B6
:101AD0008417D1F190E0789FF001799FF00D1124E7
:101AE000DF01A25EBD4F14962C911497222349F179
:101AF00011962C911197251324C02C91261321C0E7
:101B000015962C91159721111CC012962D913C9180
:101B100013972C1B3D0B283C310598F480915C02F7
:101B20008F70806180935C02EC5DFD4F80818F70CF
:101B30008061808386E592E00E94310B0E941B0D3C
:101B400003C001968770C4CFDF91CF910895209193
:101B50001C0290911D0257E02917A9F030E0529F16
:101B6000F001539FF00D1124E25EFD4F7181761359
:101B700006C07081781303C07581741306C02F5F8F
:101B80003F4F2770E9CF80E0089581E00895A4E1F8
:101B9000B0E0EDECFDE00C949E348C0186E0F801A1
:101BA000DE011F9601900D928A95E1F7F80184817C
:101BB000E58096E5A92E92E0B92E90915A029111F6
:101BC00018C0882309F480C1EE20D9F1C8010E9411
:101BD0008E0BF82E8823A9F187E0F801D50101903A
:101BE0000D928A95E1F7C5010E944F080E944E0DA3
:101BF00098C0F801C080D18082809380F0905B0211
:101C00002091580230915902A401421B530BFF202E
:101C100009F406C1483C510508F0AFC0882309F417
:101C200055C180915C02282F207F9091570222237A
:101C300061F09D1509F462C0C8010E948E0B8111EC
:101C400073C0C8010E94310B3FC19D1115C0909116
:101C500056029C1111C0E1100FC08F7080618093FB
:101C60005C020E943D0D86E592E00E94310B80915E
:101C70005C02F801868326C1E1103AC040E06D2D78
:101C80008C2D0E94A70D40E06D2D8C2D0E94A70D7C
:101C9000E82E811117C1CF86D88A8F8598890E9436
:101CA000ED0C292F22952F70243020F49F702230C4
:101CB00028F009C02A50223080F014C0992349F03E
:101CC000811107C013C0992321F0F8019681907FFC
:101CD00069F0805E883030F409C0803F38F0815F61
:101CE000833020F0C8010E94310BEF2CFE2CEEC097
:101CF00080915C02816080935C02E4C09091560206
:101D00009C119ACFE11098CFF8018683C8010E94F8
:101D1000310B87E0F801A6E5B2E001900D928A95BB
:101D2000E1F70E943D0DD2C0EE2009F48ACF209148
:101D30005C02822F82958F7090E002978CF08091E8
:101D4000560290915702998788879B868A86809150
:101D50005A028C871D862E87CE0108960E94310B71
:101D600087E0F801A6E5B2E001900D928A95E1F7CF
:101D70000E944E0D0E943D0DA7C090915C02292F3C
:101D8000207FA1F4682D9A8A898AA6017A899E2DDE
:101D90000E949B0B86E592E00E94310B87E0F501E3
:101DA00011928A95E9F70E943D0D8CC0882309F4B1
:101DB0008DC0809157028D1111C0809156028C11F7
:101DC0000DC0E1100BC0F8019683C8010E94310BD1
:101DD00087E0F50111928A95E9F778C0C8010E9461
:101DE0008E0B882309F42DCFEE2009F42ACF209101
:101DF0005C02822F82958F7090E002970CF4B0CF36
:101E000080915602909157029A8389839C828B829B
:101E100080915A028D831E822F83CE0101969ECF20
:101E2000483C510508F040C0882309F44DC0FE2C01
:101E3000EE2009F406CF809157028D1127C08091C2
:101E400056028C1123C090915C0290FD16C0892F20
:101E500082958F70282F30E02115310571F0F8013F
:101E600096832F30310509F451CF8F5F982F9295CB
:101E7000907F86818F70892B48CF87E0F801A6E597
:101E8000B2E001900D928A95E1F720C0C8010E944E
:101E90008E0B811165CF80915C02816080935C0222
:101EA000C8010E94310B12C0682D9A8A898AA60146
:101EB0007A899E2D0E949B0B87E0F50111928A95ED
:101EC000E9F72FCFF12C02C0FF24F3948F2D6496F5
:101ED000ECE00C94BA34AEE0B0E0E1E7FFE00C9443
:101EE000A734288739874A875B876C877D878E87E9
:101EF000CE0108960E94C70D882361F06C85662389
:101F0000A9F1288539854A855B857D858E850E9466
:101F1000A50B2CC087E0FE013896DE0111960190DA
:101F20000D928A95E1F76C85662301F120911D02DF
:101F300030E0C90101968770992740911C0250E05A
:101F400084179507E1F16D8397E0929FD001939FED
:101F5000B00D1124A25EBD4FFE01319601900D928D
:101F60009A95E1F780931D020E941B0D17E0809166
:101F70001C0290911D02891779F1189FC00111244C
:101F8000825E9D4F0E94C70D882331F1E0911C02B3
:101F90001E9FF0011124E25EFD4F208131814281BC
:101FA00053816481758186810E94A50B80911C02FA
:101FB00090E001968770992780931C02D8CF0E94E9
:101FC0006E0B10921D0210921C02E6E5F2E087E013
:101FD000DF011D928A95E9F72E96E3E00C94C33455
:101FE00080917D02869586958695089580917D02E3
:101FF0008770089590917D02977081E009F480E0E8
:1020000008958091A10208959091A102892B809357
:10201000A102089580959091A10289238093A10245
:1020200008951092A10208959091A002892B8093A7
:10203000A002089580959091A00289238093A00228
:1020400008951092A002089508950E942410089502
:102050000E942510089590917F02292F282382172E
:1020600029F0982B90937F020E9428100895909158
:102070007F02292F282331F08095892380937F02C6
:102080000E942810089580917F02882329F01092E1
:102090007F0280E00E9428100895CF93DF93E091A3
:1020A0000401F09105018091A1028083E091040177
:1020B000F091050190818091A002892B808380910D
:1020C0007F02882381F0E0910401F0910501908165
:1020D000892B808380910401909105010E94132730
:1020E00081110E944310C0910401D091050140E28A
:1020F00050E06DE572E0CE010E946F35892B59F0FA
:1021000080E2FE01ADE5B2E001900D928A95E1F723
:10211000CE010E946C26DF91CF9108950E94241079
:1021200008950E948E10089590917E02292F2823F1
:1021300031F08095892380937E020E94911008954A
:102140000E942410089590915F0392FF11C098E0BF
:10215000899F90011124262B20937D020E94F70B6A
:1021600080917D028695869586950E94A01008959F
:102170000E94F70B089510927D0280E00E94A0104B
:10218000089590917D028095892380937D02282F68
:10219000277069F4981759F090915F0392FF07C078
:1021A0008695869586950E94070C0E94BB1008951F
:1021B000CF9390915F0392FB222720F92817F9F023
:1021C000C82F892FC0FB82F980935F0380915E0343
:1021D00090915F030E94341182E00E94C1108091AF
:1021E000B60280FF0CC01F92CF9385EC93E09F93C3
:1021F0008F930E9461060F900F900F900F90CF91D8
:10220000089580915F0382FB882780F991E08927F8
:102210000E94D810089581E00E94D810089580E0AF
:102220000E94D81008956FEF7FEF80E090E00E9449
:10223000C735089580E090E00E94933521E0863E06
:102240009E4F09F020E0822F089582E090E00E94E6
:102250008535089583E090E00E948535089584E0F7
:1022600090E00E9493350895BC0184E090E00E94C4
:10227000C7350895AB01BC018FE090E00E94BB35EB
:102280000895AB01BC0183E190E00E94BB35089545
:1022900060E070E0CB010E944111089560E070E0C1
:1022A000CB010E943A110E9448110895A8E0B0E0C5
:1022B000ECE5F1E10C94A83466EE7EEF80E090E06E
:1022C0000E94C73560E082E090E00E94A93560E09E
:1022D00083E090E00E94A93510921B0210921A022E
:1022E00060E074E184E090E00E94C73560E086E041
:1022F00090E00E94A9356FEF87E090E00E94A93539
:1023000040E050E0BA0188E090E00E94BB3560E018
:1023100084E290E00E94A93560E087E190E00E94AD
:10232000A93560E08CE090E00E94A93560E08DE086
:1023300090E00E94A93519821A821B821C821D829C
:102340001E821F82188648E050E068E170E0CE01EE
:1023500001960E94993540E050E0BA0180E290E099
:102360000E94BB350E944E112896E2E00C94C434C2
:102370000E9456110895682F8EE090E00E94A935C2
:102380000895A6E0B0E0E7ECF1E10C94A6340E94D9
:10239000D4288C018091A2029091A30208171907FA
:1023A00081F019821A820E94D428682F49815A81AB
:1023B000792F80E090E00E941C081093A302009304
:1023C000A2022696E4E00C94C2340E94E0286093B6
:1023D000B2027093B3028093B4029093B5026093FB
:1023E000AE027093AF028093B0029093B102089551
:1023F00081E0089581E008950E94FA1108950895FA
:102400000E94FF1108950E94FF1108950E94031277
:1024100008950E94FF1108950E94091208950E94D4
:10242000FF1108958FEF9AE20E946D160E940F121D
:102430000E940C1208950E9400120E94FF1108953C
:102440000E94B8140E94CC070E946A0608950E9458
:10245000CB280E94C7150E9420120E94F4220E94DD
:10246000F3200E9406120895A6E0B0E0EAE3F2E14C
:102470000C949F340E94F811811103C00E94C11175
:1024800053C00E94DD1584EAE82E82E0F82E670131
:1024900000E0F60111916F01802F0E94D614812770
:1024A0000F5F0A3019F08823A1F302C0882331F3AB
:1024B0008091B60281FD0E94DC140E94FC11A82EBE
:1024C00010E099249394812F0E94D614B82EF7011E
:1024D000C080C82609F100E0DD24D3948C2D8D2125
:1024E000A9F0AA2099F009831A830E94D4289C831A
:1024F0008B839D8291E08B2D8D2109F490E04981A1
:102500005A816B817C818D810E941C080F5FDD0CDC
:10251000083021F7F701B0821F5FFFEFEF1AFF0AC3
:102520001A3089F60E94E5110E94B3210E948D188D
:102530000E94E1072696EBE00C94BB341F93CF93E7
:10254000DF930E94CC13EC01C11580E5D807E8F5B4
:10255000C11590E4D90708F0A8C0C03ED10530F5F8
:10256000CD3CD10508F094C0C83AD10578F4C53AFD
:10257000D10508F083C0C130D10509F47CC008F44E
:10258000F2C0C430D10508F0F1C0EDC0C33CD105A4
:1025900008F0E9C0C85AD0E0CC0FDD1FCD59DE4F9E
:1025A0000990D881C02DCE019464E1C0C11580E2AC
:1025B000D80708F0CBC0C11591E0D90708F06BC06F
:1025C000C83ED10508F4D2C0CEC0C03682E5D807D7
:1025D00028F5C03492E5D90708F079C0C03282E509
:1025E000D80708F06CC0C11592E5D90708F481C07E
:1025F0004C2F4695469580E2489FA0011124C37058
:1026000021E030E0C90102C0880F991FCA95E2F7A6
:10261000EA01C82BD92BCE019D68A9C0C03A82E53A
:10262000D807B8F48C2F8F71C03892E5D90708F01D
:102630007BC08695869590E2899F90011124C37096
:1026400081E090E002C0880F991FCA95E2F79A686E
:1026500068C0C03C82E5D80708F46DC0C03E92E572
:10266000D90708F080C0CF71DD27DC2FCC27CE0141
:10267000806F906A7CC081E090E079C0C55AD0E05C
:10268000C756DE4F8881C82FD0E0CE0190646FC05E
:10269000CE0190656CC08D2F0E946814182FCE015A
:1026A00099270E94CC131F715CC0CE0199270E940C
:1026B000CC13CC27DF70D06A8C2B9D2B58C0CF71E8
:1026C000D0E0DC2FCC27CE01816F906A50C08C2FD8
:1026D0008F718695869590E2899F90011124C37031
:1026E00081E090E002C0880F991FCA95E2F79C68CC
:1026F00018C08C2F8F710E94681495E0D695C795ED
:102700009A95E1F7CF70D0E0DC2FCC27282F30E06E
:1027100084FF05C084E0220F331F8A95E1F7D0695A
:10272000CE01822B932B23C090E0D82FCC27CE0153
:10273000846F906A1CC08C2F8F710E9468148F71F7
:1027400090E0D82FCC27CE01906211C08D2F8F71D1
:102750000E946814182FCE0199270E94CC131F7174
:102760009062912B04C080E090E001C0CE01DF9127
:10277000CF911F9108957A3038F4683028F4462FAD
:10278000672F0E949D06089580E090E008950E94C2
:10279000BB130E949E1208958238910569F1B0F42E
:1027A0008133910509F475C048F48932910509F423
:1027B00067C08A32910509F471C008958533910587
:1027C00009F459C089339105B9F00895833E910504
:1027D00089F138F4803E9105D1F0823E910529F1CE
:1027E0000895863E9105C9F1873E9105D9F1843E51
:1027F000910509F06CC027C020915E0320FD57C0F1
:1028000021FD55C020915F0323FD5BC00895809199
:102810005E0380FD48C080915F0380FF48C08091C7
:102820005E0384FD46C083EE51C080915E0382FF4B
:102830003CC0F5CF80915E0382FD37C080915F037D
:1028400080FD35C0ECCF80915F0381FF36C0809161
:102850005E0384FD2EC087EE39C080915E0383FF46
:102860002AC0F5CF80915E0383FD25C080915F0370
:1028700081FD23C0ECCF80915E0385FD22C01FC087
:1028800080915E0385FD1BC080915F0383FF19C0AB
:102890000AC080915E0386FD16C017C080915E035A
:1028A00086FD13C010C089E311C082EE0FC080EE18
:1028B0000DC080E00BC086EE09C084EE07C085E342
:1028C00005C089E203C08AE201C081E390E0089577
:1028D00090915E0392FF10C041E0282F24712430B4
:1028E00009F040E031E0282F2871283009F030E06D
:1028F000431711F02CE0822793FF10C041E0282FEE
:102900002471243109F040E031E0282F287128316A
:1029100009F030E0431711F02CE0822730915F037B
:1029200030FF10C051E0282F2171213009F050E014
:1029300041E0282F2871283009F040E0541711F0A9
:1029400029E0822731FF10C041E0282F2171213179
:1029500009F040E031E0282F2871283109F030E0FB
:10296000431711F029E0822794FD877E089508958A
:102970000E941A11811102C00E94B8110E942511F3
:102980008093B6020E942F1190935F0380935E03A1
:102990000E94B7140E942A1190E00E94BE0B809101
:1029A0001802909119020E94DC0B0895E82FF0E0C4
:1029B000E659FC4F80810895A0E0B0E0E2EEF4E13A
:1029C0000C94A23489EE93E00E94C8058AE6E82EB2
:1029D00083E0F82EC0E0D0E094EEC92E93E0D92E2B
:1029E0000CED13E0DF93CF93DF92CF920E9461064C
:1029F00081EE93E00E94C805F70181917F010E945A
:102A0000A2071F928F931F930F930E9461068AED76
:102A100093E00E94C80521968DB79EB708960FB621
:102A2000F8949EBF0FBE8DBFCA30D105D9F6CDB781
:102A3000DEB7E8E00C94BE3480EA8A95F1F7089599
:102A400000C008950E941C15089508950E94251540
:102A500008950E94261508950E94251508950E9444
:102A60002C150895F894E82FE295EF70F0E031A16D
:102A7000282F2F7081E090E001C0880F2A95EAF797
:102A8000982F9095932391A392A1892B82A3789458
:102A900008950F931F93CF93DF93C4EAD1E08991F8
:102AA0008F3F11F00E94321581E0CE3AD807B9F776
:102AB000CCE9D1E004EA11E089918F3F11F00E9446
:102AC00032150C171D07C1F7DF91CF911F910F91A0
:102AD0000895A0E0B0E0EFE6F5E10C94A2348C019B
:102AE000C62FD0E0CE018C559E4F7C01FC01908119
:102AF0009F3F09F447C0D62EF894E92FE295EF7076
:102B0000F0E081A19F7021E030E001C0220F9A9592
:102B1000EAF7822B81A382A12095282322A378940F
:102B20000E942015ECE9F1E044EA51E031E0C12CCB
:102B300021912F3F89F0A22FA295AF70B0E090961F
:102B40008C9190E02F7002C0959587952A95E2F7B9
:102B500080FD02C0832F01C080E0C82A330F4E17CA
:102B60005F0731F7F70180818F3F11F00E94321526
:102B700061E0C11001C060E08D2D0E942215C00FE0
:102B8000D11FC882CDB7DEB7E8E00C94BE340E94F6
:102B900049158AE0EAE6F3E0DF01982F1D929A9545
:102BA000E9F7E0E6F3E0DF011D928A95E9F78AE0B4
:102BB0000E9418160E942F150895AAE0B0E0E3EED7
:102BC000F5E10C94A5348E010F5F1F4F8AE0F801E8
:102BD00011928A95E9F7F12C6F2DC8010E946915B1
:102BE000F394FAE0FF12F8CF4AE050E0B80180E633
:102BF00093E00E946F3521E0009709F420E0892BD3
:102C000041F08AE0F801A0E6B3E001900D928A95C8
:102C1000E1F74AE06AE673E080E693E00E94191665
:102C2000182F0E942915812F2A96E5E00C94C134B3
:102C30000895EF92FF920F931F93CF93DF937C0140
:102C40008B01C42F222349F081E08093B9020E94B6
:102C5000D4289093B8028093B7028091B902811171
:102C600002C080E01AC08091B7029091B8020E9421
:102C7000EC280597B0F3D0E0AE01B701C8010E947F
:102C80006F35892B39F0AE01B701C8010E947C3540
:102C900081E001C080E01092B902CDB7DEB7E6E076
:102CA0000C94C0340E947C2B0E9427120E94892B16
:102CB00008950E948E2B0E9434120E94B22B089518
:102CC0000E946B280E94622B0E9412120E945216D0
:102CD0000E9459160E941B12FBCF9093E90180932A
:102CE000E8010895282F35EB2303C001112497FF35
:102CF00003C08058910902C080589F4F892F0895C2
:102D00008091C00280FF06C060910B0170E0660FE9
:102D1000771F26C081FF04C060910B0184E005C0CD
:102D200082FF07C060910B0188E0689FB001112409
:102D300017C09091BF029923D1F060910A019617B4
:102D400088F720910B0188E0289F90011124929F21
:102D5000A001939F500D112470E0CA010E942B34F2
:102D60006038710540F46115710519F406C068E01A
:102D700070E0862F08958FE7089581E0089580918F
:102D8000C00280FF08C06091070170E075956795EB
:102D90007595679521C081FF06C06091070170E0BD
:102DA0007595679519C082FF04C06091070170E0B6
:102DB00010C09091BE02992399F060910601961778
:102DC000A0F780910701899FC001112470E00E9443
:102DD0002B346038710540F46115710519F406C093
:102DE00061E070E0862F08958FE7089581E00895EF
:102DF0008D3C21F40E948016819504C08E3C29F4FC
:102E00000E9480168093C40208958F3C21F40E9492
:102E10008016819504C0803D29F40E94801680931D
:102E2000C3020895893D19F40E94BF1605C08A3D6A
:102E300031F40E94BF1681958093C50208958B3DA1
:102E400021F40E94BF16819504C08C3D29F40E9494
:102E5000BF168093C60208959FE2980F983078F4C9
:102E600021E030E0A90102C0440F551F9A95E2F716
:102E7000CA019091C202892B8093C20208958D3DB0
:102E800021F48091C00281600BC08E3D21F48091BD
:102E9000C002826005C08F3D29F48091C002846029
:102EA0008093C00208958D3C39F49091C40297FF3D
:102EB00035C01092C40259C08E3C29F49091C402CE
:102EC0001916BCF32BC09091C3028F3C29F497FFD5
:102ED00025C01092C30249C0803D19F41916CCF3E5
:102EE0001DC09091C502893D29F41916BCF41092B9
:102EF000C5023BC08A3D19F497FF10C0F8CF8B3D47
:102F000039F49091C60297FF09C01092C6022DC0F5
:102F10008C3D21F49091C6021916BCF39FE2980FE4
:102F2000983080F421E030E0A90102C0440F551F21
:102F30009A95E2F7CA0180959091C2028923809305
:102F4000C20213C08D3D21F48091C0028E7F0BC060
:102F50008E3D21F48091C0028D7F05C08F3D29F404
:102F60008091C0028B7F8093C0028091C302811147
:102F700006C08091C402811102C01092BF028091EC
:102F8000C502811106C08091C602811102C0109253
:102F9000BE0208958091B60283FF7EC08FE194E067
:102FA0000E94C8058091C2021F928F938AE194E02B
:102FB0009F938F930E94610688E194E00E94C80568
:102FC0008091C302282F082E000C330B3F938F9360
:102FD00085E194E09F938F930E94610683E194E0E2
:102FE0000E94C8058091C402282F082E000C330BC4
:102FF0003F938F9380E194E09F938F930E946106AB
:103000008EE094E00E94C8058091C502282F082E0A
:10301000000C330B3F938F938BE094E09F938F933F
:103020000E94610689E094E00E94C8058091C60272
:10303000282F082E000C330B3F938F9386E094E0EB
:103040009F938F930E94610683E094E00E94C805DD
:103050008091BF021F928F9380E094E09F938F93A3
:103060000E9461068EEF93E00E94C8058091C00225
:103070001F928F938BEF93E09F938F930E94610633
:1030800088EF93E00E94C8058DB79EB74C960FB6A7
:10309000F8949EBF0FBE8DBF0E94D4282091C3021A
:1030A000211104C02091C402222321F09093BD027B
:1030B0008093BC022091C502211104C02091C60258
:1030C000222321F09093BB028093BA0281EC92E01C
:1030D0000E94BB260895E1ECF2E086E0DF011D923C
:1030E0008A95E9F71092BF021092BE021092C002B8
:1030F0000895FC01828181110DC0838181110AC074
:103100008481811107C091E08581811101C090E027
:10311000892F01C081E081700895A6E0B0E0E3E965
:10312000F8E10C94A73486E0E1ECF2E0DE011196C0
:1031300001900D928A95E1F71092C3021092C40299
:103140001092C5021092C6028B81811104C08C813D
:10315000882309F456C08091BC029091BD020E9460
:10316000EC28AC019091BF02992339F020910C0119
:1031700030E02417350758F044C020910D018AE053
:10318000289F900111242417350718F03AC09F3F5B
:1031900019F09F5F9093BF021B81112361F00E9481
:1031A0008016111614F09FEF01C091E0989F902DAA
:1031B00011249093C3021C81112361F00E94801698
:1031C000111614F09FEF01C091E0989F902D1124EB
:1031D0009093C4028091C302882399F01091C40295
:1031E000112379F00E947216811101C081E0809351
:1031F000C302812F0E947216811101C081E0809369
:10320000C4028D81811104C08E81882309F456C0C7
:103210008091BA029091BB020E94EC28AC0190917F
:10322000BE02992339F02091080130E024173507B8
:1032300058F044C0209109018AE0289F9001112490
:103240002417350718F03AC09F3F19F09F5F9093FD
:10325000BE021D81112361F00E94BF16111614F0E9
:103260009FEF01C091E0989F902D11249093C5028B
:103270001E81112361F00E94BF16111614F09FEFFA
:1032800001C091E0989F902D11249093C6028091E7
:10329000C502882399F01091C602112379F00E948B
:1032A0007216811101C081E08093C502812F0E94B6
:1032B0007216811101C081E08093C602BE016F5F6A
:1032C0007F4F81EC92E00E94F927811105C081ECCB
:1032D00092E00E94791881110E94CA1786E0FE01CF
:1032E0003196A1ECB2E001900D928A95E1F7269615
:1032F000E3E00C94C334EF92FF920F931F93CF93AC
:10330000DF938B01682F11110AC0442329F0E82FA5
:10331000F0E0E754F84F6491762F862F75C0212F87
:1033200030E0E82FF0E0442321F0E754F84FE49137
:10333000F0E046E0049FC0011124CFEFD0E0BE01D1
:103340000E9417344BEA4603C001479F900D112499
:10335000800F911D800F911D982F990F890FAE013D
:10336000421B530B4E9FD0014F9FB00D5E9FB00D7F
:1033700011249B2F189FA0011124452F55278E0142
:10338000041B150B0E9FA0010F9F500D1E9F500D8B
:1033900011247E01E81AF108E29E8001E39E100DDF
:1033A000F29E100D1124212F3327C21BD30BCE9F69
:1033B0009001CF9F300DDE9F300D112462307105DA
:1033C000A9F048F46115710569F061307105C9F41F
:1033D0008B2F752F0DC06430710581F058F0663069
:1033E000710579F47E2F8B2F932F0DC0832F7B2FA8
:1033F0009E2F09C08E2F7B2F952F05C08E2F732FE8
:1034000002C07E2F852F692FCDB7DEB7E6E00C9482
:10341000C03441E00E947B1908950895682F70E040
:1034200080E090E00E94FE3120E030E04FE753E47E
:103430000E9421312BED3FE049E450E40E94273304
:103440000E9494330E949B3122EB3AE54CEB5EE301
:103450000E94B43022E03FE24AEA52E40E9427335D
:103460000E94CD31862F08950E94091A0895CF93A6
:10347000DF93762FE901682F842F0E94341A798315
:1034800068838A83DF91CF91089580917403282FF8
:10349000269530E02115310519F48170826005C050
:1034A0002B32310524F08170846580937403089574
:1034B000A0E0B0E0EEE5FAE10C94A23488E090E000
:1034C0000E948D356B017C0184E290E00E9485357D
:1034D000282F30E040E050E060E070E080E090E0D5
:1034E00000E20E94CF34B22FA32FF42FE52FD62F66
:1034F000C72F97018601BC29A12BF22B5E2F532BDE
:103500002B2F3A2F4F2F6D2F7C2FCDB7DEB7E8E052
:103510000C94BE34A0E0B0E0E0E9FAE10C949E34F3
:1035200049015A016B017C010E94451A8401A401E2
:103530006A2D7B2D88E090E00E94BB3594014A2DD6
:103540005B2DB601C70100E20E94EA34622F84E2DB
:1035500090E00E94A935CDB7DEB7ECE00C94BA3408
:10356000E4E7F3E023E0208311828FEF82838383FB
:103570001482758130E04FEF5FEF60E086819781C4
:103580000E948A1A08958091B60280FF08C087E0E1
:1035900097E09F938F930E9461060F900F90809108
:1035A000B60280FF0FC08091740381701F928F93C9
:1035B0008AEE96E09F938F930E9461060F900F9082
:1035C0000F900F908091B60280FF0FC0809174031E
:1035D00086951F928F938FEC96E09F938F930E9416
:1035E00061060F900F900F900F908091B60280FFB0
:1035F0000EC0809175031F928F9385EB96E09F9389
:103600008F930E9461060F900F900F900F90809102
:10361000B60280FF0EC0809176031F928F938BE9D4
:1036200096E09F938F930E9461060F900F900F90EA
:103630000F908091B60280FF0EC0809177031F9299
:103640008F9381E896E09F938F930E9461060F907D
:103650000F900F900F908091B60280FF0EC0809166
:1036600078031F928F9385E696E09F938F930E9435
:1036700061060F900F900F900F9008958091740342
:1036800080FF02C08695089580E0089590917803A8
:10369000933018F49F5F90937803882391F02091E2
:1036A00074033091750340917603509177036091D4
:1036B00078037091790380917A0390917B030E9443
:1036C0008A1A089581E00E94461B0895909178031C
:1036D000992319F0915090937803882391F02091C9
:1036E0007403309175034091760350917703609194
:1036F00078037091790380917A0390917B030E9403
:103700008A1A089581E00E94661B089570E00E9465
:1037100068240895609112018091740380FF0BC0AA
:103720008091110123E0829FC001112484589C4F95
:103730000E94861B089580911301909114018917AE
:1037400078F7E82FF0E09F01220F331FE20FF31FFD
:10375000E458FC4F1182108212828F5FF0CF90915B
:10376000740390FF16C090911301209114019217D9
:1037700070F4E92FF0E0DF01AA0FBB1FEA0FFB1F77
:10378000E458FC4F8183608342839F5FF0CF0E94A7
:103790008A1B0895A3E0B0E0E0EDFBE10C94A834AF
:1037A0009091740390FF0AC09E012F5F3F4F0E94CB
:1037B000371A4B8169818A810E94AF1B2396E2E010
:1037C0000C94C434CF93DF93EC018C810E940E1AC9
:1037D000E4E7F3E0482F628181810E94CA1B8C815B
:1037E0008F5F8C83DF91CF910895CF93DF93EC01AE
:1037F000E4E7F3E0438162818C810E94CA1B8C81E3
:103800008F5F8C83DF91CF910895A3E0B0E0EBE070
:10381000FCE10C94A6348C018091C70281110AC08E
:103820009E012F5F3F4F4FEF6FEF0E94371A8A8143
:103830008093C702F8018481813051F028F08230F2
:1038400061F44091C7020AC08091C70240E007C0FE
:103850006091C70240E080E003C040E080E060E0AB
:103860000E94AF1BF801848190E0019663E070E054
:103870000E942B3484832396E4E00C94C234A3E0AA
:10388000B0E0E5E4FCE10C949D34082FE62EF42E24
:10389000922E9091740390FFB1C0E92FE695AE2F60
:1038A000B0E0A255BE4F8C9180932B039E7F923047
:1038B00061F49E012F5F3F4F802F0E94371A4B818A
:1038C00069818A810E94AF1B5BC0823019F4F0903D
:1038D000770356C0863019F40091750351C08930C2
:1038E000D9F3893109F04CC0E9518E2F8170C82E6F
:1038F00081E0DC2CD826E695F0E0EB5CF84F1491E3
:10390000812C50ECA52E54E0B52E60911501861641
:10391000A8F5819EC001112470E00E941734702E1A
:10392000C11002C0760E01C0761A8091B60280FFE7
:1039300011C01F921F931F92DF921F927F921F92BE
:103940008F92BF92AF920E9461060FB6F894DEBFCD
:103950000FBECDBF80911301282D30E0280F311DFF
:10396000C901880F991F280F391F24583C4F4F2D2C
:103970006E2D872D0E94371A8394C7CF0E948A1B11
:1039800000937503E0927603F0927703992009F192
:10399000209174036091780370917903302FA7010F
:1039A00080917A0390917B030E948A1A8091B602DB
:1039B00080FF24C0809177031F928F9380917603BC
:1039C0001F928F93809175031F928F938BE994E0E0
:1039D0000CC08091B60280FF11C01F92FF921F920F
:1039E000EF921F920F9384E794E09F938F930E942E
:1039F00061060FB6F894DEBF0FBECDBF2396EDE093
:103A00000C94B934E4E7F3E09181282F438162817B
:103A100080E2890F0E943F1C089581E00E94021DF0
:103A20000895E4E7F3E09181282F4381628180EEDD
:103A3000890F0E943F1C089581E00E94111D089586
:103A4000E4E7F3E0628121E1620F08F46FEF282FD1
:103A5000438181810E943F1C089581E00E94201DC6
:103A60000895E4E7F3E0628121E1621B08F460E07D
:103A7000282F438181810E943F1C089581E00E948C
:103A8000311D0895E4E7F3E0438121E1420F08F49A
:103A90004FEF282F628181810E943F1C089581E0B1
:103AA0000E94421D0895E4E7F3E0438121E1421BB7
:103AB00008F440E0282F628181810E943F1C089514
:103AC00081E00E94531D089520E00E943F1C08954C
:103AD000FF920F931F93CF93DF93EC01F12C0FEF25
:103AE00010E060911501F616F0F4809113012F2D6E
:103AF00030E0280F311DC901880F991F280F391F89
:103B000024583C4F70E0C8010E942B34962F8C81C2
:103B10004091770360917603F99E800D11240E94F5
:103B2000371AF394DECF0E948A1B9A818C8190FF12
:103B300002C08F5F01C081508C83CDB7DEB7E5E056
:103B40000C94C134A0E0B0E0E8EAFDE10C94A034AC
:103B5000FC01828180FF02C00FEF01C001E010E094
:103B600042E1A42E80911501181708F043C08091FE
:103B70001301C12ED12CE601C80FD11DCE01880F33
:103B8000991FC80FD91FC458DC4F198218821A8296
:103B900034E0E32EF12CB12C8091C9028B0D8331DE
:103BA0002CF06A2D0E940934892F05C087FF03C0BD
:103BB00090911501890F082E000C990BC816D90693
:103BC00091F4809177038E9DA0018F9D500D11245B
:103BD00055954795559547959E016091760380913F
:103BE00075030E94371AB00EF1E0EF1AF108A1F642
:103BF0001F5FB8CF0E948A1B8091C902013031F447
:103C0000811102C080911501815007C090E001969A
:103C10006091150170E00E942B348093C902CDB7EA
:103C2000DEB7EAE00C94BC34CF93DF9380911301AC
:103C300090911401891770F4E82FF0E09F01220F92
:103C4000331FE20FF31FE458FC4F118210821282DF
:103C50008F5FF0CFC0E0D0E06091150170E0CE0141
:103C600002960E942B3420911301820F2091C802EA
:103C7000022E000C330B90E0C217D307CCF020913A
:103C80001001022E000C330B2C173D078CF09C0109
:103C9000220F331F820F931F9C0124583C4F4091E9
:103CA000770360917603809175030E94371A0BC0E9
:103CB000FC01EE0FFF1F8E0F9F1FFC01E458FC4F0D
:103CC0001182108212822196C530D10529F60E94F8
:103CD0008A1B80910F019091C802980F9093C8029F
:103CE00020911001280F20931001121614F4943023
:103CF0001CF0819580930F01DF91CF910895A0E092
:103D0000B0E0E5E8FEE10C949E348C01FC014481B6
:103D1000C42FD0E09E01DE010E946F349B01AC01F4
:103D20000E9485346B017C01E0E2F0E0EC1BFD0BAE
:103D3000A5E5B0E09B01AC010E9485344B015C011C
:103D40009F01DF010E9467349B01AC010E94903407
:103D50009B01AC012C0D3D1D4E1D5F1DC501B40125
:103D60000E943F34C22FD22F2A3228F4F3E02F9F33
:103D7000900111240DC025E530E02C1B3109C9014B
:103D8000880F991F280F391F37FF02C02F5F3F4F41
:103D900035952795C22FC095F12C85E5E82EED1AB3
:103DA00080911501F816C8F4F0FC02C08E2D01C0F8
:103DB0008D2F909113012F2D30E0290F311DA90176
:103DC000440F551F240F351F24583C4F4C2F609132
:103DD00076030E94371AF394E3CF0E948A1BF801FE
:103DE0008481811102C091E003C0803219F49FEFF9
:103DF00090930E0190910E01890FF8018483CDB745
:103E0000DEB7ECE00C94BA340F931F93CF93DF939B
:103E1000EC0100E010E080911501282F30E002173E
:103E2000130724F5909113019801290F311DA90161
:103E3000440F551F240F351F24583C4F869590E0A2
:103E40004C81081719071CF4442331F002C04111BA
:103E500003C04091770301C040E0609176038091F8
:103E600075030E94371A0F5F1F4FD5CF0E948A1B20
:103E70008C8190E00196817099278C83DF91CF919E
:103E80001F910F9108952F923F925F926F927F92B0
:103E90008F929F92AF92BF92CF92DF92EF92FF925A
:103EA0000F931F93CF93DF93FC01B280748081E066
:103EB000848380E00E940E1AA82E8FE70E940E1ABB
:103EC000C0917703C695C158D0E0CC0FDD1F2D2ED1
:103ED0003324512C75E0672E88248A94912C8A19FA
:103EE000C82ED12C80911501581608F095C0E52CEC
:103EF000F12C22E02B1568F06E9CF0016F9CF00D08
:103F00001124E653FD4F80917503808380917603E1
:103F1000818371100AC06E9CF0016F9CF00D11241A
:103F2000E653FD4F138212825DC06E9C80016F9C30
:103F3000100D1124E801C653DD4F8B818823E1F079
:103F400081508B832FEF829FC00111246C8170E020
:103F50000E941734862F0E940E1A8A192FEF829F13
:103F6000C0011124B6010E94173480917703689F25
:103F7000B00111247A8336C00E945235B4010E94E8
:103F80002B348215930574F582E08B1588F40E941A
:103F90005235B4010E942B3488830E9452352091FF
:103FA00076032695622F70E00E942B34280F298318
:103FB0006E9CF0016F9CF00D1124E653FD4F1282B0
:103FC00080917703843120F0893C18F088EC01C09F
:103FD00084E16E9CF0016F9CF00D1124E653FD4FBF
:103FE00084838383809113019701280F311DC901B8
:103FF000880F991F280F391F24583C4F6E9CF001E1
:104000006F9CF00D1124E653FD4F42816181808148
:104010000E94371A539466CF0E948A1BDF91CF917A
:104020001F910F91FF90EF90DF90CF90BF90AF90D6
:104030009F908F907F906F905F903F902F9008950A
:1040400060917403669570E04BE050E086E191E08A
:104050000E946235892B19F481E080932C030E9421
:10406000D42890932503809324038091B60280FF87
:1040700008C08BE594E09F938F930E9461060F9098
:104080000F90089510922C038091B60280FF08C013
:1040900082E494E09F938F930E9461060F900F90AB
:1040A00008959091740390FF5AC09170811102C0DD
:1040B000926006C08B3210F0946502C0880F982B76
:1040C00090937403209174036623E1F0309175039B
:1040D0004091760350917703609178037091790352
:1040E00080917A0390917B030E948A1A8091B60294
:1040F00080FF19C08091740386951F928F938BEA7D
:1041000095E009C08091B60280FF0DC026951F92F0
:104110002F938DE895E09F938F930E9461060F90F7
:104120000F900F900F9060917403669570E04BE0D4
:1041300050E086E191E00E946235892B19F00E94DF
:10414000422002C00E94202081E0809327034091FA
:10415000770360917603809175030E94641D089532
:10416000682F90917403969581E0890F8B3208F047
:1041700081E00E945120089581E00E94B0200895BE
:10418000682F9091740396958FEF890F09F48AE256
:104190000E945120089581E00E94C020089561E0AE
:1041A0000E9451200895809174038160809374036C
:1041B0008091B60280FF0DC01F9281E08F938FE146
:1041C00095E09F938F930E9461060F900F900F9040
:1041D0000F908091740386950E94CF20089560E02F
:1041E0000E945120089580912A03811170C080910E
:1041F000B60280FF08C08EE496E09F938F930E94E2
:1042000061060F900F908091B60280FF08C088E38E
:1042100096E09F938F930E9461060F900F900E94EB
:104220001A11811110C08091B60280FF08C080E190
:1042300096E09F938F930E9461060F900F900E94CB
:10424000B8110E94B01A0E94581A20937403309338
:1042500075034093760350937703609378037093CC
:10426000790380937A0390937B032E7F01F58091ED
:10427000B60280FF08C087EC95E09F938F930E9461
:1042800061060F900F900E94B01A0E94581A209356
:1042900074033093750340937603509377036093D0
:1042A00078037093790380937A0390937B030E9441
:1042B000451A0E94C31A10922C038091740380FF48
:1042C00003C086950E94EF2081E080932A03089521
:1042D000209174032E7F20937403309175034091D5
:1042E0007603509177036091780370917903809100
:1042F0007A0390917B030E948A1A8091B60280FF14
:104300000FC08091740381701F928F9387EE94E0A9
:104310009F938F930E9461060F900F900F900F90C4
:104320000E9442200E948A1B08958091B60280FF5D
:1043300010C080917403809581701F928F9386E5E1
:1043400095E09F938F930E9461060F900F900F90BE
:104350000F908091740380FF03C00E94682108952C
:104360000E94D32008950F931F93CF93DF938091E2
:104370002C03882309F491C080912B03E0917403EE
:10438000E695E81BE0932603823049F4F0E0EF5C09
:10439000F84FE491CE2FD0E002EE1BE159C08630F9
:1043A00049F4F0E0E25DF84FE491CE2FD0E005EF64
:1043B0001BE14EC0893051F4E695F0E0E55DF84F21
:1043C000E491CE2FD0E008E61DE142C08F3051F4D9
:1043D000E695F0E0E85DF84FE491CE2FD0E002EAF8
:1043E0001DE136C0853149F4F0E0EB5DF84FE49112
:1043F000CE2FD0E004E11EE12BC08831D9F083320A
:1044000039F4E3E2F7E0C591D49105E01CE120C066
:104410008432A9F08532C1F48E2F63E00E94FD330F
:10442000E92FF0E0E05EF84FE491CE2FD0E003E416
:104430001FE10EC0C4E3D5E00FE71EE109C0C4EFE1
:10444000D1E004E01FE104C0C0EDD7E00DE01AE1C7
:1044500080912703882361F0109227030E94D428BB
:10446000909325038093240310922903109228032C
:104470000E94D428E0912403F09125038E1B9F0B0A
:104480008F3F9F4750F4EC0FFD1FF0932503E093FF
:10449000240384E293E0F8010995DF91CF911F9105
:1044A0000F910895882311F0FA0101C0FB010995CD
:1044B0000895CF93DF93C82FD62F0E943E1B8C17F1
:1044C00038F00E943E1B8D1718F40E94BC2003C0D8
:1044D0008C2F0E94CF20DF91CF9108951F93CF930F
:1044E000DF93FB011581111166C0EC010E940110E0
:1044F0008272FE01E052F847E531F10508F05AC03A
:10450000EE59FF4F0C9461340E94952154C04BEC3E
:1045100050E26CEB70E204C04CEB50E26BEC70E2EA
:104520000E94522248C04CE15DE16DE07DE1F8CF90
:104530004DE05DE16CE17DE1F3CF4EE35DE16DE2E5
:104540007DE1EECF4DE25DE16EE37DE1E9CF40E656
:104550005DE16FE47DE1E4CF4FE45DE160E67DE1A4
:10456000DFCF42E85BE162E67BE1DACF42E65BE186
:1045700062E87BE1D5CF81E015C065E082E017C03D
:1045800068E086E014C06EE089E011C064E18FE06D
:104590000EC067E185E10BC088E104C062E289E1F9
:1045A00006C083E20E94CF2006C06AE285E20E9434
:1045B000592201C011E0812FDF91CF911F91089501
:1045C00086E090E00E9485350895682F86E090E0AF
:1045D0000E94A93508958091B20384708960809308
:1045E000B2030E94E52208950E941A11811104C0AD
:1045F0000E94B8110E94EB220E94E0228093B20335
:10460000282F26952695269530E02230310524F076
:10461000877088608093B2038091B20380FF04C0EA
:1046200086958695869501C080E00E94750608955E
:104630008091B203982F96959695969521F4877060
:1046400088608093B2038091B20381608093B2034B
:104650000E94E5228091B60280FF11C08091B203D2
:104660008695869586951F928F9381EA97E09F9312
:104670008F930E9461060F900F900F900F90809182
:10468000B2038695869586950E9475060895809159
:10469000B203982F969596959695A1F0915E990FF5
:1046A000990F990F8770892B8093B203887F91E0CF
:1046B00009F490E08091B20390FB80F98093B203FB
:1046C0000E94E5228091B60280FF11C08091B20362
:1046D0008695869586951F928F9389E897E09F939C
:1046E0008F930E9461060F900F900F900F90809112
:1046F000B2038695869586950E94750608958091E9
:10470000B20380FD1FC081608093B203813019F431
:1047100089E08093B2038091B2030E94E5228091E8
:10472000B60280FF08C081E697E09F938F930E94B6
:1047300061060F900F908091B203869586958695BD
:104740000E94750608958091B20380FF14C08E7F89
:104750008093B2030E94E5228091B60280FF08C0D8
:104760008EE497E09F938F930E9461060F900F90C5
:1047700080E00E9475060895CF93C091B203C17086
:104780008091B60280FF0CC01F92CF9383E797E021
:104790009F938F930E9461060F900F900F900F9040
:1047A000CC2319F00E94A32302C00E947F23CF9143
:1047B00008959091B203892F8695869586958F5F8F
:1047C0008F719770823038F4880F880F880F892B8B
:1047D0008093B20302C09093B2038091B203887FAA
:1047E00091E009F490E08091B20390FB80F980930E
:1047F000B2030E94E5228091B60280FF11C0809131
:10480000B2038695869586951F928F938AE397E0EB
:104810009F938F930E9461060F900F900F900F90BF
:104820008091B2038695869586950E9475060895B7
:10483000811181E09091B2039770282F220F220FEF
:10484000220F922B9093B203987F21E009F420E08D
:104850009091B20320FB90F99093B2030E947506E9
:1048600008950E9418248091B2030E94E5220895C1
:104870009C01FB018581882349F12230F8E73F073D
:10488000F9F040F42115E8E73E0769F02130384798
:1048900061F00895243098E7390779F058F0253011
:1048A000384789F0089581E001C080E00E943124FA
:1048B00080E008950E944723FBCF0E941823F8CF81
:1048C0000E94BC23F5CF0E94D923F2CF81E0089546
:1048D000579A2BB12F773BB130684FB7F894FC0152
:1048E000CB01880F991F680F791F6E0F7F1FE61786
:1048F000F70789F0819198E03BB9000000C087FF7D
:104900002BB9880F000000C000C000C02BB900C048
:104910009A9591F7ECCF4FBF8FE594E00197F1F7AF
:1049200000C000000895CF93DF93FC01DB011596D2
:104930008C91882309F4DDC09F0130572332310563
:1049400008F0D8C0EF010E942F1190935F0380936D
:104950005E03FE01E150F047E232F10520F4E95830
:10496000FF4F0C94613480915E038160AAC08091F6
:104970005F038860B2C080915E038260A2C08091B4
:104980005E0320C080915E0388609BC080915F03BE
:104990001EC080915F038260A0C080915E03806131
:1049A00090C080915E0380628CC080915E038064C1
:1049B00088C00E946E0B80915E03806882C08091E7
:1049C0005E03886084607DC080915F038260816047
:1049D00084C080915E038E7F74C080915F03877F67
:1049E0007CC080915E038D7F6CC080915E0320C08F
:1049F00080915E03877F65C080915F031EC08091B8
:104A00005F038D7F6AC080915E038F7E5AC0809164
:104A10005E038F7D56C080915E038F7B52C00E94E3
:104A20006E0B80915E038F774CC080915E03877F11
:104A30008B7F47C080915F038D7F8E7F4EC08091BA
:104A40005E0382FB222720F991E0922790FB82F9F6
:104A500090FB83F936C080915F03982F90959170F9
:104A60008E7F892B90FB81F938C080915E0386FB95
:104A7000222720F991E0922790FB86F922C00E941C
:104A80006E0B80915E0387FB222720F991E092272D
:104A900090FB87F916C081E001C080E00E94BB1145
:104AA0001EC080915E0384FB222720F991E09227AB
:104AB00090FB84F906C080915E03982F909590FB3F
:104AC00080F980935E030BC080915F0383FB2227F4
:104AD00020F991E0922790FB83F980935F03809106
:104AE0005E0390915F030E9434110E946E0B80E080
:104AF00001C081E0DF91CF910895CF93DF9386319C
:104B00009C4741F5EB010E940110982F8D81209167
:104B1000040130910501882379F09A7A81E009F443
:104B200080E080932D03911102C069E201C065E32A
:104B3000C9010E94CB270AC080912D03811102C0B8
:104B400069E201C065E3C9010E94D9270E944D10A6
:104B500080E001C081E0DF91CF9108950F931F9312
:104B6000CF93DF93C42FD22FFC0185818823B1F02E
:104B7000409330030E94D42890932F0380932E03F8
:104B800080E28C0F883008F04DC0C77081E001C012
:104B9000880FCA95EAF70E94120944C08091300339
:104BA000481330C080912E0390912F030E94EC286F
:104BB000883C910538F510E21D0FCD17B9F080E261
:104BC0008C0F883040F4C77081E001C0880FCA950F
:104BD000EAF70E941909183010F581E09D2F9770AF
:104BE00001C0880F9A95EAF70E941209802F0E944F
:104BF00008091830B8F4D77081E001C0880FDA9541
:104C0000EAF70AC080E28C0F883060F4C77081E058
:104C100001C0880FCA95EAF70E94190903C0802FC6
:104C20000E940809DF91CF911F910F9108950F9372
:104C3000FC01E851FC47E730F10590F5CB01E75660
:104C4000FF4F0C94613406E221EE41EE6AE17CE70D
:104C500023C007E225EE45EE6BE17CE71DC006E2CE
:104C600021EE40EE68E17CE717C007E225EE44EE56
:104C700069E17CE711C006E221EE42EE6CE17CE7DF
:104C80000BC007E225EE46EE6DE17CE705C008E2C9
:104C900021E045EE6EE17CE70E94AE2580E008C091
:104CA000FB018581882319F01092300301C081E057
:104CB0000F91089590933603809335030895E09102
:104CC0003503F0913603309729F00190F081E02D03
:104CD0000995089580E00895EF92FF921F93CF9376
:104CE000DF93FC01A0913503B09136031097E9F1F1
:104CF00080912901882341F080915E0387FF04C0E1
:104D00008081818386E08083EF011296ED91FC9192
:104D10001397CE0109958091B60282FF26C080FFCD
:104D200004C081EC98E00E94C80518E08BEBE82EE7
:104D300088E0F82E8091B60280FF0BC088811F9218
:104D40008F93FF92EF920E9461060F900F900F9049
:104D50000F90115021961111EDCF8091B60280FF76
:104D600004C089EB98E00E94C805DF91CF911F91A4
:104D7000FF90EF900895E0913503F091360330975E
:104D800039F022E0DC012C930480F581E02D0995B7
:104D90000895A3E0B0E0EFECF6E20C94A834209183
:104DA00033033091340328173907A1F0909334036B
:104DB00080933303E0913503F0913603309751F03F
:104DC00023E029839B838A830680F781E02DCE012F
:104DD000019609952396E2E00C94C434A3E0B0E078
:104DE000E4EFF6E20C94A8342091310330913203C1
:104DF00028173907A1F09093320380933103E09193
:104E00003503F0913603309751F024E029839B83DA
:104E10008A830680F781E02DCE01019609952396BD
:104E2000E2E00C94C434FC0132968091290188237D
:104E300031F080915E0387FF02C09EE101C096E0E1
:104E400080E0915028F021912223D9F38F5FF9CF90
:104E50000895662351F1209129012223E9F0209140
:104E60005E0327FF19C0462F4695469546954E315D
:104E7000E0F4677021E030E002C0220F331F6A9532
:104E8000E2F7FC01E40FF11D828190E02823392331
:104E900081E0232B69F409C0FC0132960896219128
:104EA000621729F0E817F907D1F780E0089581E04B
:104EB00008959C01FC0132969FEF80E041914617D6
:104EC00089F09F3F19F4411101C0982F8F5F863000
:104ED000A9F79F3F39F0F901E90FF11D97FDFA9508
:104EE0006283089508959C012A5F3F4FFC0142812F
:104EF000461301C01282019682179307B9F70895ED
:104F0000262F2695269526952E3170F4FC01E20F6A
:104F1000F11D677021E030E001C0220F6A95EAF7C9
:104F20008281282B228308958091B60280FF0CC0D5
:104F30001F926F9381EF98E09F938F930E94610679
:104F40000F900F900F900F900895262F269526957D
:104F500026952E3178F4FC01E20FF11D677021E0F7
:104F600030E001C0220F6A95EAF72095828128235C
:104F7000228308958091B60280FF0CC01F926F9328
:104F800083ED98E09F938F930E9461060F900F909E
:104F90000F900F90089520912901222339F020913C
:104FA0005E0327FF03C00E94802708950E945927AF
:104FB000089520912901222339F020915E0327FFD3
:104FC00003C00E94A52708950E9473270895209189
:104FD0002901FC013296222331F080915E0387FF84
:104FE00002C08EE101C086E0DF011D928A95E9F7DB
:104FF0000895DC01FB0111969C9111978181981312
:1050000021C012968C911297882319F092818913EE
:1050100019C013968C911397882319F093818913E3
:1050200011C015968C911597882319F095818913D5
:1050300009C014969C91992339F081E024812913A9
:1050400004C002C081E001C080E08170089508952D
:105050000E942728089583E0809337030E94282820
:105060000895811102C081E001C082E0809337037E
:105070000E94282808950E943128089581E0809395
:1050800037030E94282808950E943E280895089515
:105090000E94472808950E94482808950E944728A2
:1050A00008950E94472808950E9447280895CF93A5
:1050B0000E9451280E94DD150E944E28C0E08C2FCE
:1050C0000E94D614811104C0CF5FCA30C1F701C05D
:1050D00081E0CF91089585B7806885BF85B78068E6
:1050E00085BF08951F920F920FB60F9211248F93D0
:1050F0009F93AF93BF9380913803811113C0809128
:10510000B3039091B403A091B503B091B603419657
:10511000A11DB11D8093B3039093B403A093B50375
:10512000B093B603BF91AF919F918F910F900FBE37
:105130000F901F9018958091BB03843031F10E942D
:1051400093071092380320E488E190E00FB6F894BA
:10515000A895809360000FBE2093600083B7817F85
:10516000846083BF83B7816083BF7894889583B759
:105170008E7F83BF0FB6F894A895809160008861F8
:1051800080936000109260000FBE08950E946E0B25
:105190000E949B07089582E084BD93E095BD9AEF3D
:1051A00097BD80936E0008952FB7F8948091B30354
:1051B0009091B403A091B503B091B6032FBF0895A9
:1051C0002FB7F8946091B3037091B4038091B50345
:1051D0009091B6032FBF08959C014FB7F89480912A
:1051E000B3039091B403A091B503B091B6034FBF40
:1051F000821B930B089578941F920F920FB60F9213
:1052000011248F939F93AF93BF938091B303909199
:10521000B403A091B503B091B6030196A11DB11DD1
:105220008093B3039093B403A093B503B093B603F4
:10523000BF91AF919F918F910F900FBE0F901F90D4
:10524000189581E08093E00080E28093D80010926E
:10525000C9008FE19EE40197F1F700C0000087E0EC
:1052600090EBDC018093C4039093C503A093C60325
:10527000B093C7039CE088E10FB6F894A89580939B
:1052800060000FBE90936000FFCF9CE088E10FB6F6
:10529000F894A895809360000FBE90936000FFCFB4
:1052A00080915C0308959B019091BB039430F1F4CD
:1052B0008F708093E9008FEF9091E800815095FD09
:1052C00006C095ED9A95F1F700008111F5CF809118
:1052D000E80085FF0BC0BA01C90140E050E00E9420
:1052E000272C8091E8008E778093E800089543E0B2
:1052F00050E0BC0182E00E945329089546E050E04E
:10530000BC0182E00E9453290895CF93DF93EC0102
:1053100080912901811105C048E050E0BE0181E083
:105320000BC080915E0387FF03C040E282E002C0B1
:1053300048E081E050E0BE010E94532980E2FE0176
:10534000ACE3B3E001900D928A95E1F7DF91CF9144
:10535000089585E399E00E94C8058091BA03811100
:1053600009C00E94B22D0E940F2E8091E20084603D
:105370008093E200089581E399E00E94C8051092AD
:10538000BA0308958DE299E00E94C8050E9444285E
:10539000089589E299E00E94C8056091B70381E011
:1053A000611101C080E00E942B28089585E299E0F8
:1053B0000E94C8059091BB0381E0943009F080E021
:1053C0006091B7030E943128089520913A032F5F1E
:1053D000822F62E30E94FD33992319F020933A0350
:1053E000089510923A0380913B03882371F18091D4
:1053F000BB03843041F58091E9008F702091EC006F
:10540000922F917020FD90E8892B93E09093E90012
:105410009091EB0090FF14C09091EE0097FF10C0A8
:105420009091E80095FF03C01092F100F9CF9091A0
:10543000E80090FF05C09091E8009E779093E80007
:105440008F708093E90010923B03089542E061EC75
:1054500081E00E942B2D42E261EC82E00E942B2D24
:1054600042E261EC83E00E942B2D9091BB0381E02E
:10547000943009F080E06091B7030E943B280895C2
:105480008091BD03833009F461C030F4813071F044
:10549000823009F49BC008958A3009F487C08B30AC
:1054A00009F46CC0893009F0A9C020C08091BC0308
:1054B000813A09F0A3C08091E800877F8093E800DB
:1054C0008091C0039091C103892B21F460E28CE3A9
:1054D00093E003C060E080E090E070E00E946C2CFC
:1054E0008091E8008B778093E80008958091BC0359
:1054F000813209F083C08091C0039091C10302976B
:1055000008F07CC08091E800877F8093E80080915C
:10551000E80082FD05C08091BB038111F8CF6EC009
:105520002091F3008091F20090E0922B029731F4E9
:105530008091F100813011F0863021F48091F100EA
:1055400080935C038091E8008B7754C08091BC030A
:10555000813A09F053C08091C0039091C103892B17
:1055600009F04CC08091E800877F8093E80080912B
:10557000E80080FFFCCF8091290137C08091BC03F7
:105580008132E1F58091C0039091C103892BB1F57F
:105590008091E800877F8093E8000E94602D8091D1
:1055A000BE03809329010E946E0B08958091BC0375
:1055B000813221F58091E800877F8093E8000E9486
:1055C000602D8091BF0380935D0308958091BC039B
:1055D000813AA1F48091E800877F8093E800809170
:1055E000E80080FFFCCF80915D038093F100809103
:1055F000E8008E778093E8000E94602D08959FB7A1
:10560000F89410923B039FBF9091BB03943009F034
:1056100057C09091E9009F703091EC00232F2170CA
:1056200030FD20E8922B23E02093E9002091EB004D
:1056300020FF43C02091EE0027FF3FC02091390397
:10564000222321F02091E80025FF37C01092390372
:1056500026E03091E80035FD15C03091BB033430B1
:1056600061F53091EB0035FD28C0215021F481E037
:105670008093390322C0EFE9FFE03197F1F700C0D2
:105680000000E7CF8093F1008091E80085FD0AC01B
:105690008091E80080FFFCCF8091E8008E778093B6
:1056A000E80006C08FB7F89421E020933B038FBF3A
:1056B0009F709093E90080E008959F709093E900B7
:1056C0008FEF089584B7877F84BF0FB6F894A895AD
:1056D00080916000886180936000109260000FBE2E
:1056E00090E080E80FB6F894809361009093610099
:1056F0000FBE0E943E2808950E94B22D0E940F2ED8
:10570000E2EEF0E080818460808378940E9499309A
:10571000089581E291E00E945A2608958091BB038A
:105720008530F9F48091B60280FF0BC08FE099E0DC
:105730000E94C80506C00E949B288091B903811170
:1057400005C08091BB038530B1F309C00E94572882
:105750008823B9F30E94112C0E946E0BF2CF0E9495
:10576000C628089508959A014091C2035091C30339
:105770000E94BB2B0895492F552743305105C9F08E
:1057800060F44130510581F04230510509F041C0CB
:105790008BE590E04BE759E040C041325105E1F024
:1057A0004232510531F135C082E190E046ED59E0D9
:1057B00034C099278130910549F028F0029749F5C6
:1057C000E9E3F9E005C0E7E7F9E002C0E1E6F9E066
:1057D000849190E0AF0121C063307105D0F4660F71
:1057E000771FFB01EE51FE4F4081518189E090E02F
:1057F00014C06330710568F4FB01EE0FFF1FE45223
:10580000FE4F40815181FB01E752FE4F808190E0C5
:1058100004C080E090E040E050E0F9015183408313
:10582000089580E189BD82E189BD09B400FEFDCF04
:105830008091D8008F7D8093D8008091E0008260B5
:105840008093E0008091E00081FDFCCF0895A0E00E
:10585000B0E0EDE2FCE20C94A234EC018B017A01A1
:105860000E947F2D811133C0E114F10439F0F7015A
:1058700080819181081B190BC80FD91FC12CD12C15
:105880000115110519F18091E80085FD16C0809180
:10589000E8008E778093E800E114F10449F0F70105
:1058A00080819181C80ED91ED182C08285E00FC04F
:1058B0000E947F2D882321F30AC089918093F100F3
:1058C00001501109FFEFCF1ADF0ADACF80E0CDB720
:1058D000DEB7E8E00C94BE342091C2033091C303DC
:1058E0002617370748F06115710539F42091E80053
:1058F0002E772093E80001C0B901FC0120E061157A
:10590000710579F18091BB038823F1F18530F1F1C4
:105910008091E80083FD3CC08091E80082FD2EC0AC
:105920008091E80080FFEBCF2091F3008091F2009E
:1059300090E0922B6115710551F08830910538F493
:1059400021912093F100615071090196F3CF21E07C
:10595000089709F020E08091E8008E778093E800B6
:10596000CECF2111CFCF0AC08091BB03882361F035
:10597000853061F08091E80083FD0AC08091E800E5
:1059800082FFF2CF80E0089582E0089583E00895D9
:1059900081E008952091C2033091C3032617370791
:1059A00048F06115710539F42091E8002E772093B5
:1059B000E80001C0B901FC0120E06115710591F119
:1059C0008091BB03882309F440C0853009F43FC0AF
:1059D0008091E80083FD3DC08091E80082FD2FC0EA
:1059E0008091E80080FFE9CF2091F3008091F200E0
:1059F00090E0922B6115710559F08830910540F4C3
:105A000024912093F1003196615071090196F2CFF3
:105A100021E0089709F020E08091E8008E778093DC
:105A2000E800CBCF2111CCCF0AC08091BB038823E3
:105A300061F0853061F08091E80083FD0AC08091BB
:105A4000E80082FFF2CF80E0089582E0089583E0CD
:105A5000089581E00895982F973068F59093E900B4
:105A6000981739F07091EC002091ED005091F00002
:105A700003C0242F762F50E021FD02C09F5FECCFA2
:105A80003091EB003E7F3093EB003091ED003D7F95
:105A90003093ED003091EB0031603093EB00709368
:105AA000EC002093ED005093F0002091EE0027FDD4
:105AB000E5CF80E008958F708093E90081E008953C
:105AC0008091BC0387FF11C08091E80082FD05C072
:105AD0008091BB038111F8CF11C08091E8008B77D2
