:100000000C9414020C944C1D0C9431020C9431028B
:100010000C9431020C9431020C9431020C94310294
:100020000C9431020C9431020C9477220C944923E5
:100030000C94CC1B0C9431020C9431020C943102C0
:100040000C9431020C9431020C9431020C94310264
:100050000C9431020C94711C0C9431020C943102FA
:100060000C9431020C9431020C9431020C94310244
:100070000C9431020C9431020C9431020C94310234
:100080000C9431020C9431020C9431020C94310224
:100090000C9431020C9431020C9431020C94310214
:1000A0000C9431020C9431020C9431023C053C0555
:1000B00068056805C905E705D606D606EC0562069B
:1000C00073067306A8171A18B0177A177E17B41795
:1000D0008117B717C2178C1710189017C6179417E7
:1000E000CA17F4179817CE17FE179E17D417DE17E6
:1000F0008517BB178817BE17A317D917EA170A1851
:100100000C187617AC1723185A1A601A4E1A541A7C
:10011000661A6C1A721AB123D823D024D823D0249B
:1001200024244724D0249E24AD2429001E001F002F
:100130002000210022002B0014001A0008001500E6
:100140001700E10004001600070009000A00E000A3
:100150001D001B00060019000500000000002F0014
:10016000300022522C00000000002A0035002B0035
:100170004A00230024002500260027002A001C0036
:1001800018000C00120013002D000B000D000E00D3
:100190000F00330034001100100036003700380023
:1001A0003100280021522E022E00000000004D00D8
:1001B0004C00E300E2000000000035021E021F02B6
:1001C00020022102220201000100010001000100C1
:1001D0002F0001004A004B004E004D002602010096
:1001E0000100010001000100010000000000010009
:1001F00046000100010000000000010001000100B4
:100200000100230224022502260227024C003000AE
:100210005F006000610001002E0227025C005D00AB
:100220005E002D003102010059005A005B002E00D3
:100230002D02010001000100620000000000010029
:100240000100010001000000000045003A003B00F1
:100250003C003D003E0001000100010001000100E2
:100260002F0001005000520051004F0026020100F3
:100270000100010001000100010000000000010078
:100280000100010001000000000001000100010068
:1002900001003F00400041004200430044003000A4
:1002A0000100530049004700A8002702AC00AE003F
:1002B000AB000100A90001000100010001000100E4
:1002C000AA00010001002E00010000000000010052
:1002D000010001000100000000002C034400610047
:1002E0006300740079006C002D004D0061006E0009
:1002F000750066006F0072006D0020002800350058
:1003000078003600290000000E03740073006800B6
:100310006F007200740000000403090409023B002E
:10032000020100A0FA0904000001030101000921F3
:10033000110100012244000705810308000109049E
:1003400001000103000000092111010001227B00CE
:100350000705820320000112010002000000084D81
:1003600044363501000102000105010902A10185A1
:10037000020901A1000509190129081500250195A7
:1003800008750181020501093009311581257F9524
:10039000027508810609381581257F950175088148
:1003A00006050C0A38021581257F9501750881061E
:1003B000C0C005010980A101850319012AB70015F4
:1003C0000126B700950175108100C0050C0901A137
:1003D00001850419012AA002150126A002950175C4
:1003E000108100C005010906A101050719E029E7F0
:1003F0001500250195087501810295017508810197
:100400000507190029FF150026FF009506750881CC
:1004100000050819012905150025019505750191AB
:1004200002950175039101C011241FBECFEFDAE0E0
:10043000DEBFCDBF11E0A0E0B1E0EEEBFBE402C017
:1004400005900D92AA3AB107D9F722E0AAEAB1E0E5
:1004500001C01D92A73CB207E1F70E94A1140C94C1
:10046000DD250C9400008330B0F46C30A0F44630ED
:1004700090F498E4899FF001112486E0689FE00DD4
:10048000F11D1124E40FF11DEE0FFF1FE65DFE4F7D
:1004900085919491089581E090E008950E9433023F
:1004A000089581E0089581E008950E94530208951F
:1004B0000E94550208950E945302089508950E94D3
:1004C0005E020895A6E0B0E0E8E6F2E00C9439257B
:1004D00049835A839E833091B10189819A81311178
:1004E00015C03E81332359F0222349F00E94980819
:1004F000182F682F89819A810E94740803C00E9476
:100500008608182F69817A81812F04C00E9498087B
:1005100069817A810E948E0F2696E3E00C9455251E
:10052000FC01262F408151816281738184819581F4
:100530000E9462020895CF93DF93EC0161E00E9474
:100540009002BE010E945802DF91CF910895CF938F
:10055000DF93EC0160E00E949002BE010E945F0206
:10056000DF91CF91089508950E944B070E94B30236
:100570002FEF84E39CE0215080409040E1F700C0E1
:10058000000008950E94B4020E94971C08950E94E2
:10059000B4020E94A81C08950F931F93CF93DF937A
:1005A0008C0161E00E949002EC01B8010E945B02A4
:1005B000882309F442C0B801CE010E94421A882360
:1005C000E1F1B801CE010E9452178823B1F1B801C0
:1005D000CE010E94A819882381F1F8018581882322
:1005E00041F1C3308CE7D807D1F040F4C115FCE7E6
:1005F000DF0791F0C130DC47A1F01BC0CB35ECE741
:10060000DE07A9F0CC35FCE7DF0771F0CA35DC471F
:1006100081F40E94DE0C0DC00E94C2020EC00E9436
:10062000E60C0E94C70209C00E94D40C02C00E94BE
:10063000E20CC8010E94510201C080E0DF91CF911D
:100640001F910F9108950E94A51B0E944A030895CF
:100650000E944E030E94AE1B0895089581E0089504
:100660000895CF93DF93D82F0E942E03C82F88239D
:1006700019F08D2F0E9430038C2FDF91CF910895B8
:100680000895CF93C82F0E942D038C2F0E94310311
:10069000CF91089580E00E94410308950E948A1A34
:1006A0000E9441030895CF930E948A1AC82F809117
:1006B000AC01C81779F0C093AC010E943A1C60935A
:1006C000AD017093AE018093AF019093B0018C2F78
:1006D0000E944103CF910895ADE0B0E0E2E7F3E07E
:1006E0000C943A25488759876A877B878C879D8732
:1006F00091110E94080CCE01019627E0FC01119295
:100700002A95E9F726E0FE013896DC0101900D926A
:100710002A95E1F72D8121110AC029813A814B8167
:100720005C816D817E818F810E94520B04C00E948A
:100730009B028111F2CF2D96E2E00C945625FC012C
:100740002481213021F4808191810E94CA0808957A
:10075000662319F00E94391502C00E9494150E9468
:100760000B160895CF93882309F4A9C0C82F8238A7
:10077000C1F40E949E1A81FDA2C069E3809100012C
:10078000909101010E94461B0E94340C2FEF87EECE
:1007900093E0215080409040E1F700C0000069E301
:1007A00019C0833801F50E949E1A80FD88C063E558
:1007B00080910001909101010E94461B0E94340C1F
:1007C0002FEF81EE94E0215080409040E1F700C08F
:1007D000000063E580910001909101010E94491B96
:1007E0000E94340C6CC08438C1F40E949E1A82FDB1
:1007F00066C067E480910001909101010E94461B50
:100800000E94340C2FEF81EE94E021508040904004
:10081000E1F700C0000067E4DDCF8CEF8C0F813A78
:10082000F8F48C2F0E945F19811149C06C2F8091C0
:100830000001909101010E94101B882349F06C2F48
:1008400080910001909101010E94491B0E94340C8B
:100850006C2F80910001909101010E94461BC0CF36
:1008600080E28C0F883048F4C77081E001C0880FA7
:10087000CA95EAF70E94EB0BB3CFEBE5EC0FE33040
:1008800040F4F0E0E05AFE4F808190E00E94BA1AF6
:1008900016C0E8E5EC0FEB3150F4F0E0EE0FFF1F6F
:1008A000E65DFE4F808191810E94DF1A08C083E3DC
:1008B0008C0F833120F461E08C2F0E94A803CF912C
:1008C0000895882309F468C0823879F40E949E1A3A
:1008D00081FF62C069E380910001909101010E9453
:1008E000461B0E94340C69E310C08338B9F40E949F
:1008F0009E1A80FF51C063E5809100019091010133
:100900000E94461B0E94340C63E580910001909187
:1009100001010E94491B0E94340C0895843879F427
:100920000E949E1A82FF38C067E480910001909176
:1009300001010E94461B0E94340C67E4E6CF9CEF45
:10094000980F913A10F4682FE0CF90E2980F98300A
:1009500050F4877091E001C0990F8A95EAF7892FCA
:100960000E94F10BD8CF9BE5980F933028F480E0DC
:1009700090E00E94BA1A089598E5980F9B3128F4E8
:1009800080E090E00E94DF1A089593E3980F93317E
:1009900018F460E00E94A80308951F93CF93DF939B
:1009A000182FEB010E94B203209741F08FE99FE0DE
:1009B0000197F1F700C000002197F6CF812F0E9428
:1009C0006104DF91CF911F910895893319F060E0A0
:1009D00070E002C060E570E00E94CD0408958823B5
:1009E00021F00E94EB0B0E94340C0895882321F023
:1009F0000E94F10B0E94340C0895A0E0B0E0E3E007
:100A0000F5E00C9434257C01162FC72FFC01D5810D
:100A1000068102950F700E94E10B8823E9F0DD2327
:100A2000D9F08C2F807F803451F080E2810F8830A4
:100A300098F0011104C08C2F807E803269F0809183
:100A40009B0282FF09C082E00E94A80C0E94E10B79
:100A500091E0D82ED92601C0D12CCC2EC2948FE0A3
:100A6000C8228C2D90E08C30910508F09FC1FC01CC
:100A7000EA5AFF4F0C9424258C2F807FCF70882357
:100A800011F0C295C07FDD2399F0CC2309F47AC11F
:100A900080E2810F883010F0111104C08C2F0E9469
:100AA000EB0B03C08C2F0E94FB0B0E94340C6AC11D
:100AB000812F0E946104CC2309F478C180E2810F68
:100AC000883038F1112329F18C2F0E94010C24C0A9
:100AD0008C2F807FCF70803211F0C295C07F1123A0
:100AE00019F0113099F13CC080919B0282FD17C032
:100AF000DD2349F0CC2329F08C2F0E94EB0B0E94C0
:100B0000340C80E040C180E00E946104CC2309F4F1
:100B10004DC18C2F0E94F10B0E94340C47C1DD2384
:100B200049F0002309F1013009F040C18C2F0E94E7
:100B3000120C3CC101113AC18C2F0E94F6048C2F7B
:100B40000E941E0C8C2F0E947B0C30C1DD2321F0F3
:100B5000063008F02BC108C0053008F027C115C0C9
:100B6000DD2331F001110EC18C2F0E94EF041EC154
:100B7000002359F0193309F016C1FFEF27EE83E087
:100B8000F15020408040E1F70CC18C2F0E94F60408
:100B90000DC18C2F86958695837019F0813061F098
:100BA00005C1DD2321F0812F9C2F937002C080E0CE
:100BB00090E00E94BA1A02C1DD2321F0812F9C2F00
:100BC000937002C080E090E00E94DF1AF7C06D2FA2
:100BD000812F0E94A803F2C08C2F8370B1F5D11130
:100BE000E9C0412F429546954770440F440F812F2D
:100BF0008F7090E09C01042E02C0220F331F0A94D4
:100C0000E2F714FF0AC08FE090E002C0880F991F3E
:100C10004A95E2F78095909502C080E090E0C695F5
:100C2000C695C370822B932BC23049F058F4C13063
:100C300019F00E94A707BEC00E949E07BBC00E9479
:100C4000B007B8C00E949B07B5C0DD2319F08C2FF8
:100C5000817001C08695882309F4ACC0412F42956C
:100C600046954770440F440F812F8F7090E09C0190
:100C7000042E02C0220F331F0A94E2F714FF0AC0A9
:100C80008FE090E002C0880F991F4A95E2F78095A7
:100C9000909502C080E090E0C695C695C370822B07
:100CA000932BC23049F058F4C13019F00E940F085C
:100CB00081C00E9406087EC00E9418087BC00E9466
:100CC000BC0778C0CF70DD2339F08C2F0E94D40789
:100CD000812F0E94EF046EC0812F0E94F6048C2F9A
:100CE0000E94E40767C0123F21F128F4103F41F051
:100CF000113FC1F043C0133F19F1143F79F03EC0DA
:100D0000DD2341F0053008F051C08C2F8F710E9417
:100D1000F6074CC0063008F049C0F7CF80919B021F
:100D200082FD18C0DD2339F08C2F8F710E94D4070B
:100D30003DC0DD23C9F38C2F8F710E94E40736C0BC
:100D4000DD2329F08C2F8F710E94C8072FC00E94CD
:100D5000C3072CC0DD2349F0CF718C2F0E94D4072C
:100D600063E08C2F0E948A0C21C081E00E94A80CB5
:100D70000230E0F082E00E94A80C18C0DD2331F0C0
:100D8000002391F2812F0E94B20310C0002399F238
:100D9000193349F49FEFE7EEF3E09150E040F04063
:100DA000E1F700C00000812F0E94610488EF8C0DE4
:100DB000843020F40E948A1A0E944103DD2089F0C9
:100DC0000E94DD0B80FD0DC0F70115820E94D70B3C
:100DD0000E94D407C7010E940E070E94D70B0E94F1
:100DE000E407CDB7DEB7E8E00C9450250F931F93CE
:100DF000CF93DF93EC01688179818D810E94D508C2
:100E00008C010E9421080E948C07B801CE010E942B
:100E1000FD04DF91CF911F910F910895CF93DF9340
:100E2000FC0124812223D1F0EC010E94CC0281112B
:100E30000FC00E94E10B882389F08D81882371F017
:100E400080919B0282FF0AC082E00E94A80C06C02B
:100E5000CE010E94F606CE010E94A702DF91CF913B
:100E6000089580E090E00E94BA1A80E090E00E942D
:100E7000DF1A0E94080C0E94340C0E942A160E945D
:100E80000B16089580910001909101010E944C1B66
:100E90000E94310708950E94F80B0E9442070895AE
:100EA00092959F70963079F010F4925001C09A504C
:100EB000923068F4803F69F018F4883E40F409C02D
:100EC000843F29F406C0883E20F0813F11F080E085
:100ED000089581E00895FC012481222339F0808166
:100EE00091810E94CA080E945007089580E00895E9
:100EF000A6E0B0E0EEE7F7E00C943A252696E2E0B3
:100F00000C945625A7E0B0E0E8E8F7E00C943A2509
:100F10002796E2E00C945625089508950E948D07C7
:100F200008950E948E0708950E9491079093D90119
:100F30008093D80108950E94940708952091D801C4
:100F40003091D901822B932B0E9494070895209110
:100F5000D8013091D901822393230E9494070895E8
:100F60002091D8013091D901822793270E949407BC
:100F700008950E948D0708950E94B9079093D701A4
:100F80008093D601089580E090E00E94BC07089508
:100F900021E030E0A90102C0440F551F8A95E2F715
:100FA000CA010E94BC07089521E030E002C0220F70
:100FB000331F8A95E2F78091D6019091D701822B59
:100FC000932B0E94BC07089521E030E002C0220F5D
:100FD000331F8A95E2F7209530958091D601909144
:100FE000D701822393230E94BC07089521E030E0BB
:100FF00002C0220F331F8A95E2F78091D6019091AB
:10100000D701822793270E94BC0708952091D6011B
:101010003091D701822B932B0E94BC070895209119
:10102000D6013091D701822393230E94BC070895F3
:101030002091D6013091D701822793270E94BC07C7
:1010400008950895962F9770A1E001C0AA0F9A9570
:10105000EAF793E0769567959A95E1F7660F771F23
:10106000660F771FFA01E60FF71F40E050E0682F88
:1010700070E090819B01042E02C0369527950A945A
:10108000E2F72170219529272A23292721934F5FF1
:101090005F4F4430510569F70895FB01782F777051
:1010A00023E0969587952A95E1F7880F991F880F79
:1010B000991FE80FF91F40E050E080E0219130E0F7
:1010C000072E02C0369527950A94E2F72170332740
:1010D000042E01C0220F0A94EAF7822B4F5F5F4F64
:1010E0004430510559F70895282F9C3070F486300C
:1010F00060F4862F622F70E026E0929F600D711DD4
:10110000112442EB51E00E94220808959C3070F4B3
:10111000863060F4292F90E062EB71E036E0239F87
:10112000800D911D11240E944D08089580E00895BE
:10113000A0E0B0E0EEE9F8E00C9433257C010091EA
:10114000D6011091D7018091D8019091D901082B37
:10115000192BCFE0D0E0CC24C394D12CC6010C2EA7
:1011600002C0880F991F0A94E2F780239123892BEC
:1011700021F4219798F7B12C07C0BC2EB7018C2F12
:101180000E949A0F0197A9F38B2DCDB7DEB7E9E046
:101190000C944F25CF93DF93EC010E949808BE0179
:1011A0000E949A0FDF91CF9108951F93CF93DF9301
:1011B000EB019091B101992321F0CB010E94CA0863
:1011C00013C0882349F0CB010E949808182F682F7C
:1011D000CE010E94740804C0CB010E948608182F1B
:1011E000BE01812F0E949A0FDF91CF911F91089528
:1011F0001F93CF93DF93C091DA0117E08091DB0159
:10120000C817A1F0D0E01C9FF0011D9FF00D112424
:10121000E452FE4F20813181428153816481758186
:1012200086810E9482072196C770E8CFDF91CF9117
:101230001F910895209114023091150240911602D9
:1012400050911702609118027091190280911A0250
:101250000E9482070895CF93DF9380911A028295AE
:101260008F7009F04EC080911902882309F449C09B
:101270008091DA014091DB015091150260911402D6
:10128000C0911602D091170277E08417D1F190E057
:10129000789FF001799FF00D1124DF01A452BE4F19
:1012A00014962C911497222349F111962C911197A1
:1012B000251324C02C91261321C015962C91159727
:1012C00021111CC012962D913C9113972C1B3D0BA4
:1012D000283C310598F480911A028F7080618093C8
:1012E0001A02EE51FE4F80818F708061808384E10D
:1012F00092E00E940E070E94F80803C001968770D2
:10130000C4CFDF91CF9108952091DA019091DB0154
:1013100057E02917A9F030E0529FF001539FF00DDC
:101320001124E452FE4F7181761306C07081781348
:1013300003C07581741306C02F5F3F4F2770E9CF3C
:1013400080E0089581E00895A4E1B0E0EAEAF9E0E0
:101350000C9430258C0186E0F801DE011F96019087
:101360000D928A95E1F7D80114968C9114971596F1
:10137000EC9094E1A92E92E0B92E9091180291116F
:1013800018C0882309F478C1EE20D9F1C8010E9461
:101390006B07F82E8823A9F187E0F801D5010190A9
:1013A0000D928A95E1F7C5010E949F030E942B09C7
:1013B00095C0F801C080D18082809380F09019029E
:1013C0002091160230911702A401421B530BFF20FB
:1013D00009F400C1483C510508F0ACC0882309F469
:1013E0005CC180911A02282F207F90911502222340
:1013F00061F09D1509F45EC0C8010E946B07811160
:1014000070C0C8010E940E0737C19D1116C090918F
:1014100014029C1112C0E11010C08F708061809383
:101420001A020E941A0984E192E00E940E0780913C
:101430001A02D80116968C932FC1E11035C040E0F6
:101440006D2D8C2D0E948409E82E811118C1CF8644
:10145000D88A8F8598890E94CA08292F22952F70D3
:10146000243020F49F70223028F009C02A50223006
:1014700080F014C0992349F0811107C013C099234B
:1014800021F0F8019681907F69F0805E883030F419
:1014900009C0803F38F0815F833020F0C8010E948E
:1014A0000E07EF2CFE2CF9C080911A028160809308
:1014B0001A02F2C0909114029C119ECFE1109CCFB1
:1014C000D80116968C93C8010E940E0787E0F80198
:1014D000A4E1B2E001900D928A95E1F70E941A0909
:1014E000DCC0EE2009F48DCF20911A02822F829564
:1014F0008F7090E002978CF0809114029091150209
:10150000998788879B868A86809118028C871D869A
:101510002E87CE0108960E940E0787E0F801A4E10D
:10152000B2E001900D928A95E1F70E942B090E948A
:101530001A09A2C090911A02292F207F91F4682DD8
:101540009A8A898AA6017A899E2D0E94780784E169
:1015500092E00E940E0787E0F50111928A95E9F763
:1015600099C0882309F499C0809115028D1110C08B
:10157000809114028C110CC0E1100AC09683C8013E
:101580000E940E0787E0F50111928A95E9F785C060
:10159000C8010E946B07882309F433CFEE2009F4B9
:1015A00030CF20911A02822F82958F7090E002979F
:1015B0000CF4B3CF80911402909115029A83898321
:1015C0009C828B82809118028D831E822F83CE0194
:1015D0000196A1CF483C510508F040C0882309F48A
:1015E0004BC0FE2CEE2009F40CCF809115028D111A
:1015F00027C0809114028C1123C090911A0290FD93
:1016000016C0892F82958F70282F30E02115310563
:1016100071F0D80196832F30310509F454CF8F5FD4
:10162000982F9295907F86818F70892B4ACF87E083
:10163000F801A4E1B2E001900D928A95E1F72DC086
:10164000C8010E946B07811168CF80911A028160E6
:1016500080931A02C8010E940E071FC0682D9A8A43
:10166000898AA6017A899E2D0E94780787E0F50174
:1016700011928A95E9F732CFFF24F3940EC084E1EA
:1016800092E00E940E07E4E1F2E087E0DF011D92A4
:101690008A95E9F70E941A09F12C8F2D6496ECE0E7
:1016A0000C944C25AEE0B0E0E8E5FBE00C94392565
:1016B000288739874A875B876C877D878E87CE012D
:1016C00008960E94A409882361F06C856623A9F11D
:1016D000288539854A855B857D858E850E948207B0
:1016E0002CC087E0FE013896DE01119601900D9224
:1016F0008A95E1F76C85662301F12091DB0130E0EA
:10170000C9010196877099274091DA0150E084174A
:101710009507E1F16D8397E0929FD001939FB00D03
:101720001124A452BE4FFE01319601900D929A955C
:10173000E1F78093DB010E94F80817E08091DA015D
:101740009091DB01891779F1189FC001112484520F
:101750009E4F0E94A409882331F1E091DA011E9F77
:10176000F0011124E452FE4F2081318142815381E6
:101770006481758186810E9482078091DA0190E000
:101780000196877099278093DA01D8CF0E944B0782
:101790001092DB011092DA01E4E1F2E087E0DF0170
:1017A0001D928A95E9F72E96E3E00C9455258091D9
:1017B00023028695869586950895809123028770E9
:1017C000089590912302977081E009F480E00895D4
:1017D00080912F02089590912F02892B80932F02E0
:1017E0000895809590912F02892380932F02089568
:1017F00010922F02089590912E02892B80932E0231
:101800000895809590912E02892380932E02089549
:1018100010922E02089508950E940B0C08950E94C4
:101820000C0C089590912502292F2823821729F066
:10183000982B909325020E940F0C089590912502F9
:10184000292F282331F080958923809325020E9437
:101850000F0C089580912502882329F0109225020B
:1018600080E00E940F0C0895CF93DF93E091000178
:10187000F091010180912F028083E0910001F091AD
:101880000101908180912E02892B80838091250215
:10189000882381F0E0910001F09101019081892B72
:1018A000808380910001909101010E94041B8111AD
:1018B0000E942A0CC0910001D091010148E050E043
:1018C0006BE172E0CE010E947525892B59F088E00A
:1018D000FE01ABE1B2E001900D928A95E1F7CE01F5
:1018E0000E94A11ADF91CF9108950E940B0C0895D8
:1018F0000E94750C089590912402292F282331F01D
:1019000080958923809324020E94780C08950E9478
:101910000B0C089590919B0292FF11C098E0899F53
:1019200090011124262B209323020E94D40780913A
:1019300023028695869586950E94870C08950E94BD
:10194000D40708951092230280E00E94870C089526
:10195000909123028095892380932302282F27705A
:1019600069F4981759F090919B0292FF07C08695F1
:10197000869586950E94E4070E94A20C0895909196
:101980009B0292FB222720F9281769F080FB92F92D
:1019900090939B0280919A0290919B020E94070D66
:1019A00082E00E94A80C089580919B0282FB882708
:1019B00080F991E089270E94BF0C089581E00E9480
:1019C000BF0C089580E00E94BF0C08956FEF7FEF79
:1019D00080E090E00E94C725089580E090E00E949A
:1019E000932521E0863E9E4F09F020E0822F089546
:1019F00082E090E00E948B25089583E090E00E94B1
:101A00008B25089584E090E00E9493250895BC0101
:101A100084E090E00E94C7250895AB01BC018FE0EF
:101A200090E00E94BB250895AB01BC0183E190E0EA
:101A30000E94BB25089560E070E0CB010E94140D68
:101A4000089560E070E0CB010E940D0D0E941B0D17
:101A50000895A8E0B0E0EFE2FDE00C943A2566EED0
:101A60007EEF80E090E00E94C72560E082E090E099
:101A70000E94A92560E083E090E00E94A9251092D1
:101A8000D9011092D80160E074E184E090E00E94F6
:101A9000C72560E086E090E00E94A9256FEF87E00F
:101AA00090E00E94A92540E050E0BA0188E090E073
:101AB0000E94BB2560E084E290E00E94A92560E0DE
:101AC00087E190E00E94A92560E08CE090E00E9410
:101AD000A92560E08DE090E00E94A92519821A8274
:101AE0001B821C821D821E821F82188648E050E0E5
:101AF00068E170E0CE0101960E94992540E050E037
:101B0000BA0180E290E00E94BB250E94210D289638
:101B1000E2E00C9456250E94290D0895682F8EE06E
:101B200090E00E94A9250895A6E0B0E0EAE9FDE072
:101B30000C9438250E942E1C8C01809130029091CB
:101B400031020817190781F019821A820E942E1C8F
:101B5000682F49815A81792F80E090E00E946C03C0
:101B600010933102009330022696E4E00C94542541
:101B70000E94B0106093420270934302809344022B
:101B80009093450260933E0270933F02809340021F
:101B900090934102089581E008950E94981208955B
:101BA00008950E94D00D08950E94D00D08950E94BE
:101BB000D40D08950E94D00D08950E94DA0D089565
:101BC0000E94D00D08958AEC90E10E94AE140E940C
:101BD000E00D0E94DD0D08950E94D10D0E94D00DF0
:101BE00008950E94CD100E94400308950E94251C74
:101BF0000E948A100E94B3120E94FB110E94F10DF4
:101C00000E943A170E94BD120E94D70D0895A6E0C7
:101C1000B0E0EDE0FEE00C9431250E94CB0D811187
:101C200003C00E94940D53C00E94201282E3E82E4C
:101C300082E0F82E670100E0F60111916F01802F1C
:101C40000E94EB1081270F5F0C3019F08823A1F35D
:101C500002C0882331F38091460281FD0E94F11079
:101C60000E94CD0DA82E10E099249394812F0E94FC
:101C7000EB10B82EF701C080C82609F100E0DD2482
:101C8000D3948C2D8D21A9F0AA2099F009831A8371
:101C90000E942E1C9C838B839D8291E08B2D8D2135
:101CA00009F490E049815A816B817C818D810E9489
:101CB0006C030F5FDD0C063021F7F701B0821F5F68
:101CC000FFEFEF1AFF0A1C3089F60E94B80D0E9440
:101CD00098120E944C160E9453032696EBE00C9437
:101CE0004D251F93CF93DF930E949F0FEC01C115E9
:101CF00080E5D807E8F5C11590E4D90708F0A8C039
:101D0000C03ED10530F5CD3CD10508F094C0C83AAD
:101D1000D10578F4C53AD10508F083C0C130D105AA
:101D200009F47CC008F4F2C0C430D10508F0F1C059
:101D3000EDC0C33CD10508F0E9C0C85AD0E0CC0FD3
:101D4000DD1FCD59DE4F0990D881C02DCE0194649E
:101D5000E1C0C11580E2D80708F0CBC0C11591E001
:101D6000D90708F06BC0C83ED10508F4D2C0CEC078
:101D7000C03682E5D80728F5C03492E5D90708F0C7
:101D800079C0C03282E5D80708F06CC0C11592E571
:101D9000D90708F481C04C2F4695469580E2489FAC
:101DA000A0011124C37021E030E0C90102C0880FF6
:101DB000991FCA95E2F7EA01C82BD92BCE019D687D
:101DC000A9C0C03A82E5D807B8F48C2F8F71C0380B
:101DD00092E5D90708F07BC08695869590E2899FA9
:101DE00090011124C37081E090E002C0880F991F18
:101DF000CA95E2F79A6868C0C03C82E5D80708F443
:101E00006DC0C03E92E5D90708F080C0CF71DD27D4
:101E1000DC2FCC27CE01806F906A7CC081E090E0FF
:101E200079C0C55AD0E0C756DE4F8881C82FD0E0B0
:101E3000CE0190646FC0CE0190656CC08D2F0E9462
:101E40003B10182FCE0199270E949F0F1F715CC075
:101E5000CE0199270E949F0FCC27DF70D06A8C2B70
:101E60009D2B58C0CF71D0E0DC2FCC27CE01816FE5
:101E7000906A50C08C2F8F718695869590E2899FCD
:101E800090011124C37081E090E002C0880F991F77
:101E9000CA95E2F79C6818C08C2F8F710E943B1086
:101EA00095E0D695C7959A95E1F7CF70D0E0DC2FF5
:101EB000CC27282F30E084FF05C084E0220F331F99
:101EC0008A95E1F7D069CE01822B932B23C090E055
:101ED000D82FCC27CE01846F906A1CC08C2F8F71B5
:101EE0000E943B108F7190E0D82FCC27CE019062DA
:101EF00011C08D2F8F710E943B10182FCE01992792
:101F00000E949F0F1F719062912B04C080E090E0AF
:101F100001C0CE01DF91CF911F9108957C3038F43C
:101F2000663028F4462F672F0E944E02089580E005
:101F300090E008950E948E0F0E94710E08958238DD
:101F4000910569F1B0F48133910509F475C048F445
:101F50008932910509F467C08A32910509F471C08C
:101F600008958533910509F459C089339105B9F075
:101F70000895833E910589F138F4803E9105D1F0B2
:101F8000823E910529F10895863E9105C9F1873E6B
:101F90009105D9F1843E910509F06CC027C02091CC
:101FA0009A0220FD57C021FD55C020919B0223FDC0
:101FB0005BC0089580919A0280FD48C080919B0289
:101FC00080FF48C080919A0284FD46C083EE51C0D4
:101FD00080919A0282FF3CC0F5CF80919A0282FDE7
:101FE00037C080919B0280FD35C0ECCF80919B0271
:101FF00081FF36C080919A0284FD2EC087EE39C0E1
:1020000080919A0283FF2AC0F5CF80919A0283FDC6
:1020100025C080919B0281FD23C0ECCF80919A0264
:1020200085FD22C01FC080919A0285FD1BC0809152
:102030009B0283FF19C00AC080919A0286FD16C0D8
:1020400017C080919A0286FD13C010C089E311C0A9
:1020500082EE0FC080EE0DC080E00BC086EE09C09E
:1020600084EE07C085E305C089E203C08AE201C0AF
:1020700081E390E0089590919A0292FF10C041E0B0
:10208000282F2471243009F040E031E0282F2871F6
:10209000283009F030E0431711F02CE0822793FF3D
:1020A00010C041E0282F2471243109F040E031E0D4
:1020B000282F2871283109F030E0431711F02CE067
:1020C000822730919B0230FF10C051E0282F2171F0
:1020D000213009F050E041E0282F2871283009F024
:1020E00040E0541711F029E0822731FF10C041E091
:1020F000282F2171213109F040E031E0282F28718B
:10210000283109F030E0431711F029E0822794FDCF
:10211000877E08951092960210929702109298026C
:10212000109299020895CF92DF92EF92FF926B0185
:102130007C010E94981281110EC00E943A1CC61A9E
:10214000D70AE80AF90AC0929602D0929702E09262
:102150009802F0929902FF90EF90DF90CF9008954F
:102160000F931F930E949812882319F00E943A1C23
:102170000EC00E943A1C0091960210919702209185
:10218000980230919902600F711F821F931F1F9157
:102190000F91089580E0089508950E94ED0C81113B
:1021A00002C00E948B0D0E94F80C809346020E9490
:1021B000020D90939B0280939A020E94CC100E9481
:1021C000FD0C90E00E949B078091D6019091D70171
:1021D0000E94B9070895E82FF0E0E755FD4F808190
:1021E0000895089580EA8A95F1F7089500C008954A
:1021F0000E94F210089508950E94FB1008950E9415
:10220000FC1008950E94FB1008950E940211089589
:102210000E94FB100895A6E0B0E0E1E1F1E10C942A
:1022200037250E9498126091B5028823E9F186E073
:10223000F82E8E010F5F1F4FF8018F2D11928A9596
:10224000E9F7862F90E0B80187559D4F0E94CB1289
:10225000882389F080919C0290E046E050E0B8012C
:1022600087559D4F0E94752521E020934702892BB9
:1022700061F410E016C0809147028823D1F3F80181
:102280001192FA94E9F710924702A0919C02B0E0F3
:10229000A755BD4F86E0F80101900D928A95E1F7B0
:1022A00011E00E94FF100DC070E067557D4F8091D6
:1022B0009C0290E087559D4F0E9454130E94081184
:1022C00010E0812F2696E5E00C945325F894E82F32
:1022D000E295EF70F0E031A1282F2F7081E090E0BF
:1022E00001C0880F2A95EAF7982F9095932391A320
:1022F00092A1892B82A3789408950F931F93CF9373
:10230000DF93C2EAD1E089918F3F11F00E946611FC
:1023100081E0C83AD807B9F7CCE9D1E002EA11E088
:1023200089918F3F11F00E9466110C171D07C1F7AC
:10233000DF91CF911F910F910895A0E0B0E0E3EA03
:10234000F1E10C9434258C01C62FD0E0CE018E55DE
:102350009E4F7C01FC0190819F3F09F447C0D62E1F
:10236000F894E92FE295EF70F0E081A19F7021E0F1
:1023700030E001C0220F9A95EAF7822B81A382A157
:102380002095282322A378940E94F610ECE9F1E02E
:1023900042EA51E031E0C12C21912F3F89F0A22F78
:1023A000A295AF70B0E090968C9190E02F7002C033
:1023B000959587952A95E2F780FD02C0832F01C08D
:1023C00080E0C82A330F4E175F0731F7F70180818D
:1023D0008F3F11F00E94661161E0C11001C060E002
:1023E0008D2D0E94F810C00FD11FC882CDB7DEB767
:1023F000E8E00C9450258091020180910201811146
:1024000002C096E001C090E09093B50286E0891B7F
:1024100080939C020E947D118CE0E9EAF2E0DF01EA
:10242000982F1D929A95E9F7EDE9F2E0DF011D92F0
:102430008A95E9F786E00E945E120E9405110895D0
:10244000ACE0B0E0E6E2F2E10C9437258E010F5FDC
:102450001F4F8CE0F80111928A95E9F7F12C6F2D4E
:10246000C8010E949D11F394F6E0FF12F8CF4CE0F2
:1024700050E0B8018DE992E00E94752521E00097B7
:1024800009F420E0892B41F08CE0F801ADE9B2E0DD
:1024900001900D928A95E1F76091B50270E0675561
:1024A0007D4F46E08DE992E00E945F12182F0E9456
:1024B0000B11812B2C96E5E00C9453250895EF9297
:1024C000FF920F931F93CF93DF937C018B01C42F57
:1024D000222349F081E080934A020E942E1C9093AF
:1024E00049028093480280914A02811102C080E033
:1024F0001AC080914802909149020E94461C05979B
:10250000B0F3D0E0AE01B701C8010E947525892B58
:1025100039F0AE01B701C8010E94822581E001C0F7
:1025200080E010924A02CDB7DEB7E6E00C94522567
:1025300080914D0281110DC00E940325811102C0BE
:1025400082E001C081E080934D02823011F40E944C
:10255000FE2481E090914D02913009F080E00895D1
:102560000E94981208950E94B012809302010E9466
:10257000981281110E94031308950E9498128111EC
:1025800002C00E940613089581E090914E029A3095
:1025900008F080E008950F931F93CF93DF93EC0131
:1025A0008B0180914E028A3038F4B801CE010E942E
:1025B000511381111DC00AC080914B0290914C02B1
:1025C0000E94461C843F914080F715C080914E02C6
:1025D0008F3F19F08F5F80934E0280914E028A30B8
:1025E00060F00E942E1C90934C0280934B0203C01B
:1025F00010924E0202C080E001C081E0DF91CF91D5
:102600001F910F9108950E94071D08950E940A1DB1
:102610000895A0E0B0E0EFE0F3E10C9435257901F6
:10262000C82F880FDD0B41155105A9F0FE0193E07D
:10263000EE0FFF1F9A95E1F7ED5FFE4F81819281CA
:10264000815B9D4F208130E04217530708F49A01C7
:10265000A9010E948225CE010E94F21DD82E882356
:10266000D1F001151105B9F083E0CC0FDD1F8A957B
:10267000E1F7FE01ED5FFE4F438150E004171507BF
:1026800008F4A801CD5FDE4F6C817D81615B7D4FD9
:10269000C7010E9482258D2DCDB7DEB7E7E00C94EF
:1026A00051250E94461408950E945D140895A4E0E7
:1026B000B0E0EDE5F3E10C9438256091680270918B
:1026C000690280916A0290916B020E94551C6436E7
:1026D00071058105910528F10E94B010DC01CB0144
:1026E0000296A11DB11D89839A83AB83BC8300E050
:1026F00010E020E030E044E050E0BE016F5F7F4F2B
:1027000082E00E940913182F882361F00E943A1C6E
:10271000609368027093690280936A0290936B02DF
:1027200001C011E0812F2496E4E00C945425A0E030
:10273000B0E0EDE9F3E10C9432257C015B016A0124
:102740000E94C412811103C001E010E002C00AE03F
:1027500010E0C1E0D0E0B501C701F6010995811193
:1027600015C021960C171D0794F0CC9F9001CD9FAA
:10277000300D300D112480E090E045E34A95F1F7EB
:102780000000019682179307C1F7E5CF81E0CDB72E
:10279000DEB7EAE00C944E25A7E0B0E0E2EDF3E10D
:1027A0000C9432257B01C090A801D090A90101E0D2
:1027B00010E09E01295F3F4F40E050E060E070E094
:1027C00080E00E940913182F882309F43EC05601A7
:1027D0008FEFA81AB80A6091640270916502809127
:1027E0006602909167020E94551C6436710581054E
:1027F000910518F106E010E09E012F5F3F4F40E089
:1028000050E060E070E081E00E940913182F66E05C
:1028100070E0C5010E943B1791E02F81281390E0E2
:10282000192339F10E943A1C609364027093650287
:10283000809366029093670211C066E070E0C50164
:102840000E943B179F818913D5CF86E0F601319610
:10285000DE01119601900D928A95E1F7112349F05E
:1028600086E0FE013196AEE5B2E001900D928A95C8
:10287000E1F786E0EEE5F2E0D70101900D928A954E
:10288000E1F7812F2796EAE00C944E250F931F93D2
:10289000CF93DF93EC018B014CEC53E10E94971333
:1028A000882331F047E553E1B801CE010E94971328
:1028B000DF91CF911F910F9108950F931F93CF93A5
:1028C000DF93C091A801D091A901CE01019626E025
:1028D000FB01DC0101900D922A95E1F766E070E0C2
:1028E0000E943B1788836F81788589859A8500913E
:1028F0005A0210915B0220915C0230915D026017D8
:1029000071078207930751F060935A0270935B023C
:1029100080935C0290935D020E949310DF91CF91AF
:102920001F910F9108950E94CC1F0E94F60D0E94E6
:10293000D91F08950E94DE1F0E94070E0E94F81FF3
:1029400008950E94C51B0E94B21F0E94E30D0E94C1
:1029500093140E949A140E94EC0DFBCF9093AB014C
:102960008093AA010895282F35EB2303C001112479
:1029700097FF03C08058910902C080589F4F892F4C
:1029800008958091740280FF06C060911F0170E07D
:10299000660F771F26C081FF04C060911F0184E08D
:1029A00005C082FF07C060911F0188E0689FB001E9
:1029B000112417C0909173029923D1F060911E01E8
:1029C000961788F720911F0188E0289F9001112415
:1029D000929FA001939F500D112470E0CA010E94A4
:1029E00010256038710540F46115710519F406C0B1
:1029F00068E070E0862F08958FE7089581E00895DC
:102A00008091740280FF08C060911C0170E0759590
:102A100067957595679521C081FF06C060911C017F
:102A200070E07595679519C082FF04C060911C0124
:102A300070E010C090917202992399F060911B018F
:102A40009617A0F780911C01899FC001112470E0A6
:102A50000E9410256038710540F46115710519F464
:102A600006C061E070E0862F08958FE7089581E049
:102A700008958D3C21F40E94C114819504C08E3CC0
:102A800029F40E94C1148093780208958F3C21F4A8
:102A90000E94C114819504C0803D29F40E94C11494
:102AA000809377020895893D19F40E94001505C0AE
:102AB0008A3D31F40E940015819580937902089532
:102AC0008B3D21F40E940015819504C08C3D29F4B2
:102AD0000E94001580937A0208959FE2980F983023
:102AE00078F421E030E0A90102C0440F551F9A9507
:102AF000E2F7CA0190917602892B809376020895BD
:102B00008D3D21F48091740281600BC08E3D21F4D3
:102B100080917402826005C08F3D29F48091740217
:102B200084608093740208958D3C39F4909178020A
:102B300097FF35C01092780259C08E3C29F49091CD
:102B400078021916BCF32BC0909177028F3C29F4C0
:102B500097FF25C01092770249C0803D19F41916DD
:102B6000CCF31DC090917902893D29F41916BCF46B
:102B7000109279023BC08A3D19F497FF10C0F8CF3C
:102B80008B3D39F490917A0297FF09C010927A0236
:102B90002DC08C3D21F490917A021916BCF39FE26E
:102BA000980F983080F421E030E0A90102C0440F72
:102BB000551F9A95E2F7CA01809590917602892374
:102BC0008093760213C08D3D21F4809174028E7F34
:102BD0000BC08E3D21F4809174028D7F05C08F3D26
:102BE00029F4809174028B7F809374028091770224
:102BF000811106C080917802811102C01092730287
:102C000080917902811106C080917A02811102C0FF
:102C10001092720208950E942E1C209177022111B9
:102C200004C020917802222321F0909371028093B6
:102C3000700220917902211104C020917A0222238E
:102C400021F090936F0280936E0285E792E00E94DC
:102C5000AC1A0895E5E7F2E086E0DF011D928A955F
:102C6000E9F71092730210927202109274020895A2
:102C7000FC01828181110DC0838181110AC0848190
:102C8000811107C091E08581811101C090E0892FF9
:102C900001C081E081700895A6E0B0E0E2E5F6E1D0
:102CA0000C94392586E0E5E7F2E0DE01119601900B
:102CB0000D928A95E1F710927702109278021092A5
:102CC000790210927A028B81811104C08C81882351
:102CD00009F456C080917002909171020E94461CC6
:102CE000AC0190917302992339F02091200130E0DA
:102CF0002417350758F044C020916D028AE0289FC0
:102D0000900111242417350718F03AC09F3F19F09D
:102D10009F5F909373021B81112361F00E94C11485
:102D2000111614F09FEF01C091E0989F902D11248F
:102D3000909377021C81112361F00E94C114111637
:102D400014F09FEF01C091E0989F902D1124909373
:102D5000780280917702882399F0109178021123EC
:102D600079F00E94B314811101C081E08093770251
:102D7000812F0E94B314811101C081E080937802F9
:102D80008D81811104C08E81882309F456C0809101
:102D90006E0290916F020E94461CAC0190917202EB
:102DA000992339F020911D0130E02417350758F0A0
:102DB00044C020916C028AE0289F900111242417BE
:102DC000350718F03AC09F3F19F09F5F9093720249
:102DD0001D81112361F00E940015111614F09FEF60
:102DE00001C091E0989F902D1124909379021E814B
:102DF000112361F00E940015111614F09FEF01C01D
:102E000091E0989F902D112490937A0280917902FD
:102E1000882399F010917A02112379F00E94B3145B
:102E2000811101C081E080937902812F0E94B31447
:102E3000811101C081E080937A02BE016F5F7F4FF4
:102E400085E792E00E94531B811105C085E792E05F
:102E50000E94381681110E940B1686E0FE01319601
:102E6000A5E7B2E001900D928A95E1F72696E3E09E
:102E70000C9455250895FC01680F791F8FEF91E39D
:102E8000E617F70771F02191822728E030E087FFED
:102E900003C0880F892701C0880F21503109B9F775
:102EA000EFCF0895CF93DF93FC01DB0115968C9152
:102EB000882309F4DDC09F0130572332310508F023
:102EC000D8C0EF010E94020D90939B0280939A025A
:102ED000FE01E150F047E232F10520F4EE59FF4FD8
:102EE0000C94242580919A028160AAC080919B0253
:102EF0008860B2C080919A028260A2C080919A02DA
:102F000020C080919A0288609BC080919B021EC065
:102F100080919B028260A0C080919A02806190C0E3
:102F200080919A0280628CC080919A02806488C0ED
:102F30000E944B0780919A02806882C080919A0219
:102F4000886084607DC080919B028260816084C0C3
:102F500080919A028E7F74C080919B02877F7CC093
:102F600080919A028D7F6CC080919A0220C08091DE
:102F70009A02877F65C080919B021EC080919B0250
:102F80008D7F6AC080919A028F7E5AC080919A028A
:102F90008F7D56C080919A028F7B52C00E944B0752
:102FA00080919A028F774CC080919A02877F8B7FA5
:102FB00047C080919B028D7F8E7F4EC080919A0288
:102FC00082FB222720F991E0922790FB82F990FB67
:102FD00083F936C080919B02982F909591708E7FD7
:102FE000892B90FB81F938C080919A0286FB2227B9
:102FF00020F991E0922790FB86F922C00E944B07AE
:1030000080919A0287FB222720F991E0922790FB7A
:1030100087F916C081E001C080E00E948E0D1EC0BD
:1030200080919A0284FB222720F991E0922790FB5D
:1030300084F906C080919A02982F909590FB80F9B0
:1030400080939A020BC080919B0283FB222720F978
:1030500091E0922790FB83F980939B0280919A02E2
:1030600090919B020E94070D0E944B0780E001C0D7
:1030700081E0DF91CF910895893279F1E0F48431D4
:1030800061F1A0F4873009F075C010926D0294E1EF
:103090009093200180931F018CE380931E0188E0B0
:1030A00080931C0188E280931B0164C092EE980F0C
:1030B0009A30F0F05FC0803509F444C028F48F34B2
:1030C00009F058C08AE03FC0813529F0823509F007
:1030D00051C081E038C08FEF36C080917D028823D7
:1030E00079F110927D0210927C0210927B0242C014
:1030F0008D5180937D02833099F038F4813069F0EE
:103100008230D9F480E291E00DC0853099F078F0FA
:10311000863099F48BE191E005C08DE692E002C023
:103120008FE191E090937C0280937B0223C08EE13B
:1031300091E0F8CF8CE191E0F5CF10927D021AC0BA
:1031400080E0089586EFE0917B02F0917C02309759
:1031500089F02081082E000C990B820F911D8F3F62
:10316000910519F014F08FEF04C097FF02C0108290
:1031700001C0808381E008958B3109F469C058F55E
:103180008B3009F490C078F4863009F446C020F4FE
:10319000853009F44CC08CC0873009F44BC08830AE
:1031A00009F481C085C0803109F465C068F48E30AF
:1031B00009F07EC08091460282FB222720F991E02F
:1031C000922790FB82F94DC0863109F46CC0893199
:1031D00009F469C06DC08A32E9F060F4873209F4FD
:1031E00064C028F48E3108F463C08D514FC0893219
:1031F000F1F05EC0833450F48A3308F046C0853362
:1032000009F453C0883309F44EC052C0833409F422
:103210004CC04EC00E948B0D46C080914602817FFB
:103220008E7F8093460281E080937E0208950E9403
:10323000C20239C080914602982F9095917090FB00
:1032400080F98093460291112EC0897F877F10C03C
:103250008091460281FB222720F991E0922790FB82
:1032600081F9809346029923F1F0809146028160B2
:103270008093460218C08091460283FB222720F9E2
:1032800091E0922790FB83F9ECCF895321E030E065
:10329000A90102C0440F551F8A95E2F7CA010E9496
:1032A0009B070E944B0781E0089581E090E0F7CFF3
:1032B00080E0089580E008950E945A190895CF9300
:1032C000C82F80917E02813069F038F08230C1F5DC
:1032D0008C2F0E943C1881E039C00E94E80B82329A
:1032E00089F504C00E94E80B823261F48C2F0E94A1
:1032F0005C19811104C08C2F0E94BC181FC081E092
:1033000090E01CC08C2F0E945A19811116C0C43144
:1033100089F058F4CB3089F0C031B1F482E0809369
:103320007E0288E30E943C1808C0C93219F0C833F5
:1033300021F00AC010927E0207C081E0817006C0B1
:1033400010927E0280E002C080E0F8CFCF91089515
:10335000CF93DF9386319C4741F5EB010E94E80B48
:10336000982F8D812091000130910101882379F0FF
:103370009A7A81E009F480E080937F02911102C083
:1033800069E201C065E3C9010E94461B0AC0809141
:103390007F02811102C069E201C065E3C9010E9498
:1033A000491B0E94340C80E001C081E0DF91CF9185
:1033B00008950F931F93CF93DF93C42FD22FFC0157
:1033C00085818823B1F0409382020E942E1C909345
:1033D00081028093800280E28C0F883008F04DC01B
:1033E000C77081E001C0880FCA95EAF70E94EF0418
:1033F00044C080918202481330C080918002909135
:1034000081020E94461C883C910538F510E21D0F90
:10341000CD17B9F080E28C0F883040F4C77081E09E
:1034200001C0880FCA95EAF70E94F604183010F51B
:1034300081E09D2F977001C0880F9A95EAF70E944E
:10344000EF04802F0E94E5041830B8F4D77081E0B3
:1034500001C0880FDA95EAF70AC080E28C0F883045
:1034600060F4C77081E001C0880FCA95EAF70E9436
:10347000F60403C0802F0E94E504DF91CF911F91D5
:103480000F9108950F93FC01E851FC47E730F105D7
:1034900090F5CB01EC57FF4F0C94242506E221EE6A
:1034A00041EE6AE17CE723C007E225EE45EE6BE1E1
:1034B0007CE71DC006E221EE40EE68E17CE717C024
:1034C00007E225EE44EE69E17CE711C006E221EE59
:1034D00042EE6CE17CE70BC007E225EE46EE6DE1C3
:1034E0007CE705C008E221E045EE6EE17CE70E9442
:1034F000D91980E008C0FB018581882319F010925A
:10350000820201C081E00F91089590938902809317
:10351000880208950E949812811103C0809183024D
:103520000895E0918802F0918902309729F0019086
:10353000F081E02D0995089580E008950E948A1A8F
:103540000895E0918802F0918902309721F002807D
:10355000F381E02D09950895E0918802F0918902A8
:10356000309739F022E0DC012C930480F581E02DC6
:1035700009950895A3E0B0E0E0ECFAE10C943A2557
:10358000209186023091870228173907A1F0909385
:10359000870280938602E0918802F0918902309739
:1035A00051F023E029839B838A830680F781E02DF5
:1035B000CE01019609952396E2E00C945625A3E0EE
:1035C000B0E0E5EEFAE10C943A25209184023091C6
:1035D000850228173907A1F0909385028093840211
:1035E000E0918802F0918902309751F024E029831C
:1035F0009B838A830680F781E02DCE010196099591
:103600002396E2E00C945625FC01329697E080E088
:10361000915029F021912223D9F38F5FF9CF08959A
:10362000662349F0FC01329608962191621729F031
:10363000E817F907D1F780E0089581E008959C012B
:10364000FC0132969FEF80E04191461789F09F3F41
:1036500019F4411101C0982F8F5F8630A9F79F3F61
:1036600039F0F901E90FF11D97FDFA95628308958C
:1036700008959C012A5F3F4FFC014281461301C01F
:103680001282019682179307B9F708950E941F1BB3
:1036900008950E94391B0895029626E0FC011192BC
:1036A0002A95E9F70895DC01FB0111969C91119789
:1036B0008181981321C012968C911297882319F05A
:1036C0009281891319C013968C911397882319F04E
:1036D0009381891311C015968C911597882319F041
:1036E0009581891309C014969C91992339F081E042
:1036F0002481291304C002C081E001C080E08170F0
:10370000089508950E94811B089583E080938A02A2
:103710000E94821B0895811102C081E001C082E0F5
:1037200080938A020E94821B08950E948B1B089539
:1037300081E080938A020E94821B08950E94981B58
:10374000089508950E94A11B08950E94A21B089548
:103750000E94A11B08950E94A11B08950E94A11B15
:103760000895CF930E94AB1B0E9420120E94A81BB9
:10377000C0E08C2F0E94EB10811104C0CF5FCC30D1
:10378000C1F701C081E0CF91089585B7806885BFFA
:1037900085B7806885BF08951F920F920FB60F926C
:1037A00011248F939F93AF93BF9380918B028111CC
:1037B00013C08091B6029091B702A091B802B09167
:1037C000B9024196A11DB11D8093B6029093B70234
:1037D000A093B802B093B902BF91AF919F918F911E
:1037E0000F900FBE0F901F9018958091BE028430ED
:1037F00031F10E94230310928B0220E488E190E0D3
:103800000FB6F894A895809360000FBE20936000D7
:1038100083B7817F846083BF83B7816083BF7894DF
:10382000889583B78E7F83BF0FB6F894A895809153
:103830006000886180936000109260000FBE089560
:103840000E944B070E942803089582E084BD93E004
:1038500095BD9AEF97BD80936E0008952FB7F894A9
:103860008091B6029091B702A091B802B091B902CE
:103870002FBF08952FB7F8946091B6027091B702E8
:103880008091B8029091B9022FBF08959C014FB763
:10389000F8948091B6029091B702A091B802B091CD
:1038A000B9024FBF821B930B0895CF92DF92EF9224
:1038B000FF922FB7F894C090B602D090B702E09074
:1038C000B802F090B9022FBFA7019601261B370B53
:1038D000480B590BCA01B901FF90EF90DF90CF90D0
:1038E000089578941F920F920FB60F9211248F9320
:1038F0009F93AF93BF938091B6029091B702A0912E
:10390000B802B091B9020196A11DB11D8093B60213
:103910009093B702A093B802B093B902BF91AF9150
:103920009F918F910F900FBE0F901F90189587E772
:1039300097E790930108809300089AE088E10FB61A
:10394000F894A895809360000FBE90936000FFCF1D
:103950009AE088E10FB6F894A895809360000FBEB6
:1039600090936000FFCF8EE1489B02C08150E1F749
:10397000489BFECF0895589880E28A95F1F7589AAF
:103980000895FC012AE02A95F1F728E090E080E014
:1039900031E040E14A95F1F7880F489B02C0816011
:1039A000932700C0000040E14A95F1F7215089F7C4
:1039B00020E12A95F1F729B100C0000030E13A95E5
:1039C000F1F7217092272081920F90830895A1E052
:1039D000B0E0EDEEFCE10C94362519828C017C01FF
:1039E000E60EF11C0E151F0551F00E94B31CCE010E
:1039F00001960E94C11CF80181938F01F3CF81E0F1
:103A00009981911180E02196E6E00C945225509A1C
:103A1000589A08955098589AE89AE9E6F0E080811B
:103A20008C7F80830895615091E001C0990F6A9561
:103A3000EAF720E031E0992361F0492F482319F09B
:103A4000589A232701C0589840E24A95F1F7969575
:103A5000F2CF222311F0589A01C0589880E28A953B
:103A6000F1F758980895FF920F931F93CF93DF9328
:103A7000EC018C01060F111DC017D10741F0F99020
:103A80000E94BB1C68E08F2D0E94131DF5CFCDB79F
:103A9000DEB7E5E00C9453251F920F920FB60F92FC
:103AA00011240F931F932F933F934F935F936F9323
:103AB0007F938F939F93AF93BF93EF93FF93CF9396
:103AC000DF931F92CDB7DEB719820E94B31CCE01DF
:103AD00001960E94C11C082F069506950695902F09
:103AE00096959570202F2570920F292F237096950B
:103AF0009695920F877089135FC0898181115CC090
:103B0000043008F059C080E18A95F1F7589A509A2C
:103B100082E08A95F1F700C0589888E0089F8001FC
:103B20001124D801AD5FBE4F1696ED91FC91179709
:103B30003097A9F06091A8017091A90114962D9178
:103B40003C911597260F371F11968D919C911297D6
:103B5000680F791F13964C9113978C910995F80172
:103B6000ED5FFE4F6381662351F08091A801909133
:103B7000A90124813581820F931F0E94331D0E9469
:103B8000BB1C80E18A95F1F758985098589A80E1CB
:103B90008A95F1F7F801ED5FFE4F6081662351F0E1
:103BA0008091A8019091A90121813281820F931FF8
:103BB0000E94E71C0E94B31C0F90DF91CF91FF91F0
:103BC000EF91BF91AF919F918F917F916F915F9195
:103BD0004F913F912F911F910F910F900FBE0F901A
:103BE0001F9018950F931F93CF93DF938430910507
:103BF0000CF06DC0EC01F894509A589885E08A95C5
:103C0000F1F700009C2F969595702C2F2570920F40
:103C1000892F83709695969523E0CC0FDD1F2A950A
:103C2000E1F7980F8E01092B0E94BB1C84E08A9556
:103C3000F1F700C068E0802F0E94131D80E18A9593
:103C4000F1F75098589A489902C000C0FCCF87E01D
:103C500090E0489B08C0019721F4509A589A7894B4
:103C600036C000C0F6CFFE01ED5FFE4F63816623D4
:103C700081F08091A8019091A90124813581820F62
:103C8000931F0E94E71C811104C0509A589A78949F
:103C90001FC00E94B31C80E28A95F1F75898509A91
:103CA00080E18A95F1F7CD5FDE4F6881662351F0A0
:103CB0008091A8019091A90129813A81820F931FD7
:103CC0000E94331D0E94BB1C789481E001C080E0FB
:103CD000DF91CF911F910F910895809194020895E3
:103CE0009B019091BE029430F1F48F708093E900B3
:103CF0008FEF9091E800815095FD06C095ED9A9563
:103D0000F1F700008111F5CF8091E80085FF0BC02D
:103D1000BA01C90140E050E00E9470208091E800A3
:103D20008E778093E800089543E050E0BC0182E084
:103D30000E94701E089546E050E0BC0182E00E949F
:103D4000701E0895CF93DF93EC0148E050E0BC0172
:103D500081E00E94701E88E0FE01ACE8B2E00190B4
:103D60000D928A95E1F7DF91CF9108958091BD0280
:103D7000811109C00E94FB210E9458228091E2001B
:103D800084608093E20008951092BD0208950E941D
:103D90009E1B08956091BA0281E0611101C080E02C
:103DA0000E94851B08959091BE0281E0943009F035
:103DB00080E06091BA020E948B1B089542E061ECA2
:103DC00081E00E94742142E261EC82E00E94742151
:103DD0009091BE0281E0943009F080E06091BA02D7
:103DE0000E94951B08958091C002833009F461C040
:103DF00030F4813071F0823009F49BC008958A302C
:103E000009F487C08B3009F46CC0893009F0A9C06F
:103E100020C08091BF02813A09F0A3C08091E800E0
:103E2000877F8093E8008091C3029091C402892B20
:103E300021F468E08CE892E003C060E080E090E06C
:103E400070E00E94B5208091E8008B778093E800B5
:103E500008958091BF02813209F083C08091C3022E
:103E60009091C402029708F07CC08091E800877F9F
:103E70008093E8008091E80082FD05C08091BE0239
:103E80008111F8CF6EC02091F3008091F20090E094
:103E9000922B029731F48091F100813011F086303D
:103EA00021F48091F100809394028091E8008B7757
:103EB00054C08091BF02813A09F053C08091C3027F
:103EC0009091C402892B09F04CC08091E800877F53
:103ED0008093E8008091E80080FFFCCF8091290169
:103EE00037C08091BF028132E1F58091C302909189
:103EF000C402892BB1F58091E800877F8093E800A8
:103F00000E94A9218091C102809329010E944B0740
:103F100008958091BF02813221F58091E800877F6A
:103F20008093E8000E94A9218091C20280939502AB
:103F300008958091BF02813AA1F48091E800877FC3
:103F40008093E8008091E80080FFFCCF809195028B
:103F50008093F1008091E8008E778093E8000E94C2
:103F6000A921089584B7877F84BF0FB6F894A895D8
:103F700080916000886180936000109260000FBEA5
:103F800090E080E80FB6F894809361009093610010
:103F90000FBE0E94981B08950E94FB210E94582288
:103FA000E2EEF0E080818460808378940E94E324D4
:103FB000089581E291E00E94851A08958091BE02E1
:103FC0008530A9F48091BE02853079F40E94F51BFA
:103FD0008091BC028823B1F30E94B11B882391F326
:103FE0000E945A200E944B07EDCF0E94201C08958A
:103FF00008959A014091C5025091C6020E94012085
:104000000895492F552743305105C9F060F44130D8
:10401000510581F04230510509F044C08BE390E036
:104020004CE153E043C041325105E1F042325105C9
:1040300049F138C082E190E047E553E037C0992765
:104040008130910549F028F0029761F5EAEDF2E040
:1040500005C0E8E1F3E002C0E8E0F3E0849190E01D
:10406000AF0124C06115710541F061307105D1F4D3
:1040700089E090E047E453E019C089E090E04EE227
:1040800053E014C06115710541F06130710551F4C0
:104090008BE790E049E653E009C084E490E044EE09
:1040A00053E004C080E090E040E050E0F90151832B
:1040B0004083089580E189BD82E189BD09B400FE95
:1040C000FDCF8091D8008F7D8093D8008091E00053
:1040D00082608093E0008091E00081FDFCCF089534
:1040E000A0E0B0E0E6E7F0E20C943425EC018B01AF
:1040F0007A010E94C821811133C0E114F10439F022
:10410000F70180819181081B190BC80FD91FC12CA1
:10411000D12C0115110519F18091E80085FD16C01B
:104120008091E8008E778093E800E114F10449F073
:10413000F70180819181C80ED91ED182C08285E0AD
:104140000FC00E94C821882321F30AC0899180935F
:10415000F10001501109FFEFCF1ADF0ADACF80E03A
:10416000CDB7DEB7E8E00C9450252091C502309120
:10417000C6022617370748F06115710539F42091FA
:10418000E8002E772093E80001C0B901FC0120E08F
:104190006115710579F18091BE028823F1F18530B6
:1041A000F1F18091E80083FD3CC08091E80082FD40
:1041B0002EC08091E80080FFEBCF2091F30080912A
:1041C000F20090E0922B6115710551F08830910555
:1041D00038F421912093F100615071090196F3CFD9
:1041E00021E0089709F020E08091E8008E77809325
:1041F000E800CECF2111CFCF0AC08091BE02882324
:1042000061F0853061F08091E80083FD0AC0809103
:10421000E80082FFF2CF80E0089582E0089583E015
:10422000089581E008952091C5023091C6022617B5
:10423000370748F06115710539F42091E8002E77B1
:104240002093E80001C0B901FC0120E0611571056F
:1042500091F18091BE02882309F440C0853009F4B1
:104260003FC08091E80083FD3DC08091E80082FD61
:104270002FC08091E80080FFE9CF2091F30080916A
:10428000F20090E0922B6115710559F0883091058C
:1042900040F424912093F100319661507109019608
:1042A000F2CF21E0089709F020E08091E8008E77B6
:1042B0008093E800CBCF2111CCCF0AC08091BE0201
:1042C000882361F0853061F08091E80083FD0AC0A9
:1042D0008091E80082FFF2CF80E0089582E00895A7
:1042E00083E0089581E00895982F973068F59093C2
:1042F000E900981739F07091EC002091ED00509191
:10430000F00003C0242F762F50E021FD02C09F5FF4
:10431000ECCF3091EB003E7F3093EB003091ED001D
:104320003D7F3093ED003091EB0031603093EB0036
:104330007093EC002093ED005093F0002091EE007C
:1043400027FDE5CF80E008958F708093E90081E03C
:1043500008958091BF0287FF11C08091E80082FD1F
:1043600005C08091BE028111F8CF11C08091E80094
:104370008B770BC08091BE02882349F08091E800C2
:1043800080FFF8CF8091E8008E778093E800089551
:104390002091E4003091E50095E64091EC00842FF7
:1043A000817040FF23C08091E80080FD1DC0809196
:1043B000BE02882399F0853099F08091EB0085FD4D
:1043C00011C04091E4005091E5002417350729F30E
:1043D000915011F09A01E1CF84E0089582E00895B0
:1043E00083E0089581E0089580E008954091E80019
:1043F00042FFDDCF08950E946A220E947222E0EE01
:10440000F0E0808181608083E8EDF0E080818F774B
:10441000808319BCA7EDB0E08C918E7F8C93808156
:104420008F7E80831092BD0208950F931F93CF93C8
:10443000DF930E946A220E947222C8EDD0E0888138
:104440008F77888388818068888388818F7D88833F
:1044500019BC1092BE021092BA021092BC021092C5
:10446000BB0200EE10E0F80180818B7F80838881A1
:104470008160888342E060E080E00E947421E1EE88
:10448000F0E080818E7F8083E2EEF0E080818160C9
:104490008083808188608083F80180818E7F808323
:1044A000888180618883DF91CF911F910F9108955A
:1044B000E8EDF0E080818F7E8083E7EDF0E08081A1
:1044C0008160808384E082BF81E08093BD020E948E
:1044D00015220895E8EDF0E080818E7F80831092B0
:1044E000E20008951092DA001092E10008951F9200
:1044F0000F920FB60F9211242F933F934F935F9318
:104500006F937F938F939F93AF93BF93EF93FF939B
:104510008091E10082FF0BC08091E20082FF07C022
:104520008091E1008B7F8093E1000E94E2248091E2
:10453000DA0080FF1FC08091D80080FF1BC08091EF
:10454000DA008E7F8093DA008091D90080FF0DC061
:1045500080E189BD82E189BD09B400FEFDCF81E023
:104560008093BE020E94B61E05C019BC1092BE0206
:104570000E94C41E8091E10080FF19C08091E2007A
:1045800080FF15C08091E2008E7F8093E2008091D1
:10459000E20080618093E2008091D8008062809385
:1045A000D80019BC85E08093BE020E94CA1E80918B
:1045B000E10084FF30C08091E20084FF2CC080E1E4
:1045C00089BD82E189BD09B400FEFDCF8091D8008C
:1045D0008F7D8093D8008091E1008F7E8093E100F1
:1045E0008091E2008F7E8093E2008091E200816002
:1045F0008093E2008091BA02882311F084E007C022
:104600008091E30087FD02C081E001C083E08093D8
:10461000BE020E94D31E8091E10083FF29C08091D9
:10462000E20083FF25C08091E100877F8093E10055
:1046300082E08093BE021092BA028091E1008E7FE8
:104640008093E1008091E2008E7F8093E200809170
:10465000E20080618093E20042E060E080E00E943E
:1046600074218091F00088608093F0000E94C71E42
:10467000FF91EF91BF91AF919F918F917F916F913A
:104680005F914F913F912F910F900FBE0F901F9010
:1046900018951F920F920FB60F9211242F933F93EC
:1046A0004F935F936F937F938F939F93AF93BF933A
:1046B000CF93DF93EF93FF93C091E900CF70809188
:1046C000EC00D82FD17080FDD0E81092E9008091E5
:1046D000F000877F8093F00078940E948D231092E1
:1046E000E9008091F00088608093F000CD2BCF70BE
:1046F000C093E900FF91EF91DF91CF91BF91AF910E
:104700009F918F917F916F915F914F913F912F91E9
:104710000F900FBE0F901F901895AAE2B0E0E3E94A
:10472000F3E20C943925EFEBF2E08091F1008193F4
:1047300022E0E73CF207C9F70E94F31E8091E800EF
:1047400083FF2EC18091BF029091C002492F50E09B
:104750004A30510508F024C1FA01E557FF4F0C9487
:104760002425803821F0823809F01AC108C08091D0
:10477000BB029091BC02992389F082600FC08091A6
:10478000C3028F70873008F00BC18093E9008091DD
:10479000EB0085FB882780F91092E9009091E800F2
:1047A000977F9093E8008093F1001092F100D1C0C0
:1047B000282F2D7F09F0F4C0882319F0823061F092
:1047C000EFC08091C102813009F0EAC0933009F056
:1047D00080E08093BC022EC08091C10281112AC06A
:1047E0008091C3028F702FEF280F263008F0D8C0B9
:1047F0008093E9002091EB0020FF1CC0933021F44E
:104800008091EB00806214C09091EB0090619093D6
:10481000EB0021E030E0A90102C0440F551F8A954A
:10482000E2F74093EA001092EA008091EB00886082
:104830008093EB001092E9008091E800877F8093DD
:10484000E8000E94A921ACC08111AAC01091C10248
:104850001F778091E3008078812B8093E300809123
:10486000E800877F8093E8000E94A9218091E800FA
:1048700080FFFCCF8091E30080688093E3001111FA
:1048800002C082E001C083E08093BE0289C08058EC
:10489000823008F085C08091C1029091C2028C3DA7
:1048A00053E0950779F583E08A838AE289834FB7DD
:1048B000F894DE01139620E03EE051E2E32FF0E0B1
:1048C00050935700E49120FF03C0E295EF703F5FE3
:1048D000EF708E2F90E0EA3010F0C79601C0C096BE
:1048E0008D939D932F5F243149F74FBF8091E8004E
:1048F000877F8093E8006AE270E0CE0101960E9413
:10490000B52016C06091C3027091C402AE014F5F22
:104910005F4F0E94F91FBC01892B09F441C090919F
:10492000E800977F9093E80089819A810E94132183
:104930008091E8008B778093E80032C0803881F561
:104940008091E800877F8093E8008091BA0280938D
:10495000F1008091E8008E7772CF811121C08091A3
:10496000C1029091C20299270297D4F48091E80085
:10497000877F8093E8008091C1028093BA020E94F1
:10498000A9218091BA02811106C08091E30087FDC0
:1049900002C081E001C084E08093BE020E94DE1E5E
:1049A0008091E80083FF0AC08091E800877F8093B0
:1049B000E8008091EB0080628093EB00AA96E3E030
:1049C0000C9455250895CF938091BE028823A1F0C1
:1049D000C091E900CF709091EC00892F817090FD1B
:1049E00080E8C82B1092E9008091E80083FD0E94C6
:1049F0008D23CF70C093E900CF9108950E94FB21D1
:104A00001092BE020895E8EDF0E08081806180831D
:104A10008AE18A95F1F700C08091D90081700895EC
:104A200097FB072E16F4009407D077FD09D00E945B
:104A3000612507FC05D03EF4909581959F4F089520
:104A4000709561957F4F0895EE0FFF1F0590F491CB
:104A5000E02D09942F923F924F925F926F927F9236
:104A60008F929F92AF92BF92CF92DF92EF92FF927E
:104A70000F931F93CF93DF93CDB7DEB7CA1BDB0B2A
:104A80000FB6F894DEBF0FBECDBF09942A883988CF
:104A900048885F846E847D848C849B84AA84B984D6
:104AA000C884DF80EE80FD800C811B81AA81B981E2
:104AB000CE0FD11D0FB6F894DEBF0FBECDBFED01F6
:104AC0000895AA1BBB1B51E107C0AA1FBB1FA61755
:104AD000B70710F0A61BB70B881F991F5A95A9F7A7
:104AE00080959095BC01CD010895FB01DC0104C0C7
:104AF0008D910190801921F441505040C8F7881BD6
:104B0000990B0895FB01DC0102C001900D92415008
:104B10005040D8F70895F999FECF92BD81BDF89A1B
:104B2000992780B50895A8E1B0E042E050E00C94E8
:104B3000CF25DC01A40FB51F4150504048F0CB01F8
:104B4000840F951F2E910E94AA2541505040D0F706
:104B50000895262FF999FECF92BD81BDF89A01974D
:104B600000B4021639F01FBA20BD0FB6F894FA9AB5
:104B7000F99A0FBE08950396272F0E94AA250E9436
:104B8000A925252F0E94AA25242F0C94AA25019639
:104B9000272F0E94AA250C94A925DC01CB01FC013A
:104BA000F999FECF06C0F2BDE1BDF89A319600B486
:0E4BB0000D9241505040B8F70895F894FFCF91
:104BBE0026020100000001000000000000000601B6
:104BCE0000000004070000000000002808503C0709
:104BDE00146D1EA21E9B1E941E01E200E900EA0047
:104BEE00B500B600B700CD008301CC008A0192015A
:104BFE0094012102230224022502260227022A0200
:104C0E00B300B4006F0070009F01CB019F02A002A1
:104C1E00818283E200E900EA00B500B600B700CD5C
:104C2E00008301CC008A0192019401210223022407
:104C3E00022502260227022A02B300B4006F00707A
:104C4E00009F01CB019F02A002818283946697C6CA
:0A4C5E003435F6F7313332364F02D9
:00000001FF
