:100000000C9414020C94B91C0C9431020C9431021F
:100010000C9431020C9431020C9431020C94310294
:100020000C9431020C9431020C94E4210C94B6220D
:100030000C94391B0C9431020C9431020C94310253
:100040000C9431020C9431020C9431020C94310264
:100050000C9431020C94DE1B0C9431020C9431028E
:100060000C9431020C9431020C9431020C94310244
:100070000C9431020C9431020C9431020C94310234
:100080000C9431020C9431020C9431020C94310224
:100090000C9431020C9431020C9431020C94310214
:1000A0000C9431020C9431020C943102B404B40467
:1000B000E004E00441055F054E064E066405DA05DE
:1000C000EB05EB05161788171E17E816EC16221716
:1000D000EF1625173017FA167E17FE16341702177B
:1000E0003817621706173C176C170C1742174C1776
:1000F000F3162917F6162C171117471758177817E4
:100100007A17E4161A179117CA19D019BE19C4190B
:10011000D619DC19E2191E2345233D2445233D242D
:100120009123B4233D240B241A2429001E001F0010
:100130002000210022002B0014001A0008001500E6
:100140001700E10004001600070009000A00E000A3
:100150001D001B00060019000500000000002F0014
:10016000300022522C00000000002A0035002B0035
:100170004A00230024002500260027002A001C0036
:1001800018000C00120013002D000B000D000E00D3
:100190000F00330034001100100036003700380023
:1001A0003100280021522E022E00000000004D00D8
:1001B0004C00E300E2000000000035021E021F02B6
:1001C00020022102220201000100010001000100C1
:1001D0002F0001004A004B004E004D002602010096
:1001E0000100010001000100010000000000010009
:1001F00046000100010000000000010001000100B4
:100200000100230224022502260227024C003000AE
:100210005F006000610001002E0227025C005D00AB
:100220005E002D003102010059005A005B002E00D3
:100230002D02010001000100620000000000010029
:100240000100010001000000000045003A003B00F1
:100250003C003D003E0001000100010001000100E2
:100260002F0001005000520051004F0026020100F3
:100270000100010001000100010000000000010078
:100280000100010001000000000001000100010068
:1002900001003F00400041004200430044003000A4
:1002A0000100530049004700A8002702AC00AE003F
:1002B000AB000100A90001000100010001000100E4
:1002C000AA00010001002E00010000000000010052
:1002D000010001000100000000002C034400610047
:1002E0006300740079006C002D004D0061006E0009
:1002F000750066006F0072006D0020002800350058
:1003000078003600290000000E03740073006800B6
:100310006F007200740000000403090409023B002E
:10032000020100A0FA0904000001030101000921F3
:10033000110100012244000705810308000109049E
:1003400001000103000000092111010001227B00CE
:100350000705820320000112010002000000084D81
:1003600044363501000102000105010902A10185A1
:10037000020901A1000509190129081500250195A7
:1003800008750181020501093009311581257F9524
:10039000027508810609381581257F950175088148
:1003A00006050C0A38021581257F9501750881061E
:1003B000C0C005010980A101850319012AB70015F4
:1003C0000126B700950175108100C0050C0901A137
:1003D00001850419012AA002150126A002950175C4
:1003E000108100C005010906A101050719E029E7F0
:1003F0001500250195087501810295017508810197
:100400000507190029FF150026FF009506750881CC
:1004100000050819012905150025019505750191AB
:1004200002950175039101C011241FBECFEFDAE0E0
:10043000DEBFCDBF11E0A0E0B1E0E8E9FAE402C020
:1004400005900D92AC3AB107D9F722E0ACEAB1E0E1
:1004500001C01D92A73CB207E1F70E940F140C9453
:100460004A250C9400008330B0F46C30A0F4463080
:1004700090F498E4899FF001112486E0689FE00DD4
:10048000F11D1124E40FF11DEE0FFF1FE65DFE4F7D
:1004900085919491089581E090E008950E9433023F
:1004A000089581E0089581E008950E94530208951F
:1004B0000E94550208950E945302089508950E94D3
:1004C0005E020895A6E0B0E0E8E6F2E00C94A6240F
:1004D00049835A839E833091B30189819A81311176
:1004E00015C03E81332359F0222349F00E941008A1
:1004F000182F682F89819A810E94EC0703C00E94FF
:10050000FE07182F69817A81812F04C00E9410088C
:1005100069817A810E94FC0E2696E3E00C94C22445
:10052000FC01262F408151816281738184819581F4
:100530000E9462020895CF93DF93EC0161E00E9474
:100540009002BE010E945802DF91CF910895CF938F
:10055000DF93EC0160E00E949002BE010E945F0206
:10056000DF91CF91089508950E94C3060E94B302BF
:100570002FEF84E39CE0215080409040E1F700C0E1
:10058000000008950E94B4020E94041C08950E9475
:10059000B4020E94151C08950F931F93CF93DF930D
:1005A0008C0161E00E949002EC01B8010E945B02A4
:1005B000882309F442C0B801CE010E94B2198823F1
:1005C000E1F1B801CE010E94C0168823B1F1B80153
:1005D000CE010E941819882381F1F80185818823B2
:1005E00041F1C3308CE7D807D1F040F4C115FCE7E6
:1005F000DF0791F0C130DC47A1F01BC0CB35ECE741
:10060000DE07A9F0CC35FCE7DF0771F0CA35DC471F
:1006100081F40E944C0C0DC00E94C2020EC00E94C8
:10062000540C0E94C70209C00E94420C02C00E94E2
:10063000500CC8010E94510201C080E0DF91CF91AF
:100640001F910F9108950E94121B0E944A03089562
:100650000E944E030E941B1B0895089581E0089597
:100660000895CF93DF93D82F0E942E03C82F88239D
:1006700019F08D2F0E9430038C2FDF91CF910895B8
:100680000895CF93C82F0E942D038C2F0E94310311
:10069000CF91089580E00E94410308950E94FA19C5
:1006A0000E9441030895CF930E94FA19C82F8091A8
:1006B000AE01C81779F0C093AE010E94A71B6093EA
:1006C000AF017093B0018093B1019093B2018C2F70
:1006D0000E944103CF910895ADE0B0E0E2E7F3E07E
:1006E0000C94A724488759876A877B878C879D87C6
:1006F00091110E94760BCE01019627E0FC01119228
:100700002A95E9F726E0FE013896DC0101900D926A
:100710002A95E1F72D8121110AC029813A814B8167
:100720005C816D817E818F810E94C00A04C00E941D
:100730009B028111F2CF2D96E2E00C94C324FC01C0
:100740002481213021F4808191810E944208089502
:10075000662319F00E94A71402C00E9402150E948D
:1007600079150895CF93882309F455C0C82F8CEFCD
:100770008C0F813AF8F48C2F0E94CF1881114BC056
:100780006C2F80910001909101010E947D1A8823B5
:1007900049F06C2F80910001909101010E94B61ADE
:1007A0000E94A20B6C2F80910001909101010E9488
:1007B000B31A0CC080E28C0F883058F4C77081E007
:1007C00001C0880FCA95EAF70E94590B0E94A20B3C
:1007D00022C0EBE5EC0FE33040F4F0E0EE59FE4FC1
:1007E000808190E00E94271A16C0E8E5EC0FEB31FB
:1007F00050F4F0E0EE0FFF1FE45DFE4F8081918129
:100800000E944C1A08C083E38C0F833120F461E00E
:100810008C2F0E94A803CF9108958823A9F19CEF03
:10082000980F913A40F4682F809100019091010156
:100830000E94B61A0DC090E2980F983060F487704D
:1008400091E001C0990F8A95EAF7892F0E945F0B0A
:100850000E94A20B08959BE5980F933028F480E046
:1008600090E00E94271A089598E5980F9B3128F48C
:1008700080E090E00E944C1A089593E3980F933122
:1008800018F460E00E94A80308951F93CF93DF93AC
:10089000182FEB010E94B203209741F08FE99FE0EF
:1008A0000197F1F700C000002197F6CF812F0E9439
:1008B0000D04DF91CF911F910895893319F060E005
:1008C00070E002C060E570E00E944504089588234E
:1008D00021F00E94590B0E94A20B0895882321F059
:1008E0000E945F0B0E94A20B0895A0E0B0E0EBE72E
:1008F000F4E00C94A1247C01162FC72FFC01D581B4
:10090000068102950F700E944F0B8823E9F0DD23CA
:10091000D9F08C2F807F803451F080E2810F8830B5
:1009200098F0011104C08C2F807E803269F0809194
:100930009B0282FF09C082E00E94160C0E944F0BAE
:1009400091E0D82ED92601C0D12CCC2EC2948FE0B4
:10095000C8228C2D90E08C30910508F09FC1FC01DD
:10096000EA5AFF4F0C9491248C2F807FCF708823FC
:1009700011F0C295C07FDD2399F0CC2309F47AC130
:1009800080E2810F883010F0111104C08C2F0E947A
:10099000590B03C08C2F0E94690B0E94A20B6AC1E5
:1009A000812F0E940D04CC2309F478C180E2810FCD
:1009B000883038F1112329F18C2F0E946F0B24C04D
:1009C0008C2F807FCF70803211F0C295C07F1123B1
:1009D00019F0113099F13CC080919B0282FD17C043
:1009E000DD2349F0CC2329F08C2F0E94590B0E9463
:1009F000A20B80E040C180E00E940D04CC2309F4EA
:100A00004DC18C2F0E945F0B0E94A20B47C1DD23BA
:100A100049F0002309F1013009F040C18C2F0E94F8
:100A2000800B3CC101113AC18C2F0E946E048C2FA7
:100A30000E948C0B8C2F0E94E90B30C1DD2321F02A
:100A4000063008F02BC108C0053008F027C115C0DA
:100A5000DD2331F001110EC18C2F0E9467041EC1ED
:100A6000002359F0193309F016C1FFEF27EE83E098
:100A7000F15020408040E1F70CC18C2F0E946E04A1
:100A80000DC18C2F86958695837019F0813061F0A9
:100A900005C1DD2321F0812F9C2F937002C080E0DF
:100AA00090E00E94271A02C1DD2321F0812F9C2FA4
:100AB000937002C080E090E00E944C1AF7C06D2F46
:100AC000812F0E94A803F2C08C2F8370B1F5D11141
:100AD000E9C0412F429546954770440F440F812F3E
:100AE0008F7090E09C01042E02C0220F331F0A94E5
:100AF000E2F714FF0AC08FE090E002C0880F991F50
:100B00004A95E2F78095909502C080E090E0C69506
:100B1000C695C370822B932BC23049F058F4C13074
:100B200019F00E941F07BEC00E941607BBC00E949A
:100B30002807B8C00E941307B5C0DD2319F08C2F19
:100B4000817001C08695882309F4ACC0412F42957D
:100B500046954770440F440F812F8F7090E09C01A1
:100B6000042E02C0220F331F0A94E2F714FF0AC0BA
:100B70008FE090E002C0880F991F4A95E2F78095B8
:100B8000909502C080E090E0C695C695C370822B18
:100B9000932BC23049F058F4C13019F00E948707F6
:100BA00081C00E947E077EC00E9490077BC00E9489
:100BB000340778C0CF70DD2339F08C2F0E944C07AA
:100BC000812F0E9467046EC0812F0E946E048C2FBB
:100BD0000E945C0767C0123F21F128F4103F41F0EA
:100BE000113FC1F043C0133F19F1143F79F03EC0EB
:100BF000DD2341F0053008F051C08C2F8F710E9429
:100C00006E074CC0063008F049C0F7CF80919B02B8
:100C100082FD18C0DD2339F08C2F8F710E944C07A4
:100C20003DC0DD23C9F38C2F8F710E945C0736C055
:100C3000DD2329F08C2F8F710E9440072FC00E9466
:100C40003B072CC0DD2349F0CF718C2F0E944C074D
:100C500063E08C2F0E94F80B21C081E00E94160CEB
:100C60000230E0F082E00E94160C18C0DD2331F063
:100C7000002391F2812F0E94B20310C0002399F249
:100C8000193349F49FEFE7EEF3E09150E040F04074
:100C9000E1F700C00000812F0E940D0488EF8C0D49
:100CA000843020F40E94FA190E944103DD2089F06B
:100CB0000E944B0B80FD0DC0F70115820E94450B71
:100CC0000E944C07C7010E9486060E94450B0E94A5
:100CD0005C07CDB7DEB7E8E00C94BD240F931F93FB
:100CE000CF93DF93EC01688179818D810E944D085B
:100CF0008C010E9499070E940407B801CE010E944E
:100D00007504DF91CF911F910F910895CF93DF93D9
:100D1000FC0124812223D1F0EC010E94CC0281113C
:100D20000FC00E944F0B882389F08D81882371F0BA
:100D300080919B0282FF0AC082E00E94160C06C0CE
:100D4000CE010E946E06CE010E94A702DF91CF91D4
:100D5000089580E090E00E94271A80E090E00E94D1
:100D60004C1A0E94760B0E94A20B0E9498150E94BA
:100D70007915089580910001909101010E94B91A9E
:100D80000E94A90608950E94660B0E94BA06089563
:100D900092959F70963079F010F4925001C09A505D
:100DA000923068F4803F69F018F4883E40F409C03E
:100DB000843F29F406C0883E20F0813F11F080E096
:100DC000089581E00895FC012481222339F0808177
:100DD00091810E9442080E94C806089580E008950B
:100DE000A6E0B0E0E6EFF6E00C94A7242696E2E059
:100DF0000C94C324A7E0B0E0E0E0F7E00C94A72453
:100E00002796E2E00C94C324089508950E940507F4
:100E100008950E94060708950E9409079093DB0138
:100E20008093DA0108950E940C0708952091DA0159
:100E30003091DB01822B932B0E940C0708952091A7
:100E4000DA013091DB01822393230E940C0708957D
:100E50002091DA013091DB01822793270E940C0751
:100E600008950E94050708950E9431079093D901C3
:100E70008093D801089580E090E00E94340708959F
:100E800021E030E0A90102C0440F551F8A95E2F726
:100E9000CA010E943407089521E030E002C0220F09
:100EA000331F8A95E2F78091D8019091D901822B66
:100EB000932B0E943407089521E030E002C0220FF6
:100EC000331F8A95E2F7209530958091D801909153
:100ED000D901822393230E943407089521E030E052
:100EE00002C0220F331F8A95E2F78091D8019091BA
:100EF000D901822793270E94340708952091D801B1
:100F00003091D901822B932B0E94340708952091B0
:100F1000D8013091D901822393230E943407089588
:100F20002091D8013091D901822793270E9434075C
:100F300008950895962F9770A1E001C0AA0F9A9581
:100F4000EAF793E0769567959A95E1F7660F771F34
:100F5000660F771FFA01E60FF71F40E050E0682F99
:100F600070E090819B01042E02C0369527950A946B
:100F7000E2F72170219529272A23292721934F5F02
:100F80005F4F4430510569F70895FB01782F777062
:100F900023E0969587952A95E1F7880F991F880F8A
:100FA000991FE80FF91F40E050E080E0219130E008
:100FB000072E02C0369527950A94E2F72170332751
:100FC000042E01C0220F0A94EAF7822B4F5F5F4F75
:100FD0004430510559F70895282F9C3070F486301D
:100FE00060F4862F622F70E026E0929F600D711DE5
:100FF000112444EB51E00E949A0708959C3070F44C
:10100000863060F4292F90E064EB71E036E0239F96
:10101000800D911D11240E94C507089580E0089558
:10102000A0E0B0E0E6E1F8E00C94A0247C0100919F
:10103000D8011091D9018091DA019091DB01082B40
:10104000192BCFE0D0E0CC24C394D12CC6010C2EB8
:1010500002C0880F991F0A94E2F780239123892BFD
:1010600021F4219798F7B12C07C0BC2EB7018C2F23
:101070000E94080F0197A9F38B2DCDB7DEB7E9E0E9
:101080000C94BC24CF93DF93EC010E941008BE01A6
:101090000E94080FDF91CF9108951F93CF93DF93A4
:1010A000EB019091B301992321F0CB010E944208FA
:1010B00013C0882349F0CB010E941008182F682F15
:1010C000CE010E94EC0704C0CB010E94FE07182F3E
:1010D000BE01812F0E94080FDF91CF911F910895CB
:1010E0001F93CF93DF93C091DC0117E08091DD0166
:1010F000C817A1F0D0E01C9FF0011D9FF00D112436
:10110000E252FE4F20813181428153816481758199
:1011100086810E94FA062196C770E8CFDF91CF91B1
:101120001F910895209116023091170240911802E4
:101130005091190260911A0270911B0280911C0259
:101140000E94FA060895CF93DF9380911C02829546
:101150008F7009F04EC080911B02882309F449C0AA
:101160008091DC014091DD015091170260911602DF
:10117000C0911802D091190277E08417D1F190E064
:10118000789FF001799FF00D1124DF01A252BE4F2C
:1011900014962C911497222349F111962C911197B2
:1011A000251324C02C91261321C015962C91159738
:1011B00021111CC012962D913C9113972C1B3D0BB5
:1011C000283C310598F480911C028F7080618093D7
:1011D0001C02EC51FE4F80818F708061808386E11C
:1011E00092E00E9486060E94700803C001968770F4
:1011F000C4CFDF91CF9108952091DC019091DD0162
:1012000057E02917A9F030E0529FF001539FF00DED
:101210001124E252FE4F7181761306C0708178135B
:1012200003C07581741306C02F5F3F4F2770E9CF4D
:1012300080E0089581E00895A4E1B0E0E2E2F9E001
:101240000C949D248C0186E0F801DE011F9601902C
:101250000D928A95E1F7F8018481E58096E1A92E47
:1012600092E0B92E90911A02911118C0882309F4C6
:1012700080C1EE20D9F1C8010E94E306F82E882330
:10128000A9F187E0F801D50101900D928A95E1F767
:10129000C5010E949F030E94A30898C0F801C08066
:1012A000D18082809380F0901B02209118023091AF
:1012B0001902A401421B530BFF2009F406C1483C4C
:1012C000510508F0AFC0882309F455C180911C0274
:1012D000282F207F90911702222361F09D1509F499
:1012E00062C0C8010E94E306811173C0C8010E9458
:1012F00086063FC19D1115C0909116029C1111C028
:10130000E1100FC08F70806180931C020E949208D0
:1013100086E192E00E94860680911C02F801868395
:1013200026C1E1103AC040E06D2D8C2D0E94FC08D2
:1013300040E06D2D8C2D0E94FC08E82E811117C114
:10134000CF86D88A8F8598890E944208292F2295B6
:101350002F70243020F49F70223028F009C02A50CA
:10136000223080F014C0992349F0811107C013C0C6
:10137000992321F0F8019681907F69F0805E883092
:1013800030F409C0803F38F0815F833020F0C8011D
:101390000E948606EF2CFE2CEEC080911C0281601C
:1013A00080931C02E4C0909116029C119ACFE11028
:1013B00098CFF8018683C8010E94860687E0F8016D
:1013C000A6E1B2E001900D928A95E1F70E949208A1
:1013D000D2C0EE2009F48ACF20911C02822F829580
:1013E0008F7090E002978CF0809116029091170216
:1013F000998788879B868A8680911A028C871D86AA
:101400002E87CE0108960E94860687E0F801A6E1A5
:10141000B2E001900D928A95E1F70E94A3080E9424
:101420009208A7C090911C02292F207FA1F4682D5B
:101430009A8A898AA6017A899E2D0E94F00686E101
:1014400092E00E94860687E0F50111928A95E9F7FD
:101450000E9492088CC0882309F48DC080911702E5
:101460008D1111C0809116028C110DC0E1100BC0BE
:10147000F8019683C8010E94860687E0F501119263
:101480008A95E9F778C0C8010E94E306882309F429
:101490002DCFEE2009F42ACF20911C02822F8295B5
:1014A0008F7090E002970CF4B0CF8091160290916B
:1014B00017029A8389839C828B8280911A028D8382
:1014C0001E822F83CE0101969ECF483C510508F025
:1014D00040C0882309F44DC0FE2CEE2009F406CF4D
:1014E000809117028D1127C0809116028C1123C0A4
:1014F00090911C0290FD16C0892F82958F70282F25
:1015000030E02115310571F0F80196832F30310557
:1015100009F451CF8F5F982F9295907F86818F70BD
:10152000892B48CF87E0F801A6E1B2E001900D9247
:101530008A95E1F720C0C8010E94E306811165CFBA
:1015400080911C02816080931C02C8010E94860663
:1015500012C0682D9A8A898AA6017A899E2D0E94D6
:10156000F00687E0F50111928A95E9F72FCFF12C6B
:1015700002C0FF24F3948F2D6496ECE00C94B92400
:10158000AEE0B0E0E6ECFAE00C94A62428873987B8
:101590004A875B876C877D878E87CE0108960E947D
:1015A0001C09882361F06C856623A9F1288539859B
:1015B0004A855B857D858E850E94FA062CC087E072
:1015C000FE013896DE01119601900D928A95E1F7A1
:1015D0006C85662301F12091DD0130E0C90101969F
:1015E000877099274091DC0150E084179507E1F15D
:1015F0006D8397E0929FD001939FB00D1124A2526A
:10160000BE4FFE01319601900D929A95E1F78093BD
:10161000DD010E94700817E08091DC019091DD01EE
:10162000891779F1189FC001112482529E4F0E94A0
:101630001C09882331F1E091DC011E9FF001112487
:10164000E252FE4F20813181428153816481758154
:1016500086810E94FA068091DC0190E001968770F5
:1016600099278093DC01D8CF0E94C3061092DD0138
:101670001092DC01E6E1F2E087E0DF011D928A953D
:10168000E9F72E96E3E00C94C2248091250286951A
:10169000869586950895809125028770089590918A
:1016A0002502977081E009F480E00895809131026D
:1016B000089590913102892B80933102089580958D
:1016C0009091310289238093310208951092310262
:1016D000089590913002892B80933002089580956F
:1016E0009091300289238093300208951092300245
:1016F000089508950E94790B08950E947A0B089529
:1017000090912702292F2823821729F0982B909354
:1017100027020E947D0B089590912702292F2823EC
:1017200031F080958923809327020E947D0B0895D4
:1017300080912702882329F01092270280E00E94DE
:101740007D0B0895CF93DF93E0910001F0910101AB
:10175000809131028083E0910001F091010190813C
:1017600080913002892B808380912702882381F029
:10177000E0910001F09101019081892B808380919B
:101780000001909101010E94711A81110E94980B31
:10179000C0910001D091010148E050E06DE172E09C
:1017A000CE010E94E224892B59F088E0FE01ADE1D0
:1017B000B2E001900D928A95E1F7CE010E940E1AD7
:1017C000DF91CF9108950E94790B08950E94E30B59
:1017D000089590912602292F282331F0809589239E
:1017E000809326020E94E60B08950E94790B0895CB
:1017F00090919B0292FF11C098E0899F9001112463
:10180000262B209325020E944C0780912502869565
:10181000869586950E94F50B08950E944C070895C1
:101820001092250280E00E94F50B08959091250208
:101830008095892380932502282F277069F49817B3
:1018400059F090919B0292FF07C0869586958695E8
:101850000E945C070E94100C089590919B0292FBDD
:10186000222720F9281769F080FB92F990939B02B8
:1018700080919A0290919B020E94750C82E00E94D6
:10188000160C089580919B0282FB882780F991E0D5
:1018900089270E942D0C089581E00E942D0C089547
:1018A00080E00E942D0C08956FEF7FEF80E090E0C4
:1018B0000E943425089580E090E00E94002521E0F8
:1018C000863E9E4F09F020E0822F089582E090E04E
:1018D0000E94F824089583E090E00E94F82408957F
:1018E00084E090E00E9400250895BC0184E090E02F
:1018F0000E9434250895AB01BC018FE090E00E9466
:1019000028250895AB01BC0183E190E00E942825C1
:10191000089560E070E0CB010E94820C089560E0C1
:1019200070E0CB010E947B0C0E94890C0895A8E016
:10193000B0E0EDE9FCE00C94A72466EE7EEF80E0D9
:1019400090E00E94342560E082E090E00E9416253D
:1019500060E083E090E00E9416251092DB01109277
:10196000DA0160E074E184E090E00E94342560E0F8
:1019700086E090E00E9416256FEF87E090E00E94DD
:10198000162540E050E0BA0188E090E00E9428254A
:1019900060E084E290E00E94162560E087E190E03C
:1019A0000E94162560E08CE090E00E94162560E021
:1019B0008DE090E00E94162519821A821B821C82FB
:1019C0001D821E821F82188648E050E068E170E0A8
:1019D000CE0101960E94062540E050E0BA0180E267
:1019E00090E00E9428250E948F0C2896E2E00C943B
:1019F000C3240E94970C0895682F8EE090E00E9407
:101A000016250895A6E0B0E0E8E0FDE00C94A524DA
:101A10000E949B1B8C018091320290913302081727
:101A2000190781F019821A820E949B1B682F498135
:101A30005A81792F80E090E00E946C03109333026A
:101A4000009332022696E4E00C94C1240E941E10FA
:101A5000609344027093450280934602909347023C
:101A6000609340027093410280934202909343023C
:101A7000089581E008950E940612089508950E9435
:101A80003E0D08950E943E0D08950E94420D089556
:101A90000E943E0D08950E94480D08950E943E0D3B
:101AA000089588E390E10E941C140E944E0D0E944C
:101AB0004B0D08950E943F0D0E943E0D08950E9417
:101AC0003B100E94400308950E94921B0E94F80F51
:101AD0000E9421120E9469110E945F0D0E94A816A7
:101AE0000E942B120E94450D0895A6E0B0E0EBE79E
:101AF000FDE00C949E240E94390D811103C00E94C8
:101B0000020D53C00E948E1184E3E82E82E0F82E6D
:101B1000670100E0F60111916F01802F0E945910BA
:101B200081270F5F0C3019F08823A1F302C08823AE
:101B300031F38091480281FD0E945F100E943B0DAD
:101B4000A82E10E099249394812F0E945910B82E4A
:101B5000F701C080C82609F100E0DD24D3948C2D64
:101B60008D21A9F0AA2099F009831A830E949B1B5A
:101B70009C838B839D8291E08B2D8D2109F490E0D5
:101B800049815A816B817C818D810E946C030F5F3A
:101B9000DD0C063021F7F701B0821F5FFFEFEF1A6F
:101BA000FF0A1C3089F60E94260D0E9406120E9430
:101BB000BA150E9453032696EBE00C94BA241F93A7
:101BC000CF93DF930E940D0FEC01C11580E5D8077C
:101BD000E8F5C11590E4D90708F0A8C0C03ED105CA
:101BE00030F5CD3CD10508F094C0C83AD10578F461
:101BF000C53AD10508F083C0C130D10509F47CC0D5
:101C000008F4F2C0C430D10508F0F1C0EDC0C33C07
:101C1000D10508F0E9C0C85AD0E0CC0FDD1FCB5980
:101C2000DE4F0990D881C02DCE019464E1C0C1156A
:101C300080E2D80708F0CBC0C11591E0D90708F0C1
:101C40006BC0C83ED10508F4D2C0CEC0C03682E514
:101C5000D80728F5C03492E5D90708F079C0C0321A
:101C600082E5D80708F06CC0C11592E5D90708F4E1
:101C700081C04C2F4695469580E2489FA0011124D3
:101C8000C37021E030E0C90102C0880F991FCA95D6
:101C9000E2F7EA01C82BD92BCE019D68A9C0C03A52
:101CA00082E5D807B8F48C2F8F71C03892E5D90738
:101CB00008F07BC08695869590E2899F900111245B
:101CC000C37081E090E002C0880F991FCA95E2F7C7
:101CD0009A6868C0C03C82E5D80708F46DC0C03E71
:101CE00092E5D90708F080C0CF71DD27DC2FCC2723
:101CF000CE01806F906A7CC081E090E079C0C55AC7
:101D0000D0E0C556DE4F8881C82FD0E0CE01906468
:101D10006FC0CE0190656CC08D2F0E94A90F182F47
:101D2000CE0199270E940D0F1F715CC0CE0199272B
:101D30000E940D0FCC27DF70D06A8C2B9D2B58C0D2
:101D4000CF71D0E0DC2FCC27CE01816F906A50C0DC
:101D50008C2F8F718695869590E2899F9001112432
:101D6000C37081E090E002C0880F991FCA95E2F726
:101D70009C6818C08C2F8F710E94A90F95E0D69592
:101D8000C7959A95E1F7CF70D0E0DC2FCC27282FAC
:101D900030E084FF05C084E0220F331F8A95E1F70D
:101DA000D069CE01822B932B23C090E0D82FCC2773
:101DB000CE01846F906A1CC08C2F8F710E94A90F76
:101DC0008F7190E0D82FCC27CE01906211C08D2F5B
:101DD0008F710E94A90F182FCE0199270E940D0F15
:101DE0001F719062912B04C080E090E001C0CE0191
:101DF000DF91CF911F9108957C3038F4663028F43C
:101E0000462F672F0E944E02089580E090E00895CB
:101E10000E94FC0E0E94DF0D08958238910569F141
:101E2000B0F48133910509F475C048F48932910505
:101E300009F467C08A32910509F471C008958533A9
:101E4000910509F459C089339105B9F00895833E8D
:101E5000910589F138F4803E9105D1F0823E9105DB
:101E600029F10895863E9105C9F1873E9105D9F182
:101E7000843E910509F06CC027C020919A0220FD94
:101E800057C021FD55C020919B0223FD5BC00895E2
:101E900080919A0280FD48C080919B0280FF48C0DB
:101EA00080919A0284FD46C083EE51C080919A02CF
:101EB00082FF3CC0F5CF80919A0282FD37C08091AD
:101EC0009B0280FD35C0ECCF80919B0281FF36C024
:101ED00080919A0284FD2EC087EE39C080919A02CB
:101EE00083FF2AC0F5CF80919A0283FD25C080919F
:101EF0009B0281FD23C0ECCF80919A0285FD22C018
:101F00001FC080919A0285FD1BC080919B0283FFB8
:101F100019C00AC080919A0286FD16C017C0809130
:101F20009A0286FD13C010C089E311C082EE0FC073
:101F300080EE0DC080E00BC086EE09C084EE07C0C5
:101F400085E305C089E203C08AE201C081E390E035
:101F5000089590919A0292FF10C041E0282F2471B9
:101F6000243009F040E031E0282F2871283009F0B2
:101F700030E0431711F02CE0822793FF10C041E0BE
:101F8000282F2471243109F040E031E0282F2871F6
:101F9000283109F030E0431711F02CE0822730910E
:101FA0009B0230FF10C051E0282F2171213009F031
:101FB00050E041E0282F2871283009F040E0541704
:101FC00011F029E0822731FF10C041E0282F217154
:101FD000213109F040E031E0282F2871283109F043
:101FE00030E0431711F029E0822794FD877E0895A1
:101FF00010929602109297021092980210929902F3
:102000000895CF92DF92EF92FF926B017C010E94C4
:10201000061281110EC00E94A71BC61AD70AE80A31
:10202000F90AC0929602D0929702E0929802F0923A
:102030009902FF90EF90DF90CF9008950F931F9338
:102040000E940612882319F00E94A71B0EC00E944E
:10205000A71B00919602109197022091980230914F
:102060009902600F711F821F931F1F910F91089596
:1020700080E0089508950E945B0C811102C00E94C7
:10208000F90C0E94660C809348020E94700C909399
:102090009B0280939A020E943A100E946B0C90E07F
:1020A0000E9413078091D8019091D9010E943107B5
:1020B0000895E82FF0E0E755FD4F808108950895D9
:1020C00080EA8A95F1F7089500C008950E94601093
:1020D000089508950E94691008950E946A10089555
:1020E0000E94691008950E94701008950E9469105E
:1020F0000895A6E0B0E0EFE7F0E10C94A4240E947C
:1021000006126091B5028823E9F186E0F82E8E016F
:102110000F5F1F4FF8018F2D11928A95E9F7862FD7
:1021200090E0B80187559D4F0E943912882389F0AD
:1021300080919C0290E046E050E0B80187559D4FA9
:102140000E94E22421E020934902892B61F410E0EF
:1021500016C0809149028823D1F3F8011192FA94B4
:10216000E9F710924902A0919C02B0E0A755BD4F3B
:1021700086E0F80101900D928A95E1F711E00E9446
:102180006D100DC070E067557D4F80919C0290E00E
:1021900087559D4F0E94C2120E94761010E0812F39
:1021A0002696E5E00C94C024F894E82FE295EF70B1
:1021B000F0E031A1282F2F7081E090E001C0880F5E
:1021C0002A95EAF7982F9095932391A392A1892BB2
:1021D00082A3789408950F931F93CF93DF93C4EA5B
:1021E000D1E089918F3F11F00E94D41081E0CA3A6A
:1021F000D807B9F7CEE9D1E004EA11E089918F3F21
:1022000011F00E94D4100C171D07C1F7DF91CF9178
:102210001F910F910895A0E0B0E0E1E1F1E10C948D
:10222000A1248C01C62FD0E0CE018C559E4F7C019D
:10223000FC0190819F3F09F447C0D62EF894E92F06
:10224000E295EF70F0E081A19F7021E030E001C0E5
:10225000220F9A95EAF7822B81A382A12095282349
:1022600022A378940E946410EEE9F1E044EA51E080
:1022700031E0C12C21912F3F89F0A22FA295AF70A0
:10228000B0E090968C9190E02F7002C09595879564
:102290002A95E2F780FD02C0832F01C080E0C82AA2
:1022A000330F4E175F0731F7F70180818F3F11F031
:1022B0000E94D41061E0C11001C060E08D2D0E9429
:1022C0006610C00FD11FC882CDB7DEB7E8E00C940E
:1022D000BD248091020180910201811102C096E02B
:1022E00001C090E09093B50286E0891B80939C0228
:1022F0000E94EB108CE0E9EAF2E0DF01982F1D92DA
:102300009A95E9F7EDE9F2E0DF011D928A95E9F788
:1023100086E00E94CC110E9473100895ACE0B0E0FA
:10232000E4E9F1E10C94A4248E010F5F1F4F8CE0CF
:10233000F80111928A95E9F7F12C6F2DC8010E94DE
:102340000B11F394F6E0FF12F8CF4CE050E0B80127
:102350008DE992E00E94E22421E0009709F420E058
:10236000892B41F08CE0F801ADE9B2E001900D92CB
:102370008A95E1F76091B50270E067557D4F46E0C0
:102380008DE992E00E94CD11182F0E947910812BC7
:102390002C96E5E00C94C0240895EF92FF920F93E1
:1023A0001F93CF93DF937C018B01C42F222349F02D
:1023B00081E080934C020E949B1B90934B02809380
:1023C0004A0280914C02811102C080E01AC08091C3
:1023D0004A0290914B020E94B31B0597B0F3D0E0E4
:1023E000AE01B701C8010E94E224892B39F0AE0189
:1023F000B701C8010E94EF2481E001C080E0109283
:102400004C02CDB7DEB7E6E00C94BF2480914F02BA
:1024100081110DC00E947024811102C082E001C0B0
:1024200081E080934F02823011F40E946B2481E09E
:1024300090914F02913009F080E008950E940612B9
:1024400008950E941E12809302010E9406128111BB
:102450000E94711208950E940612811102C00E940A
:102460007412089581E0909150029A3008F080E053
:1024700008950F931F93CF93DF93EC018B0180910D
:1024800050028A3038F4B801CE010E94BF12811187
:102490001DC00AC080914D0290914E020E94B31B54
:1024A000843F914080F715C0809150028F3F19F012
:1024B0008F5F80935002809150028A3060F00E94BA
:1024C0009B1B90934E0280934D0203C010925002CA
:1024D00002C080E001C081E0DF91CF911F910F9198
:1024E00008950E94741C08950E94771C0895A0E02E
:1024F000B0E0EDE7F2E10C94A2247901C82F880F37
:10250000DD0B41155105A9F0FE0193E0EE0FFF1F11
:102510009A95E1F7ED5FFE4F818192818F5A9D4F31
:10252000208130E04217530708F49A01A9010E9464
:10253000EF24CE010E945F1DD82E8823D1F0011513
:102540001105B9F083E0CC0FDD1F8A95E1F7FE019C
:10255000ED5FFE4F438150E00417150708F4A80112
:10256000CD5FDE4F6C817D816F5A7D4FC7010E9428
:10257000EF248D2DCDB7DEB7E7E00C94BE240E948A
:10258000B41308950E94CB130895A4E0B0E0EBECDF
:10259000F2E10C94A52460916A0270916B02809123
:1025A0006C0290916D020E94C21B64367105810518
:1025B000910528F10E941E10DC01CB010296A11D9D
:1025C000B11D89839A83AB83BC8300E010E020E0D7
:1025D00030E044E050E0BE016F5F7F4F82E00E9438
:1025E0007712182F882361F00E94A71B60936A025C
:1025F00070936B0280936C0290936D0201C011E0A6
:10260000812F2496E4E00C94C124A0E0B0E0EBE03C
:10261000F3E10C949F247C015B016A010E94321259
:10262000811103C001E010E002C00AE010E0C1E047
:10263000D0E0B501C701F6010995811115C02196B9
:102640000C171D0794F0CC9F9001CD9F300D300DDD
:10265000112480E090E045E34A95F1F700000196EF
:1026600082179307C1F7E5CF81E0CDB7DEB7EAE087
:102670000C94BB24A7E0B0E0E0E4F3E10C949F24C9
:102680007B01C090AA01D090AB0101E010E09E0157
:10269000295F3F4F40E050E060E070E080E00E9442
:1026A0007712182F882309F43EC056018FEFA81A1D
:1026B000B80A6091660270916702809168029091F9
:1026C00069020E94C21B643671058105910518F1EB
:1026D00006E010E09E012F5F3F4F40E050E060E0D9
:1026E00070E081E00E947712182F66E070E0C5016B
:1026F0000E94A91691E02F81281390E0192339F147
:102700000E94A71B60936602709367028093680221
:102710009093690211C066E070E0C5010E94A9169D
:102720009F818913D5CF86E0F6013196DE0111969F
:1027300001900D928A95E1F7112349F086E0FE01A0
:102740003196A0E6B2E001900D928A95E1F786E01D
:10275000E0E6F2E0D70101900D928A95E1F7812F32
:102760002796EAE00C94BB240F931F93CF93DF933B
:10277000EC018B014AE353E10E940513882331F0F9
:1027800045EC52E1B801CE010E940513DF91CF91D3
:102790001F910F9108950F931F93CF93DF93C091D3
:1027A000AA01D091AB01CE01019626E0FB01DC012C
:1027B00001900D922A95E1F766E070E00E94A9165B
:1027C00088836F81788589859A8500915C02109154
:1027D0005D0220915E0230915F02601771078207EF
:1027E000930751F060935C0270935D0280935E02E8
:1027F00090935F020E940110DF91CF911F910F9182
:1028000008950E94391F0E94640D0E94461F08957A
:102810000E944B1F0E94750D0E94651F08950E9423
:10282000321B0E941F1F0E94510D0E9401140E9422
:1028300008140E945A0DFBCF9093AD018093AC0118
:102840000895282F35EB2303C001112497FF03C0FF
:102850008058910902C080589F4F892F0895809118
:10286000740280FF06C06091200170E0660F771F40
:1028700026C081FF04C06091200184E005C082FF72
:1028800007C06091200188E0689FB001112417C043
:10289000909173029923D1F060911F01961788F7E8
:1028A0002091200188E0289F90011124929FA0018F
:1028B000939F500D112470E0CA010E947D2460385E
:1028C000710540F46115710519F406C068E070E007
:1028D000862F08958FE7089581E00895809174020E
:1028E00080FF08C060911C0170E075956795759533
:1028F000679521C081FF06C060911C0170E075954D
:10290000679519C082FF04C060911C0170E010C07F
:1029100090917202992399F060911B019617A0F78C
:1029200080911C01899FC001112470E00E947D24C8
:102930006038710540F46115710519F406C061E055
:1029400070E0862F08958FE7089581E008958D3C0B
:1029500021F40E942F14819504C08E3C29F40E941A
:102960002F148093780208958F3C21F40E942F1435
:10297000819504C0803D29F40E942F148093770232
:102980000895893D19F40E946E1405C08A3D31F402
:102990000E946E1481958093790208958B3D21F4F5
:1029A0000E946E14819504C08C3D29F40E946E141F
:1029B00080937A0208959FE2980F983078F421E08E
:1029C00030E0A90102C0440F551F9A95E2F7CA01F1
:1029D00090917602892B8093760208958D3D21F4A3
:1029E0008091740281600BC08E3D21F4809174024D
:1029F000826005C08F3D29F48091740284608093C9
:102A0000740208958D3C39F49091780297FF35C097
:102A10001092780259C08E3C29F4909178021916D0
:102A2000BCF32BC0909177028F3C29F497FF25C00F
:102A30001092770249C0803D19F41916CCF31DC0DD
:102A400090917902893D29F41916BCF4109279020B
:102A50003BC08A3D19F497FF10C0F8CF8B3D39F485
:102A600090917A0297FF09C010927A022DC08C3D96
:102A700021F490917A021916BCF39FE2980F9830D6
:102A800080F421E030E0A90102C0440F551F9A955F
:102A9000E2F7CA01809590917602892380937602AD
:102AA00013C08D3D21F4809174028E7F0BC08E3D4A
:102AB00021F4809174028D7F05C08F3D29F48091AF
:102AC00074028B7F8093740280917702811106C01B
:102AD00080917802811102C0109273028091790274
:102AE000811106C080917A02811102C01092720297
:102AF00008950E949B1B20917702211104C0209110
:102B00007802222321F09093710280937002209129
:102B10007902211104C020917A02222321F090939E
:102B20006F0280936E0285E792E00E94191A089561
:102B3000E5E7F2E086E0DF011D928A95E9F7109261
:102B4000730210927202109274020895FC01828145
:102B500081110DC0838181110AC08481811107C058
:102B600091E08581811101C090E0892F01C081E051
:102B700081700895A6E0B0E0E0ECF5E10C94A624A5
:102B800086E0E5E7F2E0DE01119601900D928A956C
:102B9000E1F7109277021092780210927902109267
:102BA0007A028B81811104C08C81882309F456C07C
:102BB00080917002909171020E94B31BAC019091C0
:102BC0007302992339F02091210130E02417350751
:102BD00058F044C0209122018AE0289F90011124DE
:102BE0002417350718F03AC09F3F19F09F5F909364
:102BF00073021B81112361F00E942F14111614F02F
:102C00009FEF01C091E0989F902D1124909377023F
:102C10001C81112361F00E942F14111614F09FEFF4
:102C200001C091E0989F902D11249093780280919B
:102C30007702882399F010917802112379F00E948D
:102C40002114811101C081E080937702812F0E94BD
:102C50002114811101C081E0809378028D8181115E
:102C600004C08E81882309F456C080916E02909131
:102C70006F020E94B31BAC0190917202992339F04C
:102C800020911D0130E02417350758F044C02091F1
:102C90001E018AE0289F900111242417350718F09F
:102CA0003AC09F3F19F09F5F909372021D811123DC
:102CB00061F00E946E14111614F09FEF01C091E0B4
:102CC000989F902D1124909379021E81112361F019
:102CD0000E946E14111614F09FEF01C091E0989FAE
:102CE000902D112490937A0280917902882399F093
:102CF00010917A02112379F00E942114811101C0F0
:102D000081E080937902812F0E942114811101C0FA
:102D100081E080937A02BE016F5F7F4F85E792E08A
:102D20000E94C01A811105C085E792E00E94A61595
:102D300081110E94791586E0FE013196A5E7B2E087
:102D400001900D928A95E1F72696E3E00C94C22457
:102D50000895FC01680F791F8FEF91E3E617F707DD
:102D600071F02191822728E030E087FF03C0880FAF
:102D7000892701C0880F21503109B9F7EFCF089595
:102D8000CF93DF93FC01DB0115968C91882309F426
:102D9000DDC09F0130572332310508F0D8C0EF0164
:102DA0000E94700C90939B0280939A02FE01E15066
:102DB000F047E232F10520F4EE59FF4F0C949124D4
:102DC00080919A028160AAC080919B028860B2C003
:102DD00080919A028260A2C080919A0220C0809164
:102DE0009A0288609BC080919B021EC080919B02CA
:102DF0008260A0C080919A02806190C080919A0206
:102E000080628CC080919A02806488C00E94C30650
:102E100080919A02806882C080919A028860846062
:102E20007DC080919B028260816084C080919A0203
:102E30008E7F74C080919B02877F7CC080919A02B4
:102E40008D7F6CC080919A0220C080919A02877F0A
:102E500065C080919B021EC080919B028D7F6AC0DD
:102E600080919A028F7E5AC080919A028F7D56C0BF
:102E700080919A028F7B52C00E94C30680919A0271
:102E80008F774CC080919A02877F8B7F47C080915B
:102E90009B028D7F8E7F4EC080919A0282FB2227FB
:102EA00020F991E0922790FB82F990FB83F936C0DC
:102EB00080919B02982F909591708E7F892B90FB2B
:102EC00081F938C080919A0286FB222720F991E08F
:102ED000922790FB86F922C00E94C30680919A0235
:102EE00087FB222720F991E0922790FB87F916C0F3
:102EF00081E001C080E00E94FC0C1EC080919A021B
:102F000084FB222720F991E0922790FB84F906C0E8
:102F100080919A02982F909590FB80F980939A0265
:102F20000BC080919B0283FB222720F991E092271E
:102F300090FB83F980939B0280919A0290919B026F
:102F40000E94750C0E94C30680E001C081E0DF9101
:102F5000CF910895893289F1F0F4843171F1B0F4A0
:102F6000873009F077C081E08093220184E180936B
:102F700021018AE0809320018EE180931F0188E087
:102F800080931C0188E280931B0164C092EE980F2D
:102F90009A30F0F05FC0803509F444C028F48F34D3
:102FA00009F058C08AE03FC0813529F0823509F028
:102FB00051C081E038C08FEF36C080917D028823F8
:102FC00079F110927D0210927C0210927B0242C035
:102FD0008D5180937D02833099F038F4813069F00F
:102FE0008230D9F481E291E00DC0853099F078F01B
:102FF000863099F48BE191E005C082E291E002C055
:1030000080E291E090937C0280937B0223C08FE169
:1030100091E0F8CF8CE191E0F5CF10927D021AC0DB
:1030200080E0089586EFE0917B02F0917C0230977A
:1030300089F02081082E000C990B820F911D8F3F83
:10304000910519F014F08FEF04C097FF02C01082B1
:1030500001C0808381E008958B3109F469C058F57F
:103060008B3009F490C078F4863009F446C020F41F
:10307000853009F44CC08CC0873009F44BC08830CF
:1030800009F481C085C0803109F465C068F48E30D0
:1030900009F07EC08091480282FB222720F991E04E
:1030A000922790FB82F94DC0863109F46CC08931BA
:1030B00009F469C06DC08A32E9F060F4873209F41E
:1030C00064C028F48E3108F463C08D514FC089323A
:1030D000F1F05EC0833450F48A3308F046C0853383
:1030E00009F453C0883309F44EC052C0833409F444
:1030F0004CC04EC00E94F90C46C080914802817FAE
:103100008E7F8093480281E080937E0208950E9422
:10311000C20239C080914802982F9095917090FB1F
:1031200080F98093480291112EC0897F877F10C05B
:103130008091480281FB222720F991E0922790FBA1
:1031400081F9809348029923F1F0809148028160CF
:103150008093480218C08091480283FB222720F9FF
:1031600091E0922790FB83F9ECCF895321E030E086
:10317000A90102C0440F551F8A95E2F7CA010E94B7
:1031800013070E94C30681E0089581E090E0F7CF25
:1031900080E0089580E008950E94CA180895CF93B2
:1031A000C82F80917E02813069F038F08230C1F5FD
:1031B0008C2F0E94AA1781E039C00E94560B8232E0
:1031C00089F504C00E94560B823261F48C2F0E9454
:1031D000CC18811104C08C2F0E942C181FC081E0D4
:1031E00090E01CC08C2F0E94CA18811116C0C431F7
:1031F00089F058F4CB3089F0C031B1F482E080938B
:103200007E0288E30E94AA1708C0C93219F0C833A9
:1032100021F00AC010927E0207C081E0817006C0D2
:1032200010927E0280E002C080E0F8CFCF91089536
:10323000CF93DF9386319C4741F5EB010E94560BFB
:10324000982F8D812091000130910101882379F020
:103250009A7A81E009F480E080937F02911102C0A4
:1032600069E201C065E3C9010E94B31A0AC08091F6
:103270007F02811102C069E201C065E3C9010E94B9
:10328000B61A0E94A20B80E001C081E0DF91CF91CD
:1032900008950F931F93CF93DF93C42FD22FFC0178
:1032A00085818823B1F0409382020E949B1B9093FA
:1032B00081028093800280E28C0F883008F04DC03C
:1032C000C77081E001C0880FCA95EAF70E946704C1
:1032D00044C080918202481330C080918002909156
:1032E00081020E94B31B883C910538F510E21D0F46
:1032F000CD17B9F080E28C0F883040F4C77081E0C0
:1033000001C0880FCA95EAF70E946E04183010F5C4
:1033100081E09D2F977001C0880F9A95EAF70E946F
:103320006704802F0E945D041830B8F4D77081E0E4
:1033300001C0880FDA95EAF70AC080E28C0F883066
:1033400060F4C77081E001C0880FCA95EAF70E9457
:103350006E0403C0802F0E945D04DF91CF911F9106
:103360000F9108950F93FC01E851FC47E730F105F8
:1033700090F5CB01EC57FF4F0C94912406E221EE1F
:1033800041EE6AE17CE723C007E225EE45EE6BE102
:103390007CE71DC006E221EE40EE68E17CE717C045
:1033A00007E225EE44EE69E17CE711C006E221EE7A
:1033B00042EE6CE17CE70BC007E225EE46EE6DE1E4
:1033C0007CE705C008E221E045EE6EE17CE70E9463
:1033D000491980E008C0FB018581882319F010920B
:1033E000820201C081E00F91089590938902809339
:1033F000880208950E940612811103C08091830201
:103400000895E0918802F0918902309729F00190A7
:10341000F081E02D0995089580E00895E0918802FB
:10342000F0918902309721F00280F381E02D099517
:103430000895E0918802F0918902309739F022E0F6
:10344000DC012C930480F581E02D09950895A3E01B
:10345000B0E0EDE2FAE10C94A724209186023091CD
:10346000870228173907A1F090938702809386027C
:10347000E0918802F0918902309751F023E029838E
:103480009B838A830680F781E02DCE010196099502
:103490002396E2E00C94C324A3E0B0E0E2E5FAE175
:1034A0000C94A724209184023091850228173907B3
:1034B000A1F09093850280938402E0918802F091BC
:1034C0008902309751F024E029839B838A83068008
:1034D000F781E02DCE01019609952396E2E00C9448
:1034E000C324FC01329697E080E0915029F02191AD
:1034F0002223D9F38F5FF9CF0895662349F0FC01A9
:10350000329608962191621729F0E817F907D1F74A
:1035100080E0089581E008959C01FC0132969FEFC0
:1035200080E04191461789F09F3F19F4411101C095
:10353000982F8F5F8630A9F79F3F39F0F901E90F87
:10354000F11D97FDFA956283089508959C012A5F05
:103550003F4FFC014281461301C01282019682173F
:103560009307B9F708950E948C1A08950E94A61A2D
:103570000895029626E0FC0111922A95E9F7089534
:10358000DC01FB0111969C9111978181981321C058
:1035900012968C911297882319F09281891319C081
:1035A00013968C911397882319F09381891311C076
:1035B00015968C911597882319F09581891309C068
:1035C00014969C91992339F081E02481291304C039
:1035D00002C081E001C080E08170089508950E94DA
:1035E000EE1A089583E080938A020E94EF1A0895EC
:1035F000811102C081E001C082E080938A020E94B2
:10360000EF1A08950E94F81A089581E080938A02C3
:103610000E94EF1A08950E94051B089508950E94C4
:103620000E1B08950E940F1B08950E940E1B089503
:103630000E940E1B08950E940E1B0895CF930E94B6
:10364000181B0E948E110E94151BC0E08C2F0E9437
:103650005910811104C0CF5FCC30C1F701C081E0A7
:10366000CF91089585B7806885BF85B7806885BF8D
:1036700008951F920F920FB60F9211248F939F936C
:10368000AF93BF9380918B02811113C08091B602DA
:103690009091B702A091B802B091B9024196A11DD4
:1036A000B11D8093B6029093B702A093B802B09375
:1036B000B902BF91AF919F918F910F900FBE0F9064
:1036C0001F9018958091BE02843031F10E9423032F
:1036D00010928B0220E488E190E00FB6F894A89550
:1036E000809360000FBE2093600083B7817F846069
:1036F00083BF83B7816083BF7894889583B78E7FBB
:1037000083BF0FB6F894A89580916000886180937C
:103710006000109260000FBE08950E94C3060E94D0
:103720002803089582E084BD93E095BD9AEF97BD8C
:1037300080936E0008952FB7F8948091B60290910F
:10374000B702A091B802B091B9022FBF08952FB768
:10375000F8946091B6027091B7028091B80290918E
:10376000B9022FBF08959C014FB7F8948091B6021B
:103770009091B702A091B802B091B9024FBF821BDD
:10378000930B0895CF92DF92EF92FF922FB7F894A8
:10379000C090B602D090B702E090B802F090B902A3
:1037A0002FBFA7019601261B370B480B590BCA01E7
:1037B000B901FF90EF90DF90CF90089578941F9219
:1037C0000F920FB60F9211248F939F93AF93BF93D5
:1037D0008091B6029091B702A091B802B091B9025F
:1037E0000196A11DB11D8093B6029093B702A093DC
:1037F000B802B093B902BF91AF919F918F910F9092
:103800000FBE0F901F90189587E797E790930108D8
:10381000809300089AE088E10FB6F894A895809309
:1038200060000FBE90936000FFCF9AE088E10FB672
:10383000F894A895809360000FBE90936000FFCF2E
:103840008EE1489B02C08150E1F7489BFECF08956E
:10385000589880E28A95F1F7589A0895FC012AE079
:103860002A95F1F728E090E080E031E040E14A95C8
:10387000F1F7880F489B02C08160932700C00000C9
:1038800040E14A95F1F7215089F720E12A95F1F7B7
:1038900029B100C0000030E13A95F1F7217092277C
:1038A0002081920F90830895A1E0B0E0EAE5FCE169
:1038B0000C94A32419828C017C01E60EF11C0E15D8
:1038C0001F0551F00E94201CCE0101960E942E1C63
:1038D000F80181938F01F3CF81E09981911180E00C
:1038E0002196E6E00C94BF24509A589A0895509877
:1038F000589AE89AE9E6F0E080818C7F8083089509
:10390000615091E001C0990F6A95EAF720E031E03B
:10391000992361F0492F482319F0589A232701C0B1
:10392000589840E24A95F1F79695F2CF222311F08C
:10393000589A01C0589880E28A95F1F758980895EE
:10394000FF920F931F93CF93DF93EC018C01060F2F
:10395000111DC017D10741F0F9900E94281C68E0A2
:103960008F2D0E94801CF5CFCDB7DEB7E5E00C941B
:10397000C0241F920F920FB60F9211240F931F9322
:103980002F933F934F935F936F937F938F939F9367
:10399000AF93BF93EF93FF93CF93DF931F92CDB776
:1039A000DEB719820E94201CCE0101960E942E1CB7
:1039B000082F069506950695902F96959570202FC1
:1039C0002570920F292F237096959695920F8770E8
:1039D00089135FC0898181115CC0043008F059C02F
:1039E00080E18A95F1F7589A509A82E08A95F1F72A
:1039F00000C0589888E0089F80011124D801AD5F6D
:103A0000BE4F1696ED91FC9117973097A9F06091F3
:103A1000AA017091AB0114962D913C911597260F38
:103A2000371F11968D919C911297680F791F1396ED
:103A30004C9113978C910995F801ED5FFE4F6381CE
:103A4000662351F08091AA019091AB0124813581C8
:103A5000820F931F0E94A01C0E94281C80E18A955F
:103A6000F1F758985098589A80E18A95F1F7F80143
:103A7000ED5FFE4F6081662351F08091AA01909125
:103A8000AB0121813281820F931F0E94541C0E943E
:103A9000201C0F90DF91CF91FF91EF91BF91AF91DB
:103AA0009F918F917F916F915F914F913F912F9156
:103AB0001F910F910F900FBE0F901F9018950F93AD
:103AC0001F93CF93DF93843091050CF06DC0EC0110
:103AD000F894509A589885E08A95F1F700009C2F49
:103AE000969595702C2F2570920F892F837096953F
:103AF000969523E0CC0FDD1F2A95E1F7980F8E01F4
:103B0000092B0E94281C84E08A95F1F700C068E028
:103B1000802F0E94801C80E18A95F1F75098589A76
:103B2000489902C000C0FCCF87E090E0489B08C0E5
:103B3000019721F4509A589A789436C000C0F6CF75
:103B4000FE01ED5FFE4F6381662381F08091AA0143
:103B50009091AB0124813581820F931F0E94541CE8
:103B6000811104C0509A589A78941FC00E94201C5A
:103B700080E28A95F1F75898509A80E18A95F1F79A
:103B8000CD5FDE4F6881662351F08091AA0190914C
:103B9000AB0129813A81820F931F0E94A01C0E94D1
:103BA000281C789481E001C080E0DF91CF911F91C3
:103BB0000F9108958091940208959B019091BE0207
:103BC0009430F1F48F708093E9008FEF9091E800CA
:103BD000815095FD06C095ED9A95F1F70000811191
:103BE000F5CF8091E80085FF0BC0BA01C90140E024
:103BF00050E00E94DD1F8091E8008E778093E800FE
:103C0000089543E050E0BC0182E00E94DD1D08956C
:103C100046E050E0BC0182E00E94DD1D0895CF9394
:103C2000DF93EC0148E050E0BC0181E00E94DD1D23
:103C300088E0FE01ACE8B2E001900D928A95E1F7D0
:103C4000DF91CF9108958091BD02811109C00E943A
:103C500068210E94C5218091E20084608093E20087
:103C600008951092BD0208950E940B1B0895609163
:103C7000BA0281E0611101C080E00E94F21A089549
:103C80009091BE0281E0943009F080E06091BA0228
:103C90000E94F81A089542E061EC81E00E94E12060
:103CA00042E261EC82E00E94E1209091BE0281E05C
:103CB000943009F080E06091BA020E94021B0895DE
:103CC0008091C002833009F461C030F4813071F01A
:103CD000823009F49BC008958A3009F487C08B3084
:103CE00009F46CC0893009F0A9C020C08091BF02DE
:103CF000813A09F0A3C08091E800877F8093E800B3
:103D00008091C3029091C402892B21F468E08CE871
:103D100092E003C060E080E090E070E00E9422202A
:103D20008091E8008B778093E80008958091BF022E
:103D3000813209F083C08091C3029091C40202973E
:103D400008F07CC08091E800877F8093E800809134
:103D5000E80082FD05C08091BE028111F8CF6EC0DF
:103D60002091F3008091F20090E0922B029731F4C1
:103D70008091F100813011F0863021F48091F100C2
:103D8000809394028091E8008B7754C08091BF02A9
:103D9000813A09F053C08091C3029091C402892BEB
:103DA00009F04CC08091E800877F8093E800809103
:103DB000E80080FFFCCF80912B0137C08091BF02CB
:103DC0008132E1F58091C3029091C402892BB1F553
:103DD0008091E800877F8093E8000E9416218091FF
:103DE000C10280932B010E94C30608958091BF02F7
:103DF000813221F58091E800877F8093E8000E945E
:103E000016218091C2028093950208958091BF028D
:103E1000813AA1F48091E800877F8093E800809147
:103E2000E80080FFFCCF809195028093F1008091A3
:103E3000E8008E778093E8000E941621089584B7E9
:103E4000877F84BF0FB6F894A89580916000886141
:103E500080936000109260000FBE90E080E80FB683
:103E6000F89480936100909361000FBE0E94051B3F
:103E700008950E9468210E94C521E2EEF0E0808151
:103E80008460808378940E945024089583E291E0B6
:103E90000E94F51908958091BE028530A9F48091A1
:103EA000BE02853079F40E94621B8091BC02882397
:103EB000B1F30E941E1B882391F30E94C71F0E942A
:103EC000C306EDCF0E948D1B089508959A0140917D
:103ED000C5025091C6020E946E1F0895492F5527B2
:103EE00043305105C9F060F44130510581F0423052
:103EF000510509F044C08BE390E04CE153E043C02E
:103F000041325105E1F04232510549F138C082E1B8
:103F100090E047E553E037C099278130910549F09B
:103F200028F0029761F5EAEDF2E005C0E8E1F3E080
:103F300002C0E8E0F3E0849190E0AF0124C0611595
:103F4000710541F061307105D1F489E090E047E4FA
:103F500053E019C089E090E04EE253E014C06115CF
:103F6000710541F06130710551F48BE790E049E64D
:103F700053E009C084E490E044EE53E004C080E0E4
:103F800090E040E050E0F90151834083089580E1E2
:103F900089BD82E189BD09B400FEFDCF8091D800C2
:103FA0008F7D8093D8008091E00082608093E00054
:103FB0008091E00081FDFCCF0895A0E0B0E0E3EE49
:103FC000FFE10C94A124EC018B017A010E943521C0
:103FD000811133C0E114F10439F0F701808191813E
:103FE000081B190BC80FD91FC12CD12C01151105A5
:103FF00019F18091E80085FD16C08091E8008E7768
:104000008093E800E114F10449F0F7018081918187
:10401000C80ED91ED182C08285E00FC00E94352112
:10402000882321F30AC089918093F100015011097E
:10403000FFEFCF1ADF0ADACF80E0CDB7DEB7E8E0D6
:104040000C94BD242091C5023091C6022617370773
:1040500048F06115710539F42091E8002E7720931E
:10406000E80001C0B901FC0120E06115710579F19A
:104070008091BE028823F1F18530F1F18091E80052
:1040800083FD3CC08091E80082FD2EC08091E80055
:1040900080FFEBCF2091F3008091F20090E0922B13
:1040A0006115710551F08830910538F42191209304
:1040B000F100615071090196F3CF21E0089709F0F2
:1040C00020E08091E8008E778093E800CECF211128
:1040D000CFCF0AC08091BE02882361F0853061F0A5
:1040E0008091E80083FD0AC08091E80082FFF2CF52
:1040F00080E0089582E0089583E0089581E00895C6
:104100002091C5023091C6022617370748F0611585
:10411000710539F42091E8002E772093E80001C062
:10412000B901FC0120E06115710591F18091BE0299
:10413000882309F440C0853009F43FC08091E8002D
:1041400083FD3DC08091E80082FD2FC08091E80092
:1041500080FFE9CF2091F3008091F20090E0922B54
:104160006115710559F08830910540F42491209330
:10417000F1003196615071090196F2CF21E0089764
:1041800009F020E08091E8008E778093E800CBCFA3
:104190002111CCCF0AC08091BE02882361F0853006
:1041A00061F08091E80083FD0AC08091E80082FF01
:1041B000F2CF80E0089582E0089583E0089581E0E1
:1041C0000895982F973068F59093E900981739F083
:1041D0007091EC002091ED005091F00003C0242F6D
:1041E000762F50E021FD02C09F5FECCF3091EB00B5
:1041F0003E7F3093EB003091ED003D7F3093ED003A
:104200003091EB0031603093EB007093EC00209321
:10421000ED005093F0002091EE0027FDE5CF80E007
:1042200008958F708093E90081E008958091BF0226
:1042300087FF11C08091E80082FD05C08091BE0219
:104240008111F8CF11C08091E8008B770BC080916D
:10425000BE02882349F08091E80080FFF8CF80916A
:10426000E8008E778093E80008952091E400309173
:10427000E50095E64091EC00842F817040FF23C05B
:104280008091E80080FD1DC08091BE02882399F0D6
:10429000853099F08091EB0085FD11C04091E400DC
:1042A0005091E5002417350729F3915011F09A0138
:1042B000E1CF84E0089582E0089583E0089581E0ED
:1042C000089580E008954091E80042FFDDCF089511
:1042D0000E94D7210E94DF21E0EEF0E08081816022
:1042E0008083E8EDF0E080818F77808319BCA7EDB3
:1042F000B0E08C918E7F8C9380818F7E8083109232
:10430000BD0208950F931F93CF93DF930E94D7218F
:104310000E94DF21C8EDD0E088818F778883888173
:104320008068888388818F7D888319BC1092BE0243
:104330001092BA021092BC021092BB0200EE10E082
:10434000F80180818B7F808388818160888342E04F
:1043500060E080E00E94E120E1EEF0E080818E7F6D
:104360008083E2EEF0E080818160808380818860DC
:104370008083F80180818E7F80838881806188833B
:10438000DF91CF911F910F910895E8EDF0E08081CA
:104390008F7E8083E7EDF0E080818160808384E020
:1043A00082BF81E08093BD020E9482210895E8EDE2
:1043B000F0E080818E7F80831092E2000895109259
:1043C000DA001092E10008951F920F920FB60F923B
:1043D00011242F933F934F935F936F937F938F930A
:1043E0009F93AF93BF93EF93FF938091E10082FF80
:1043F0000BC08091E20082FF07C08091E1008B7FBB
:104400008093E1000E944F248091DA0080FF1FC05A
:104410008091D80080FF1BC08091DA008E7F80934E
:10442000DA008091D90080FF0DC080E189BD82E172
:1044300089BD09B400FEFDCF81E08093BE020E94D9
:10444000231E05C019BC1092BE020E94311E80912D
:10445000E10080FF19C08091E20080FF15C08091CB
:10446000E2008E7F8093E2008091E2008061809381
:10447000E2008091D80080628093D80019BC85E06A
:104480008093BE020E94371E8091E10084FF30C0FD
:104490008091E20084FF2CC080E189BD82E189BD6A
:1044A00009B400FEFDCF8091D8008F7D8093D800A5
:1044B0008091E1008F7E8093E1008091E2008F7E09
:1044C0008093E2008091E20081608093E20080911D
:1044D000BA02882311F084E007C08091E30087FDD1
:1044E00002C081E001C083E08093BE020E94401EB2
:1044F0008091E10083FF29C08091E20083FF25C005
:104500008091E100877F8093E10082E08093BE028A
:104510001092BA028091E1008E7F8093E100809139
:10452000E2008E7F8093E2008091E20080618093C0
:10453000E20042E060E080E00E94E1208091F00033
:1045400088608093F0000E94341EFF91EF91BF912C
:10455000AF919F918F917F916F915F914F913F911B
:104560002F910F900FBE0F901F9018951F920F92D2
:104570000FB60F9211242F933F934F935F936F9336
:104580007F938F939F93AF93BF93CF93DF93EF93DB
:10459000FF93C091E900CF708091EC00D82FD170CB
:1045A00080FDD0E81092E9008091F000877F809331
:1045B000F00078940E94FA221092E9008091F000B5
:1045C00088608093F000CD2BCF70C093E900FF91FD
:1045D000EF91DF91CF91BF91AF919F918F917F919B
:1045E0006F915F914F913F912F910F900FBE0F9060
:1045F0001F901895AAE2B0E0E0E0F3E20C94A62444
:10460000EFEBF2E08091F100819322E0E73CF207CA
:10461000C9F70E94601E8091E80083FF2EC180913F
:10462000BF029091C002492F50E04A30510508F076
:1046300024C1FA01E557FF4F0C949124803821F0F2
:10464000823809F01AC108C08091BB029091BC0267
:10465000992389F082600FC08091C3028F708730E8
:1046600008F00BC18093E9008091EB0085FB88275F
:1046700080F91092E9009091E800977F9093E8000C
:104680008093F1001092F100D1C0282F2D7F09F006
:10469000F4C0882319F0823061F0EFC08091C1022C
:1046A000813009F0EAC0933009F080E08093BC02C9
:1046B0002EC08091C10281112AC08091C3028F70E7
:1046C0002FEF280F263008F0D8C08093E900209102
:1046D000EB0020FF1CC0933021F48091EB0080623E
:1046E00014C09091EB0090619093EB0021E030E0DA
:1046F000A90102C0440F551F8A95E2F74093EA00D2
:104700001092EA008091EB0088608093EB00109299
:10471000E9008091E800877F8093E8000E941621DD
:10472000ACC08111AAC01091C1021F778091E30033
:104730008078812B8093E3008091E800877F8093CD
:10474000E8000E9416218091E80080FFFCCF809154
:10475000E30080688093E300111102C082E001C091
:1047600083E08093BE0289C08058823008F085C003
:104770008091C1029091C2028C3D53E0950779F57A
:1047800083E08A838AE289834FB7F894DE01139627
:1047900020E03EE051E2E32FF0E050935700E49137
:1047A00020FF03C0E295EF703F5FEF708E2F90E027
:1047B000EA3010F0C79601C0C0968D939D932F5F8D
:1047C000243149F74FBF8091E800877F8093E8004C
:1047D0006AE270E0CE0101960E94222016C060912C
:1047E000C3027091C402AE014F5F5F4F0E94661F0B
:1047F000BC01892B09F441C09091E800977F909308
:10480000E80089819A810E9480208091E8008B775E
:104810008093E80032C0803881F58091E800877F7E
:104820008093E8008091BA028093F1008091E800C3
:104830008E7772CF811121C08091C1029091C20206
:1048400099270297D4F48091E800877F8093E8004D
:104850008091C1028093BA020E9416218091BA020F
:10486000811106C08091E30087FD02C081E001C094
:1048700084E08093BE020E944B1E8091E80083FF7B
:104880000AC08091E800877F8093E8008091EB0068
:1048900080628093EB00AA96E3E00C94C224089512
:1048A000CF938091BE028823A1F0C091E900CF7020
:1048B0009091EC00892F817090FD80E8C82B1092B8
:1048C000E9008091E80083FD0E94FA22CF70C09336
:1048D000E900CF9108950E9468211092BE020895C8
:1048E000E8EDF0E08081806180838AE18A95F1F7CC
:1048F00000C08091D9008170089597FB072E16F4AF
:10490000009407D077FD09D00E94CE2407FC05D083
:104910003EF4909581959F4F0895709561957F4FD6
:104920000895EE0FFF1F0590F491E02D09942F924A
:104930003F924F925F926F927F928F929F92AF922F
:10494000BF92CF92DF92EF92FF920F931F93CF937C
:10495000DF93CDB7DEB7CA1BDB0B0FB6F894DEBF13
:104960000FBECDBF09942A88398848885F846E8439
:104970007D848C849B84AA84B984C884DF80EE8083
:10498000FD800C811B81AA81B981CE0FD11D0FB68C
:10499000F894DEBF0FBECDBFED010895AA1BBB1B6F
:1049A00051E107C0AA1FBB1FA617B70710F0A61B2F
:1049B000B70B881F991F5A95A9F780959095BC0150
:1049C000CD010895FB01DC0104C08D910190801997
:1049D00021F441505040C8F7881B990B0895FB0102
:1049E000DC0102C001900D9241505040D8F708956B
:1049F000F999FECF92BD81BDF89A992780B50895A7
:104A0000A8E1B0E042E050E00C943C25DC01A40FAA
:104A1000B51F4150504048F0CB01840F951F2E9197
:104A20000E94172541505040D0F70895262FF9993C
:104A3000FECF92BD81BDF89A019700B4021639F0FD
:104A40001FBA20BD0FB6F894FA9AF99A0FBE0895CE
:104A50000396272F0E9417250E941625252F0E94B6
:104A60001725242F0C9417250196272F0E94172510
:104A70000C941625DC01CB01FC01F999FECF06C090
:104A8000F2BDE1BDF89A319600B40D92415050400C
:084A9000B8F70895F894FFCF78
:104A980028020100000001000000000000000601DB
:104AA8000000000407000000000000280850011E54
:104AB8000A1401DA1D0F1E081E011E01E200E9009A
:104AC800EA00B500B600B700CD008301CC008A012A
:104AD80092019401210223022402250226022702C0
:104AE8002A02B300B4006F0070009F01CB019F023F
:104AF800A002818283E200E900EA00B500B600B7AF
:104B080000CD008301CC008A019201940121022387
:104B18000224022502260227022A02B300B4006FEB
:104B28000070009F01CB019F02A0028182839466DE
:0C4B380097C63435F6F73133323651029F
:00000001FF
